S02B0000626F6F746C6F616465722D73746F726167652D696E7465726E616C2D73696E676C652D3531326B2EF0
S113000000800020A10000009D000000F10000001D
S11300109D0000009D0000009D0000009D00000068
S11300209D0000009D000000502500009D00000080
S11300309D000000842500009D0000009D0000003C
S113004010B5054C237833B9044B13B1044800E0D0
S113005000BF0123237010BD080100200000000030
S1130060E826000008B5034B1BB10349034800E030
S113007000BF08BD000000000C010020E8260000BD
S1130080044B054A9A60D3F8882042F47002C3F8FE
S11300908820704700ED00E000000000FEE700004B
S11300A008B5FFF7EDFF00F097F80A4A0A4B0B4931
S11300B08B4206D300210A4B0A4A934206D300F02E
S11300C01BF852F8040F43F8040BF1E743F8041B40
S11300D0F3E700BFE826000000010020080100202B
S11300E0080100202401002000F0A0BA00F0EEBABC
S11300F04FF4017001F0B4BB07B501A800F084FA15
S11301002C4B9B6DDB0318D42B4A136823F4FF0399
S113011023F4FE4343F4BC1343F4A063136052F886
S1130120043C23F4704343F4404342F8043C52F843
S1130130043C43F4E06342F8043C9DF80530012B91
S11301400FD19DF8043063B94FF000531B681B4B6B
S11301501B681B4B1B681B4B1B681B4B1B681B4BF7
S11301601B681B4AD2F8803043F00303C2F8803086
S1130170FFF7BAFF01F06DFB00F0EDFD30B940F27E
S1130180012001F06DFB4FF401700AE0114B019363
S1130190019B002B0BDC40F205439842F3D140F263
S11301A0032001F05DFB002003B05DF804FB019B1C
S11301B0013BECE700C0004034C000400040002098
S11301C00080002000C00020000001200040012029
S11301D00080004000350C0008B54FF04023D3F8F0
S11301E094305B060BD4012344F2040212680132FA
S11301F014D1BDE808404FF4027001F023BB01F0B4
S113020047FBA0F2022080B20728ECD8012303FAAE
S113021000F010F0C90F18BF0023E5E793B14FF4C5
S1130220804001F0EFF90028E3D04FF48043064A00
S113023093601846016881F3088881F3098840684F
S11302408746FEE708BD00BF00ED00E000207047D0
S113025030B501240025074B01445C609D601A61A0
S11302601A46DC60884201D1586A30BD10F8014B4F
S11302701462F7E700800840F8B504461D461646A8
S11302800F4600F02EFADDE90612204600F02FFAA0
S1130290002384F83870636232682B0CC4F8392068
S11302A07268C4F83D20B26884F845302B0AC4F85B
S11302B0412084F8463084F84750F8BD30B51D46D7
S11302C085B000F12803CDE90112009300F1240266
S11302D000F13803294600F08FFA05B030BD000064
S11302E02DE9F04798B0884617469946209E8246E5
S11302F000285DD000295BD0002A59D0002B55D0AE
S11303002D4D2E4B002E08BF1D461C22002111A886
S113031002F00AF92A4B18AC44F8203D294620463D
S113032000F025F92021204600F021F90122254B77
S1130330CDF8049002920393049605920693B9F1C2
S1130340000F08D03EB101A9204600F0FCF804A932
S1130350204600F0F8F801261A4D07A92046CDF8EA
S11303601CA00896099500F0EEF80AA92046CDF8DD
S113037028800B960C950D970E960F9500F0E3F8D8
S11303800DA9204600F0DFF8204600F0F9F84FF000
S113039098435A6CD202FCD55B6D40F2046013F4AE
S11303A0702F08BF002018B0BDE8F087034DACE7FC
S11303B040F20160F7E700BF1F2400801F24FC8483
S11303C0000001062000002010B5044600F01AFCCD
S11303D02046BDE81040002100F03EBC00F046BCC1
S11303E0014600F045BC000070B50D4C0D4E0E4D9D
S11303F0F36913EA050208D00C4A1A40002A14BF14
S11304006FF001004FF0FF3070BD03408B4204D009
S1130410013CEDD16FF00200F6E71046F4E700BFAF
S113042080969800000003400600010002000100CD
S113043070B5134C6061E06943071DD40E1D096853
S1130440151FA1615DB90423294623612120FFF70B
S1130450CBFF58B9BDE870402120FFF7C5BF082184
S11304600846FFF7C1FF10B10423236170BD56F89D
S1130470043B043DA361E5E74FF0FF30F6E700BF1E
S11304800000034038B541F671330E4C0122E56992
S1130490E36341F20C03E250022360610021236113
S11304A0212005F48035FFF79FFF18B9014621206C
S11304B0FFF79AFF42F20C030122E2500DB1002330
S11304C0E36338BD000003402DE9F843154641F6C7
S11304D07132164B8846DF690121DA6341F20C025E
S11304E00646DFF84C9007F48037995055B92846F2
S11304F042F20C0201210D4B99500FB10022DA6334
S1130500BDE8F88306F5005404EA0904A41BAC42D0
S113051028BF2C46414622463046FFF789FF002873
S1130520E6D12644A0442D1BE0E700BF00000340B1
S113053000E0FFFF4FF098435A6CD202FCD5586D8F
S113054000F470207047436813B9416070475B68DA
S11305505A68012AFBD159607047836813B98160D6
S113056070475B685A68012AFBD159607047C369B8
S1130570032B9FBF00EB83020133D160C36170473B
S1130580C369042B15D84FF09842116CC902FCD5ED
S113059004339B0013650168103B116041680C3003
S11305A0116050F8041C034411604FF098429842C3
S11305B000D1704750F8041B1160F8E7F0B51546F8
S11305C00F4C104A8DB0002B08BF144607461C225E
S11305D00E4605A8002101F0A7FF012301A904A8E4
S11305E03C4345F000550196049402930395FFF7AC
S11305F0B4FF04A8FFF7C4FFFFF79CFF0DB0F0BDE4
S113060001000AFF010008FF054B5B69C3F3851273
S1130610827003F03F021B0B42700370704700BFEF
S113062000C0074000487047C42500000020704700
S1130630024BD86900F00100704700BF000003407E
S113064008B5034608469918B1F5002F04D8194691
S113065001F05FFF002008BD40F20240FBE7831871
S1130660B3F5002F10B50ED940F2024010BDC458A6
S113067001340AD104339A42F9D800F083FE0028E9
S1130680F2D00020F2E70023F5E740F20340EDE763
S113069038B541EA0003C3F30C0304469BB90D18B3
S11306A0B5F5002F08D8204604F5005400F063FE89
S11306B0A54204D00028F6D140F2024038BD0028FB
S11306C0FAD00020FAE740F20440F7E70020704730
S11306D04FF098435A6CD202FCD5586D00F4702048
S11306E0704718B12422002101F01EBF704770B575
S11306F00E4615460446A0B199B12422002101F00A
S113070013FF25F04003802B02D0B5F5807F0BD179
S11307102046EA0840F8045B314601F0FAFE002066
S113072070BD6FF02100FBE76FF01F00F8E70000D9
S11307302DE9F041884692B016461F46054600282A
S11307404ED0002A4CD0002B4AD0046824F0400339
S1130750802B02D0B4F5807F45D11C2200210BA848
S113076001F0E2FE214B22490122B8F1010F18BF2A
S113077019462B1D0193E4081E4B0A9144F00054C2
S113078001A90AA802920394049605920693079776
S113079008920993FFF7D7FE04A90AA8FFF7D3FE2E
S11307A007A90AA8FFF7D9FE29680AA8C908FFF70C
S11307B0DEFE10210AA8FFF7DAFE00F0EBF804468B
S11307C050B90AA8FFF7DCFEFFF782FF054600F0E8
S11307D0E3F8002D18BF2C46204612B0BDE8F08186
S11307E06FF02104F8E76FF01F04F5E7000101043E
S11307F000010004100000202DE9F04F9BB00746D3
S11308008A469846DDF8949016460AB31568002F78
S113081000F0B480B9F1000F00F0B080269B002BEB
S113082000F0AC80B8F1000F00F0A880249B002BEE
S113083000F0A4803B6823F04002802A03D0B3F583
S1130840807F40F09E8009EB0A03002400930DE0B2
S11308501546DCE795B1249A19F80430525D013548
S11308605340269A05F00F05135501345445F1D32E
S1130870002E00F089803560002060E0AAEB040BB4
S1130880BBF10F0F51D91C22294613A801F04CFECD
S11308903E4B3A6812933B1D03930123D20842F066
S11308A00052049305923A4A2699CDF818802BF009
S11308B00F0B07930892CDF824800A930B9209EB4F
S11308C004020C9221444BF000520D9312A80E9294
S11308D00F9103A910931192FFF735FE06A912A8F0
S11308E0FFF731FE0CA912A8FFF72DFE0FA912A8DD
S11308F0FFF733FE09A912A8FFF72FFE396812A8E3
S1130900C908FFF734FE594612A8FFF730FE00F07D
S113091041F8A0B912A8FFF733FEFFF7D9FE019002
S113092000F03AF8019B5C4443B9269B09EB040BA5
S11309301C44009B5B4505D1544697E718461BB001
S1130940BDE8F08F7DB94246249B01213846FFF76C
S1130950EFFE08F1100212F8013D0133DBB213700F
S11309600BB99045F7D1249A1BF8013B525D013530
S1130970534004F8013B05F00F05DAE76FF021005E
S1130980DDE76FF01F00DAE73046D8E70303000421
S11309901000002000207047002070472DE9F0412E
S11309A092B005460F46904600211C220BA81E4615
S11309B0189C01F0B9FD01214FF000528D42CDF891
S11309C00480029103920497059106920796089178
S11309D009923BD003D3022D4BD0274C32E0274B56
S11309E012A8A40140F8203D2146FFF7C0FD039B57
S11309F01C430394069B43F014030693099B43F0A2
S1130A00140304A90AA80993FFF79DFD01A90AA8E4
S1130A10FFF799FD07A90AA8FFF79FFDFFF7BAFFA3
S1130A20044678B90AA8FFF7ABFD4FF098435A6C17
S1130A30D202FCD55D6DFFF7AFFF114B15F4702F9B
S1130A4018BF1C46204612B0BDE8F0810D4B12A819
S1130A50A40140F8203D2146FFF789FD039B1C4378
S1130A600394069B43F020030693099B43F0200361
S1130A70C7E712A8044BEBE780AFFFFF00020103B6
S1130A8080ADFFFF00030103000401032DE9F347D8
S1130A9002281446DDE90A9280460E461F464ED8C7
S1130AA01CB9002002B0BDE8F08713683F2B42D880
S1130AB0516809B1002F3ED1B8F1010F3DD0224D4C
S1130AC02249B8F1020F18BF0D4603F03F00E318A6
S1130AD0136022BF53680133536090B3C0F1400ADE
S1130AE0544522D331465246484401F012FD0123B5
S1130AF04A46009329463B464046A4EB0A04FFF7C6
S1130B004DFF3F2C56440DD93D46A3090093324670
S1130B103B4629464046FFF741FF24F03F031E446D
S1130B2004F03F04002CBCD0002022463146484447
S1130B3001F0EFFCB5E73D46C7E7054DC5E70548BD
S1130B40B0E73F2CF1D9E0E736260000F625000097
S1130B501626000080AFFFFF2DE9F041012886B082
S1130B6004460E4690461D4604D045D3022841D083
S1130B7022483CE01C272A68CDE90085D3008DF883
S1130B800F3053098DF80E30530B8DF80D30530D83
S1130B908DF80C306B682046D90001EB52718DF84A
S1130BA00B1002F03F025909372A8DF80A104FEA58
S1130BB053314FEA535394BFC2F13802C2F1780261
S1130BC08DF809108DF808300D493346FFF75EFFA4
S1130BD0082233460DEB0201CDE900852046FFF7DC
S1130BE055FF3A4631460C9801F093FC002006B0BC
S1130BF0BDE8F0812027BEE71427BCE780AFFFFFE4
S1130C005626000018B16C22002101F08DBC7047FB
S1130C1007B590F868300190002B00F12803009389
S1130C2000F1080314BF01200220FFF72FFF03B0D7
S1130C305DF804FB07B590F868200346002A00918C
S1130C4000F1280200F1080114BF01200220FFF77F
S1130C5083FF03B05DF804FB00239942D4BF002155
S1130C600121C0E9003380F868107047FFF7D0BF56
S1130C70FFF7E0BF00207047002070470020704756
S1130C8000207047002070470020704728231B680D
S1130C90186970472823186870474FF4004070475C
S1130CA00120704710B5ADF5047D4FF4037201A91E
S1130CB0002000F093F940F20124002101A800F083
S1130CC0D0F8A042F9D040F20323984204D040F275
S1130CD005400DF5047D10BD9DF8043003F00302BA
S1130CE0022AF4D003F00502042AF0D059070DD4E7
S1130CF09DF804309A071AD4DB07E8D50499809844
S1130D0000F0E2F90028E2D00020E2E70B9800F0BE
S1130D1005FD0028ECD0809800F092F90028E7D077
S1130D20FFF7BBFF00F024FD0028E1D1CFE7282224
S1130D301268029992689142DED9809800F09EF977
S1130D400028C4D0FFF7A9FF0A9900F0A1FCBEE770
S1130D504FF488207047FFF7A5BF000000B591B09D
S1130D600023402269464FF48070FFF727FCB0F55A
S1130D70A02F034818BF002011B05DF804FB00BF8A
S1130D804CE3070000B591B00023402269464FF4BC
S1130D908070FFF713FCB0F5A02F034818BF0020A4
S1130DA011B05DF804FB00BF6CE307000048704716
S1130DB086E2070031B10A4B5A68824205D8002303
S1130DC0C1E9003340F201407047013053F830204C
S1130DD003EBC0035B680A604B600020704700BFF0
S1130DE0E025000001221A707047000070B40D4C19
S1130DF00E461146626882420DD9013004EBC002EE
S1130E005268F51895420AD854F830001A4630440E
S1130E1070BCFFF715BC40F2014070BC704740F253
S1130E200240FAE7E025000030B504460D46A3B0C1
S1130E3002AAD0F804128023D0F8FC01FFF7D6FFF1
S1130E400095802302AA214604F12C0000F0A2FEA2
S1130E50D4F80432C4F808028033C4F8043223B04E
S1130E6030BD1FB50023CDE90033CDE90213D0F81E
S1130E7008320446A3B9D0F80422D0F800329A42CA
S1130E800ED26946FFF7D0FFD4F8080298B141F2B8
S1130E90070240F20123904208BF184604B010BD77
S1130EA0A3785BB140F2022040F20323E278002AE7
S1130EB018BF1846F2E740F20120EFE740F20220A3
S1130EC0ECE7000070B50D46002186B006AB03F8D0
S1130ED0111D02931E4B04461646116028461C221F
S1130EE0CDE90333059301F01FFB9DF8072062B998
S1130EF094F87230142B08D0D4F808322BB9D4F8F3
S1130F000412D4F8003299421AD32378990744BFC3
S1130F10636833602378DB0709D504F1080304F11F
S1130F20240153F8040B8B4245F8040BF9D162B940
S1130F30237840F20640002B18BF002006B070BD95
S1130F4002A92046FFF770FFCFE70020F6E700BFB5
S1130F50E50D000070B40D4C0E46114662688242E5
S1130F600DD9013004EBC0025268F51895420AD835
S1130F7054F830001A46304470BCFFF770BB40F29E
S1130F80014070BC704740F20240FAE7E0250000DF
S1130F90074B5A68824207D9013003EBC0025168FB
S1130FA053F83000FFF774BB40F20140704700BFB4
S1130FB0E025000010B5044660B14FF480320023F0
S1130FC0C0E90023044B1A785B680272C360FFF720
S1130FD029FB206110BD00BFE025000037B50C4699
S1130FE005461146204600F0F7FB48B969462846F5
S1130FF0FFF7E0FE20B9019BC4F8FC51C4F80032AD
S113100003B030BD38B500F5C87204460D46202340
S113101000F5A4712C3000F077FDD4F808322BB918
S1131020D4F80422D4F800329A4203D3A07800B151
S1131030E07838BD29462046FFF7F6FEEDE70000CC
S113104000B5ADF5097D4FF4037205A9FFF7C6FF9E
S113105078B904238DF81530074BCDE901000390CE
S113106001A905A80493FFF7CDFF0DF5097D5DF8EF
S113107004FB0020F9E700BFC315000030B5ADF54F
S1131080097D0D460446FFF705FE8368AB4203D392
S113109000200DF5097D30BD4FF4037205A92046EB
S11310A0FFF79CFF0028F3D102238DF81530054B80
S11310B0CDE90100039001A905A80493FFF7A2FF5D
S11310C0E7E700BFC315000000B5ADF5097D4FF497
S11310D0037205A9FFF782FF78B901238DF8153053
S11310E0074B0190CDE90230049001A905A8FFF750
S11310F089FF0DF5097D5DF804FB0020F9E700BFC9
S1131100991500002DE9F0419AB0502204460D468D
S113111006A8002101F008FA1422002101A801F018
S113112003FA01A8FFF746FF049B012B0ED8002306
S11311304FF0FF3223600123AB4203D300201AB0E7
S1131140BDE8F08144F823200133F5E7AB426BD3CB
S1131150FFF7FEFD059B0C2206A90646DF68FFF794
S11311606FFA0028EBD1DFF8CC80069B434516D1FB
S1131170089A06A93046FFF763FA4FF0FF32089940
S113118006A8FFF765F82A4B984233D04FF0FF3397
S113119004EB8505A54213D044F8043BFAE7374431
S11311A00C2206A93846FFF74BFA0028C7D1069B44
S11311B043450BD04FF0FF3304EB8505A54202D124
S11311C040F20550BBE744F8043BF7E706A9089A48
S11311D03846FFF735FA059B3046D968FFF758FAC9
S11311E00028ACD1089A06A93046FFF738FA00283F
S11311F0BED0A4E7089BA3F110029208AA4228BF1C
S11312002A460023934207D14FF0FF32AB4295D2D6
S113121044F823200133F9E706A901EB8301C968E7
S113122044F823100133EDE740F2045087E700BF90
S1131230E320BBDE39528FE1F0B59BB00D4644226A
S11312400021074609A801F06FF901232F4A002164
S1131250CDE906235023142201A8089301F064F970
S113126001A8FFF7A7FE049BAB424BD3012B08D880
S11312703B6840F204500133012B98BF00201BB09F
S1131280F0BDFFF765FD059B102DDC68064628BF01
S1131290102500230444AB4226D14FF0FF32102B1B
S11312A02AD14C214FF0FF3206A8FEF7D1FFC043EC
S11312B0059B1990D9682046FFF7EAF90028DED18A
S11312C0502206A92046FFF7CAF90028D7D1059B6A
S11312D03046D968FFF7DCF90028D0D1502206A99E
S11312E03046FFF7BCF9CAE757F8231006AA02EB09
S11312F08302D1600133CEE706A901EB8301CA6002
S11313000133CCE740F20450B9E700BF39528FE112
S113131070B596B014220021064601A801F004F924
S113132001A8FFF747FE049C012C1ED906AD2146F7
S11313302846FFF7E7FE20B140F2055398420DD14D
S1131340002055F820305A1C0AD116AB03EB80005C
S113135040F8406C21462846FFF76EFF16B070BD7A
S1131360B34205D001308442EBD140F20250F5E79C
S113137040F20350F2E708B5FFF784F8B0FA80F0C2
S1131380400908BD10B540EA0204A40706D13AB1E9
S1131390FFF79AF8B0FA80F0400910BD0020FCE78E
S11313A00120FAE74FF098435A6CD202FCD5586DED
S11313B000F4702070470000F0B585B06C4602461A
S11313C026460D4B03F11007254618685968083363
S11313D003C5BB422C46F7D104AB501E13F8011DC4
S11313E010F8012F914204D1B342F7D1012005B086
S11313F0F0BD0020FBE700BFD8260000C0F30C03BB
S11314002DE9F04105460F4616460BB9FFF7B3FF29
S113141005F5005424F4FF5424F01F0405EB0608DA
S1131420A04506D8324639462846BDE8F041FFF7C4
S1131430A9BF2046FFF79FFF04F50054F0E738B535
S113144004460D46FFF7B8FF40B16369012B08D18C
S1131450237C012B05D8A3692B6038BD2C600120A7
S1131460FBE70020F9E72DE9F0479EB0446B064600
S1131470FFF710FC82462046FFF79EFF18B90020B4
S11314801EB0BDE8F087237C012BF8D83427D7F8A9
S113149000804046FFF790FF0028F0D0B8F57F5F4A
S11314A0EDD8FFF7EFFB002835D14FF0000902A972
S11314B02046FFF7C4FF0028E1D0029BDAF8102091
S11314C09A42DCD8B342DAD3B3F5801FD7D803A845
S11314D0FEF77AFF029A3146921B03A8FEF77EFFBD
S11314E003A8FEF77DFF029DFFF7CCFB2035029E8B
S11314F0002849D0B9F1000F43D0A36B03F12402B3
S1131500009204332A46314603A8FEF7E9FEB0FAF6
S113151080F04009B4E7236913F0FF0F2CD01B0AB5
S11315202AD0A56B45B33F683846FFF745FF81468F
S11315300028A4D0B7F57F5FA1D8BB6B5A6C6B6C45
S11315409A429CD803A8FEF73FFF4822294603A8E5
S1131550FEF744FF03A8FEF743FFBB6B05F1480108
S113156003F124020092043305F1680203A8FEF794
S1131570B7FE00289BD082E7FFF786FB002894D0B3
S11315807DE7D8F83830B9E7FFF7E8FB0446FFF702
S1131590F9FB23460090B5E770B504460E461546A0
S11315A0FFF778FB0369A3420AD8426963199A4298
S11315B006D32A4631462046BDE87040FFF71EBFD9
S11315C070BD2DE9F041154607468846FFF762FBDA
S11315D00646FFF762FBC4196319B3F5801F0FD8E1
S11315E03FB9FFF75AFB7369834202D93069FFF7A9
S11315F0C2FE2A4641462046BDE8F041FFF7FEBE42
S1131600BDE8F081F8B5D0E9006706F1604604460C
S1131610456BFFF73FFBB6F5C03F01D90020F8BD8D
S11316200369BB42FAD8B7F5801FF7D84033AB4201
S113163002D8B5F5801F05D9FEF708FE80F0010039
S1131640C0B2ECE7FEF702FE20B12046BDE8F84048
S1131650FFF709BF2846FFF7AFFEA8B12B7C012B8B
S1131660DCD86B69002BDAD0022BEED1AB69C4F164
S1131670040119444FF0FF322046FEF7E9FD034B05
S1131680C31A58425841CAE70120C8E7E320BBDE29
S113169070B54FF0FF3290B006460D46FEF7D8FD08
S11316A01B4B984231D11C22002101A800F03CFFC1
S11316B0184B10AC44F8403D20463146FEF757FF26
S11316C029462046FEF753FF2046FEF759FFFFF751
S11316D069FE0446C8B940F2022000F0B3F81C22A7
S11316E0214609A800F020FF0B4B10AC44F8203D24
S11316F031462046FEF73BFF29462046FEF737FFDA
S11317002046FEF73DFFFFF74DFE002010B070BDF0
S1131710E320BBDE01000543010006434FF0FF3325
S113172010B58CB01C220021044605A8009300F0DB
S1131730FBFE0D4BCDF804D00493012302930B4B15
S113174001A904A80393FEF708FF04A8FEF718FFF5
S1131750FFF728FE30B90098A0422CBF00200120DA
S11317600CB010BD0020FBE700000843040000207B
S113177030B5054691B01C22002101A800F0D4FE2A
S1131780134B10AC44F8403D29462046FEF7EFFECB
S11317902046FEF7F5FEFFF705FE0446A8B940F221
S11317A0022000F04FF81C22214609A800F0BCFEDC
S11317B0084B10AC44F8203D29462046FEF7D7FEDE
S11317C02046FEF7DDFEFFF7EDFD002011B030BD31
S11317D00000024300000343B1F5037F10B5044643
S11317E010D34FF40372002100F09EFE002304F591
S11317F0C872637004F5A47104F12C00BDE81040B4
S113180000F082B940F2052010BD13B504460091E2
S113181001462C3000F0BEF9C4F8080218B141F2B8
S11318200703984209D1A3784BB140F2032040F258
S11318300223E278002A08BF184602B010BD40F225
S11318400120FAE74FF000534FF20F0218805A803C
S113185070474FF000534CF23C325A8070470000FE
S11318604FF000534FF20F0218805A80BFF34F8F8E
S11318700549064BCA6802F4E0621343CB60BFF328
S11318804F8F00BFFDE700BF00ED00E00400FA0544
S11318904FF000534FF20F015A888A4201D1188841
S11318A070473AB91B8840F20220012B18BF4FF44D
S11318B0007070474FF40070704770B5D1E9015261
S11318C0AA4205D290F840302B449B1A402B10D9E1
S11318D0002012E00A6890F84040D65C90F841205D
S11318E00133224402F03F02013486548B6080F8B5
S11318F040408B689D42EDD8012070BD2DE9F8432E
S11319001746D1E90125521B90F8405004462A4459
S113191093420E469DF820909DF8248057D9FFF7F6
S1131920CCFF00285DD1152341F2020084F8463033
S1131930BDE8F88394F84120A25C7A5594F84120DC
S11319400135013202F03F0284F8412094F840202E
S1131950013A84F8402094F8402012B1AB42E9D116
S11319601D46D6E901128A4201D2AB4231D8AB42BC
S1131970D9D1D4F8882029463846FEF769FCC4F842
S11319808800B9F1000F04D02A463946E06CFEF70E
S113199025FDB8F1000F08D094F843302BB12B4645
S11319A03A463946A06CFEF789FC94F8433043B1BB
S11319B0E36DA26D2B449342E36524BF002384F8B6
S11319C04330636D41F203001D446565B0E70025B3
S11319D0C1E731688A5C7A55B26801350132B26078
S11319E0BFE70020A4E700007FB50023CDE9003362
S11319F0082315460DEB03020446FFF77FFF41F26F
S1131A0003039842064626D194F8433063B1082272
S1131A10E06C0DEB0201FEF7E1FC08230DEB030281
S1131A201146A06CFEF74AFC039A029B6A6094F884
S1131A3043202B605AB9094A934208D0084A93427A
S1131A4005D00822E06C0DEB0201FEF7C7FC6B68C1
S1131A50236500236365304604B070BDF70A0AF7B6
S1131A60FC0404FC2DE9F843044658680D46164668
S1131A701F46002843D08B0743D1FFF707F9216E97
S1131A8000F1040C06EB0109CC451DD800F11C0241
S1131A90914219D28C45634638BF0B46914594BF99
S1131AA0C3EB0909C3EB0209591AA3EB0C0005EBBC
S1131AB0010868304A464146204400F02AFD4A465F
S1131AC0FF21404600F030FDFFF7E7F8226E031DCA
S1131AD093420AD3B1180830814206D39B1AEA58BC
S1131AE0C4F880204FF0FF32EA50D7E9003832467C
S1131AF0206E2946C0470020236E1E442666BDE89A
S1131B00F88341F20200FAE72DE9F04100254FF095
S1131B10FF3704468846164603F0200380F8423017
S1131B2080F84650A0F8405080F8435080F8455063
S1131B3080F84450C0F88870C0E918551822FF2175
S1131B40683000F0F1FCC4F88070C4F88470C4E913
S1131B5012868822294604F1900000F0E5FC84F8FE
S1131B601851FFF78DF830B1B8F1000F03D141F2ED
S1131B700B00BDE8F081FFF781F830B1002EF6D0FC
S1131B80E06CFEF721FC0020F3E7002EF8D130468C
S1131B90EFE700002DE9F04FB7B0CDE90823342278
S1131BA003930023D2F800A00446BAF57F5F884669
S1131BB0409E0A9300F2D98099460A9A039B9A425E
S1131BC05BD294F84630152BF8D8DFE813F08B007D
S1131BD0A0008400CB0058003F0036003C023F00C8
S1131BE036023F0005023F0036020D034F04160083
S1131BF076037A030C04A2024F040027636D0F2BB3
S1131C006ED801251023019700950BAA08A9204638
S1131C10FFF774FE41F20303984240F0A880D4F821
S1131C2048B0FFF7C3F880230CAACDE900030221D2
S1131C302B465846FEF720FBE0E70125D4E9143291
S1131C409A42C0F05F8184F84650B6E70DF12C0B40
S1131C50D4E91452AA420A9942D2099BAD1A94F8C3
S1131C6040205B1A032D134440F2F181032B00F250
S1131C70158208A92046FFF720FE002077E0012501
S1131C80636D072B99D80823CDE900550BAA08A941
S1131C902046FFF733FE41F20303984267D198F8D8
S1131CA0003043F0020388F800300B9BC8F804307E
S1131CB0236D083BC8F824300C9B0593002B51D1AD
S1131CC0052284F8462094F84520636642F0010218
S1131CD084F84520D4E70025636D072B40F2DB80B0
S1131CE0012311E006AA08A92046FFF77DFE41F270
S1131CF0030398423BD1079B069A2365002363653F
S1131D00B74B9A422ED1022384F8463055E706AAEF
S1131D1008A92046FFF768FE41F20303984226D142
S1131D2094F84420069B22B1AE4A93421AD10E2362
S1131D30EAE794F84220D50756D594F84320002AC0
S1131D4040F09783A84A934248D01BD8A74A9342AD
S1131D5000F095800ED8A24A934203D002F1B64215
S1131D6093421AD1152384F8463041F2010037B06A
S1131D70BDE8F08F9E4A9342F4D09E4A9342F1D03C
S1131D809D4AEDE79D4A93421ED00FD89C4A934248
S1131D9000F091839B4A934218D0152306A884F837
S1131DA04630FEF767FF0028DFD11AE0964A9342D7
S1131DB0D8D0964A9342D5D08A4A9342EDD1FEF7C1
S1131DC05DFF0028B3D0CDE710239DE7112384F8ED
S1131DD04630236DA3650023E365EEE6152384F8FE
S1131DE0463041F20800C2E7824A934233D000F2FF
S1131DF054837E4A93423DD000F2458302F1D74298
S1131E0002F5D81202F6F832934220D006A8FEF763
S1131E1031FFB0B31423069884F84630C4F88C001C
S1131E20FEF72AFF94F84230814698067FF5C5AE46
S1131E30B9F1000F3FF4C1AED9F80430002B3FF4E0
S1131E40BCAE2046984700283FF4B7AE8DE70B237D
S1131E505AE7062358E7072356E70D2354E7FEF70E
S1131E600DFF00287FF47EAF94F84330002B3FF43D
S1131E705EAF77E794F84330002B7FF473AF1223FF
S1131E8042E7152384F8463094F84330002BA8D059
S1131E9041F204006BE70123019500930BAA082388
S1131EA008A92046FFF72AFD41F2030398427FF474
S1131EB05EAF0B9B03F07F43B3F1407F05D0152346
S1131EC041F2090084F8463051E70C9BD907059389
S1131ED00ED594F8423043F0010384F84230FEF703
S1131EE0CDFE00283FF4F8AE059BDA0504D5F3E6F1
S1131EF0FEF7C6FE0028F2D0152341F20A0084F84A
S1131F00463034E7CDE900550BAA08A92046FFF76F
S1131F10F5FC41F2030398427FF429AF08F1080C61
S1131F2063460BAF0DF1440E3A4603CA724518607E
S1131F305960174603F10803F6D11068186098F841
S1131F400030604643F0010388F80030FEF7A8FE35
S1131F5000287FF473AE152341F20C0084F8463058
S1131F6005E701230DAACDE9003308A9082320467B
S1131F70FFF7C4FC41F2030398427FF4F8AE98F8EB
S1131F80003043F0040388F800300E9BC8F8283072
S1131F9098F801305B071CD500201D4B60660B933D
S1131FA0236DC4F8843094F8453043F0020384F878
S1131FB04530F5686DB1336804220BA9A84708229F
S1131FC0606E3368F5680DA91044A847636E10333A
S1131FD063660C2384F84630636D072BC1D9ECE5A6
S1131FE0EB17A603FC0404FCF70909F7F30B0BF346
S1131FF0F50909F5F60808F6F40A0AF4FA0606FAE9
S1132000F70A0AF7F90707F9FD0303FDFE0101FECC
S1132010EB17A65E0423CDE900550BAA08A92046B8
S1132020FFF76CFC41F2030398427FF4A0AE226DEB
S11320300B9B042A059301D923660125636D032BA9
S1132040E8D90A2360E60023636608235CE69D4220
S11320503FF60FAE9D4228BF1D460123032D88BFC6
S113206025F00305CDE900335A462B4608A920463E
S1132070FFF744FC41F2030398427FF478AE94F8EE
S11320804630082B13D1B7688FB133682A465946B6
S1132090606EB847636E1D446566D9E5402D28BF60
S11320A04025D7E74FF0FF320BF805200135032D0B
S11320B0F8D90A2B06D133462A4659462046FFF75B
S11320C0D1FCC5E5052B18D198F801309F077FF5A1
S11320D0BFADF368002B3FF4BBAD626E042A0AD88F
S11320E05319062B07D90CAB9B1A1A68C4F8842021
S11320F04FF0FF321A60F768C7E70C2B7FF4A8ADE6
S113210098F8013058077FF5A3ADF768002FBCD1CC
S11321109EE594F84230990607D5D4F88C00FEF772
S1132120ABFD814600283FF420AE01273FE0002BA1
S113213058D0B9F1000F55D0D9F81030002B51D038
S113214020469847DDE90953ED1A94F840302B44B2
S113215098423FF68EADD4E91452AD1A402D28BFF3
S113216040259D4228BF1D46CDE900772B460BAA8A
S113217008A92046FFF7C2FB41F2030398427FF40B
S1132180F6AD94F842309A0611D5B9F1000F3FF438
S1132190ECADD9F808B0BBF1000F3FF4E6AD33461F
S11321A02A460BA92046D84700287FF4E0ADD4E99D
S11321B0142194F84230914203F02003B7D3002B4A
S11321C03FF48EADB9F1000F3FF48AADD9F80C306D
S11321D0002B3FF485AD31462046984700283FF454
S11321E07FADC4E50120ADE700230BAACDE90033A0
S11321F008A904232046FFF781FB41F20303984218
S11322007FF4B5ADD4F88820B14B9A4205D015239C
S113221041F2050084F84630A9E5FEF72FFD10B918
S1132220012388F8033098F80330002B3ED094F84B
S113223045309B0707D0F5682DB10422336804F1BB
S113224084011046A847236E83B3736873B34FF0B9
S1132250FF3336AF47F8C43D04F1800904224946F0
S1132260384600F047F940B1FEF717FD28B1D6E92A
S11322700035042249461044A84704F168050422A5
S11322802946384600F036F980B17768FEF7FEFC3F
S11322903368142204F16C010830B8477768FEF7FC
S11322A0F5FC0422336829461044B847012388F812
S11322B002300F2384F84630DFE4012384F84330EE
S11322C022E594F81831002B7FF477AC626D01930A
S11322D0032A10D801230BAA009308A9042320463B
S11322E0FFF70CFB41F2030398427FF440AD0B9BD4
S11322F0C4F8903061E4432A1AD801230BAA00934E
S113230008A940232046FFF7F9FA41F20303984253
S11323107FF42DAD0BAD04F194021BAF2B4603CB20
S1132320BB42106051601D4602F10802F6D144E43C
S1132330472A4FF00102009217D804230BAA08A9D8
S11323402046FFF7DBFA41F2030398427FF40FAD16
S11323500B9BC4F8D430DAF83820002A3FF4FBADE4
S1132360526C9A427FF629ACF5E540230BAA08A9E2
S11323702046FFF7C3FA41F2030398427FF4F7AC17
S113238004F1D80C67460BAB1BAD1A4603CAAA422C
S1132390CCF80000CCF8041013460CF1080CF4D16E
S11323A02846FEF711F8482204F190012846FEF76A
S11323B015F82846FEF714F8DAF83830394603F1F0
S11323C024020092043304F1F8022846FDF788FF42
S11323D028B1152341F2060084F84630C7E40123EE
S11323E084F8183190E494F84430002B7FF478ACEE
S11323F0CDE900330BAA402308A92046FFF77EFA53
S113240041F2030398427FF4B2ACE06CFDF7E8FFBD
S113241094F8183173B104F1B403009304F19403F4
S1132420E06C13AA0BA9FDF75BFFC8B1002388F881
S11324300330CEE7FEF726FC30B1DAF8383003F18A
S1132440240200920433EBE7E56CFEF787FC0746B1
S1132450FEF798FC3B46009013AA0BA92846E2E736
S1132460012388F8033084F8443039E441F207004A
S11324707DE4184A93423FF4EEAC0ED8164A9342D8
S11324807FF4BAAC6EE4154A93423FF4E2AC144ACA
S113249093427FF4BBAC042336E4124A93423FF4E4
S11324A0DEAC0AD8104A93427FF4B0AC94F84330BF
S11324B0002B7FF457AC132326E40C4A93423FF4D9
S11324C0CCAC0B4A93427FF4A1AC09231CE400BFBB
S11324D0E320BBDEF60808F6F30B0BF3F40A0AF468
S11324E0F50909F5FC0404FCF70A0AF7FD0303FDEA
S11324F0FE0101FE30B50024A24201D1002007E014
S1132500035D01340D1915F8015CAB42F4D0581B7E
S113251030BD431E0A4410B5914200D110BD11F8DC
S1132520014B03F8014FF7E702440346934200D1FD
S1132530704703F8011BF9E7F8B500BFF8BC08BC05
S11325409E467047F8B500BFF8BC08BC9E4670476D
S113255007B0CD5E0100000003000A01F826000068
S11325600040000000000800F0000100E900000045
S1132570ED00000005160000D91700000B1800003C
S11325809826000013B779FAC925DDB7ADF3CFE07B
S1132590F1B614B80101000000000000F4260000A8
S11325A04000000003000A010000000000000000D9
S11325B00000000000000000000000000000000017
S11325C000000000010203002800000028000000B1
S11325D00020000000000800F025000004000000B6
S11325E0010000000100000000E00300007C030083
S11325F045465233320067452301EFCDAB8998BA83
S1132600DCFE10325476C3D2E1F00000000000007A
S1132610000000000000C1059ED8367CD50730704C
S1132620DD17F70E5939FFC00B316858151164F9DD
S11326308FA7BEFA4FA46A09E667BB67AE853C6EF6
S1132640F372A54FF53A510E527F9B05688C1F8398
S1132650D9AB5BE0CD198000000000000000000051
S11326600000000000000000000000000000000066
S11326700000000000000000000000000000000056
S11326800000000000000000000000000000000046
S1132690000000000000000000010000B50F000071
S11326A0B50D0000ED0D0000550F0000910F000066
S11326B0391200000511000011130000DD0F0000A5
S11326C0630E0000C50E0000310600004106000044
S11326D05F06000091060000B814B6F1E0CFF3AD38
S10F26E0B7DD25C9FA79B713000000002B
S10B26EC65000000410000003C
S90300A15B
