S00B00004C6162332E733337A7
S214000000C01A002049C801003145000035450000EF
S214000010A70B0000000000000000FFFF54000000D7
S21400002004180F00000000000000000000000000A0
S21400003000000000000000000000000000000000BB
S214000040000000000000000000000000A701000003
S20800005000000000A7
S214000054C01A002049C8010031450000354500009B
S214000064A70A0A010002000004180FACA067A70143
S2140000740000000000000000000000000000000077
S2140000840000000000000000000000000000000067
S2140000940000000000000000FFFFFFFFFFFFFFFF5F
S2140000A4FFFFFFFF006007000000000000000000E4
S2140000B4FFFFFFFFFFFFFFFF8000000000000000BF
S2140000C40000000000000000000000000000000027
S2140000D40000000000000000606000206060002057
S2140000E4C01A00205CA403009819030060110020C5
S2100000F42C11002000E0070000000000B7
S214000200C01A002049C801003145000035450000ED
S214000210A9740000394500004145000047C80100A8
S21400022047C8010047C8010047C8010047C8010089
S2140002304545000047C8010047C8010047C80100FF
S214000240B8450000B8450000B8450000B8450000B5
S214000250B8450000B95C0000255E0000B845000007
S214000260B8450000B8450000BD5A0000B84500007B
S214000270B8450000B8450000B8450000B845000085
S214000280B8450000B8450000B845000047C8010062
S214000290B845000051530000B8450000B8450000BE
S2140002A0B845000019540000F1530000B84500009E
S2140002B0B8450000B8450000B845000019A2010086
S2140002C0A5A10100A1A10100E198010015A201006D
S2140002D0A9A10100C9A10100ADA1010047C8010004
S2140002E05DA20100B8450000B845000019480000AE
S2140002F0B8450000B8450000B845000047C80100F2
S214000300B8450000B8450000B8450000B8450000F4
S214000310B8450000B8450000B8450000B8450000E4
S214000320B8450000B8450000B8450000B8450000D4
S208000330B8450000C7
S214000334F8B500BFF8BC08BC9E467047F8B500BFC9
S214000344F8BC08BC9E46704710B5054C237833B9F4
S214000354044B13B1044800E000BF0123237010BD12
S2140003641022002000000000049D030008B5034B83
S2140003741BB10349034800E000BF08BD00000000AD
S21400038414220020049D0300154B002B08BF134BBA
S2140003949D46A3F5803A00218B460F461348144A1F
S2140003A4121A31F0D5FA0F4B002B00D098470E4B9B
S2140003B4002B00D098470020002104000D000D48B3
S2140003C4002802D00C4800E000BF31F083FA200079
S2140003D429000BF0BAF831F069FA00BF00000800F3
S2140003E4C01A0020000000000000000010220020B8
S2140003F46060002000000000000000001FB501231C
S2140004040022009306210DF10F030DF016FB20B910
S2140004149DF80F3023B104F0CFF805B05DF804FB67
S21400042404F0CBF8F9E7000030B50024144D85B08D
S2140004342C700BF0B3FF022817D100900DF10E03B9
S2140004442246032101200DF0F8FABDF80E0048B14B
S214000454204604F0B3F84FF47A61284620F0C4FF2F
S21400046405B030BD04F0A8F8FAE709F019F8054B12
S2140004740090054A054901200EF0FCFCF0E700BF99
S2140004844850002080350300981903009D19030086
S21400049408B50BF083FF02280CD10022064B01207E
S2140004A41A7006F0C7FCBDE808400246034901205E
S2140004B40EF0E0BC08BD00BF40500020FC1903004D
S2140004C4912808B504D1002004F077F8002008BD70
S2140004D49028FBD1002004F06FF8024820F078FF43
S2140004E4F4E700BF40500020014820F071BF00BF71
S2140004F44850002013B5044600900D4B0D4A0E4993
S21400050401200EF0B7FC8CB111F0A2FCC2B21AB1F5
S2140005140A4901200EF0AEFC002008F0D1F9084B81
S2140005240090084A044901200EF0A4FC02B010BD55
S214000534C2190300981903009D190300CB19030080
S21400054480350300F7190300002307B5044A009317
S2140005540449054B01200EF08DFC03B05DF804FB46
S214000564B11903009D190300C2190300FFF746BF23
S21400057409B9FFF743BF704738B5C37B05460BB1CF
S214000584832038BDC47C2CB901F076FE20B9EB7B01
S214000594002BF5D18120F4E72046F2E7C37B10B5A3
S2140005A404460BB1832010BDC37C012B13D003D3A8
S2140005B4402B13D08120F6E7017D82898B1C9A425A
S2140005C418D380680DF085FF06F0E6FFA0B9E37B3C
S2140005D4002BE7D1EEE706F0F7FFF7E7037D818906
S2140005E49A1C914206D38268591C515CD05C11F067
S2140005F4BFFEEBE78020D6E70020D4E7F8B5C37B40
S21400060404460BB18320F8BDC37C052B29D8DFE84C
S21400061403F0032A35414C4F057D8289AB1C9A4270
S21400062401D28020EFE7ADB2294680680DF051FF75
S2140006340646A06802352844A7890DF063FF2844BF
S21400064401308742EDD32946A289A0680DF048FF01
S2140006540146304606F0AEFC002848D1E37B002B6A
S214000664D0D18120CFE7017D82898B1C9A42D8D3D2
S21400067480680DF02EFF06F0BDFCEDE7037D818952
S2140006845A1C9142CDD38268591C1144D05C06F0A2
S214000694E1FCE1E7017D82898B1C9A42C1D3806824
S2140006A40DF017FF06F058FDD6E706F0B1FDD3E7C8
S2140006B4057D8289AB1C9A42B3D3ADB229468068C5
S2140006C40DF007FF0646A06802352844A7890DF0FA
S2140006D419FF284401308742A3D32946A289A0687B
S2140006E40DF0FEFE0146304606F0DAFDB4E70020C3
S2140006F489E7C37B2DE9F7430446002B40F03E818F
S214000704C37C042B00F0B7800BD8012B00F0888044
S2140007143FD3022B00F09480032B00F0A1808120AD
S2140007243DE0402B00F0DA800FD8052B00F0B380B4
S214000734062BF4D1017D82898B1C9A422ED38068C5
S2140007440DF0C7FE0AF07EF961E0412B00F005814A
S214000754422BE4D1037D8289D91D8A421ED39DB2E1
S2140007648068691CC65C0DF0B4FE0746A068EB1CE6
S214000774A289291D10F803800DF0ABFEA368063588
S2140007845B5D4246009339460346304612F0D8F87D
S2140007943DE0057D8289AB1C9A4203D2802003B0DB
S2140007A4BDE8F083ADB2294680680DF092FEA289BA
S2140007B4E91C8A42064605F10203EFD3881C8242EE
S2140007C4ECD3A0680535C75C0DF083FE8046A068B0
S2140007D4B4F80C9028440DF095FE28440130814569
S2140007E4DCD32946A289A0680DF07AFE8146A0686B
S2140007F428440DF087FE01300544A0684B4610FAE5
S21400080485F500954246394630460AF033FD002801
S21400081440F0B680E37B002B14BF83208120BEE724
S214000824057D8289EB1C9A42B8D3ADB2294680680E
S2140008340DF04FFEA3680235595D0AF001FEE6E7A7
S214000844057D8289EB1C9A42A8D3ADB229468068FE
S2140008540DF03FFEA3680235595D0AF01DF8D6E791
S214000864017D82898B1C9A4298D380680DF031FEF4
S2140008740AF080F8CBE7057D8289EB1C9A428DD37B
S214000884ADB2294680680DF024FEA3680235595D92
S2140008940AF024FABBE7057D8289AB1C9A42FFF472
S2140008A47DAFADB2294680680DF013FEA289E91C1F
S2140008B48A42064605F10203FFF470AFA068C75CDF
S2140008C48B1C9A4207D30DF004FE02463946304686
S2140008D40AF0DCFA9BE74FF6FF72F7E7057D82899C
S2140008E4AB1C9A42FFF45AAFADB2294680680DF0AD
S2140008F4F0FDA289E91C8A42064605F10203FFF4CC
S2140009044DAF881C8242FFF449AFA0680535C75C2A
S2140009140DF0DFFD8046A068B4F80C9028440DF076
S214000924F1FD284401308145FFF438AFA2892946F9
S214000934A0680DF0D5FD8146A06828440DF0E2FDC0
S21400094401300544A0684B4610FA85F500954246EA
S2140009543946304611F0DCFF59E7057D8289EB1CE9
S2140009649A42FFF41BAFADB2294680680DF0B1FD84
S214000974A3680235595D11F0DBFF48E783200EE7D4
S21400098400200CE7F8B5C37B04460BB18320F8BD02
S214000994C37C022B21D004D8ABB1012B1AD0812002
S2140009A4F5E7412B1CD0422B1DD0402BF7D1037DFD
S2140009B481899A1C91422DD38268591C515CD05C63
S2140009C411F020FE01E008F031FF28BBE37B002B8A
S2140009D4E5D0DBE708F040FFF7E708F053FFF4E75D
S2140009E411F056FEF1E7037D8289591D8A4211D320
S2140009F49DB28068691CC65C0DF06BFDA289074633
S214000A04E91CA0680DF065FD39460246304611F033
S214000A147FFEDAE78020BAE70020B8E7C37BF7B5A5
S214000A240446002B40F0D280C37C072B00F2D08013
S214000A34DFE813F008003800590086009B00AA007F
S214000A44B600C900037D8289591C8A42C0F0C28060
S214000A549DB2691C881C8242C0F0BC80A068C75C3A
S214000A640DF037FDEB1CA6895A1C964228BFA268D7
S214000A74014624BFD25C2B1D03F1010038BFFF22C0
S214000A8486422ABFA068FF23C35C384607F05EFB95
S214000A94002840F0A180E37B002B14BF8320812034
S214000AA403B0F0BD067D8589731C9D42C0F092801C
S214000AB4B7B2BA1C954207F10103C0F08B80806878
S214000AC4C15C13460132954224BFC25CFB1C03F191
S214000AD4010738BFFF22BD422CBFC35CFF23805DE5
S214000AE407F051FBD4E7037D8289591C8A4271D3EF
S214000AF49DB2A91C8A4205F101076BD3881C824269
S214000B0468D3A068C65CC75D0DF0E3FC291DB4F885
S214000B140CC04B1C9C4528BFA368024624BF5B5CE4
S214000B24691D01F1010038BFFF23844532BFFF2150
S214000B34A068415C30460091394607F03CFBA7E7C5
S214000B44027D8189501C814293B222BFA068013382
S214000B54805C03F1010238BFFF2091422ABFA268DD
S214000B64FF21D15C07F043FB92E7017D8289CB1C11
S214000B749A422FD38068455C01310DF0AAFC0146E9
S214000B84284607F0F1FA83E7037D81899A1C91428F
S214000B9420D38268591C515CD05C07F000FB77E7D1
S214000BA4037D8289191D8A4214D3806899B2C55C74
S214000BB44B1C0231C65C0DF08CFC314602462846BE
S214000BC407F007FB64E707F01AFB61E7832067E793
S214000BD4812065E7802063E7002061E72DE9F04384
S214000BE4C37B85B00446002B40F0A582C37C062B4D
S214000BF400F05B8139D8022B00F0EB8007D8002B7D
S214000C0400F08F80012B00F0C58081208FE0042B3C
S214000C14067D858900F02A8140F20381731C9D427B
S214000C24C0F08480B7B207F1010C0CF101039D42B9
S214000C347CD3FA1C954207F1020377D38068F91C2B
S214000C44C25C4B1C9D4224BF435C391D01F1010765
S214000C5438BFFF23BD4234BFFF25455C10F80C1097
S214000C64805D009502F03CF88BE00A2B00F0AD8125
S214000C743AD8082B017D828900F07D8140F24581B7
S214000C848B1C9A4252D38DB2294680680DF021FC03
S214000C94A91CA2898B1C9A42074647D3A0680DF06C
S214000CA418FC291DA2898B1C9A4280463ED3A06854
S214000CB40DF00FFCA91DA6894B1C9E4228BFA368F5
S214000CC4024624BF5B5CE91D01F1010038BFFF2327
S214000CD4864232BFFF21A068415C38B200910FFA09
S214000CE488F102F017F94CE04B2B00F09A814C2B5C
S214000CF400F0D881472B88D1027D8189501C81421F
S214000D0493B222BFA0680133805C03F1010238BFAE
S214000D14FF2091422ABFA268FF21D15C02F09CFA10
S214000D242FE0037D8289591C8A4203D2802005B0B5
S214000D34BDE8F0839DB2A91C8A4205F10107F5D3EC
S214000D44881C8242F2D3A068C65CC75D0DF0C1FB66
S214000D54291DB4F80CC04B1C9C4528BFA36802464A
S214000D6424BF5B5C691D01F1010038BFFF23844585
S214000D7432BFFF21A068415C30460091394601F03D
S214000D84A1FE002840F0D981E37B002B14BF83200A
S214000D948120CCE7067D8589731C9D42C6D3B7B2F5
S214000DA4BA1C954207F10103C0D38068C15C1346A0
S214000DB40132954224BFC25CFB1C03F1010738BF15
S214000DC4FF22BD422CBFC35CFF23805D01F0C6FD3D
S214000DD4D7E7077D85897B1C9D42A7D3BEB206F163
S214000DE4010C0CF101039D42A0D3F21C954206F1BE
S214000DF402039BD38068F11CC25C4B1C9D4224BF3B
S214000E04435C311D01F1010638BFFF23B54234BFF0
S214000E14FF25455C10F80C10C05D009501F004FF3A
S214000E24AFE7731C9D4281D3B7B2791C8B1C9D42DD
S214000E34FFF47CAF80682A46865D0DF04AFBFB1CF7
S214000E44A5895A1C954228BFA268014624BFD25CD5
S214000E543B1D03F1010038BFFF2285422ABFA0686C
S214000E64FF23C35C304601F095FE8AE7731C9D425F
S214000E74FFF45CAFB7B2BA1C954207F10103FFF466
S214000E8455AF8068C15C13460132954224BFC25CEC
S214000E94FB1C03F1010738BFFF22BD422CBFC35C15
S214000EA4FF23805D01F0BCFD6BE7037D8289591C3E
S214000EB48A42FFF43BAF9DB2A91C8A4205F10107A2
S214000EC4FFF434AF881C8242FFF430AFA068C65CDF
S214000ED4C75D0DF0FEFA291DB4F80CC04B1C9C45EA
S214000EE428BFA368024624BF5B5C691D01F10100AC
S214000EF438BFFF23844532BFFF21A068415C3046DB
S214000F040091394601F0BCFC3BE78B1C9A42FFF487
S214000F140DAF8DB2294680680DF0DBFAA91CA289B4
S214000F248B1C9A420746FFF401AFA0680DF0D1FA75
S214000F34291DA2898B1C9A428046FFF4F7AEA0684E
S214000F440DF0C7FAA91DA6894B1C9E4228BFA368AC
S214000F54024624BF5B5CE91D01F1010038BFFF2394
S214000F64864232BFFF21A068415C38460091414664
S214000F7401F00EFF05E78B1C9A42FFF4D7AE8DB244
S214000F84294680680DF0A5FAA91CA2898B1C9A42F2
S214000F940746FFF4CBAEA0680DF09BFA2B1DA6897E
S214000FA45A1C964228BFA26801B224BFD25C6B1DAD
S214000FB403F1010038BFFF2286422ABFA068FF2340
S214000FC4C35C38B201F038FFDBE6057D8289AB1CD2
S214000FD49A42FFF4ABAEADB2294680680DF079FABA
S214000FE4A91CA2898B1C9A420746FFF49FAEA068F0
S214000FF40DF06FFA2B1DA6895A1C964228BFA268CC
S214001004014624BFD25C6B1D03F1010038BFFF22EA
S21400101486422ABFA068FF23C35C384601F0F4FF6B
S214001024AFE6037D8289591C8A42FFF47FAE9DB2E7
S214001034691C881C8242FFF479AEA068C65C0DF079
S21400104448FAE91CA2898B1C9A420746FFF46EAE46
S214001054A0680DF03EFA691DA2898B1C9A42804650
S214001064FFF464AEA0680DF034FAEA1DB4F80CC0C0
S214001074511C8C4528BFA168034624BF895C05F132
S214001084080202F1010038BFFF21844532BFFF2267
S214001094A068825C3046CDE900124246394601F02B
S2140010A4CDFF6EE6037D8289591C8A42FFF43EAE6C
S2140010B49DB2691C881C8242FFF438AEA068C65CE8
S2140010C40DF007FAE91CA2898B1C9A420746FFF426
S2140010D42DAEA0680DF0FDF9691DA2898B1C9A42FD
S2140010E48046FFF423AEA0680DF0F3F9E91DA2894B
S2140010F48B1C9A428146FFF419AEA0680DF0E9F9FC
S21400110405F10902A389511C8B4229BFA168FF215E
S214001114895C05F10A02551CAB4232BFFF22A36864
S2140011249A5C0090CDE901124B4642463946304659
S21400113401F0EAFF25E68320F9E50020F7E5C37B06
S21400114410B504460BB1832010BDC37C412B03D0DD
S214001154422B0FD08120F7E7037D81895A1C9142E8
S21400116412D38268D05C11F0DDFC78B9E37B002BE7
S214001174E9D1EFE7037D81895A1C914204D3826842
S214001184D05C11F017FDF0E78020DDE70020DBE7F8
S21400119438B5C37B0446002B437D14BF8325C32583
S2140011A4012B16D0637DE3B92368228A59885879BF
S2140011B40BF03BFEA8B123685B88052B32D012D80F
S2140011C4032B25D029D863B92046BDE83840FFF75D
S2140011D4D3B90368028A598858790BF02FFE002881
S2140011E4E0D0284638BD082B21D006D8062BF8D1E7
S2140011F42046BDE83840FFF7C5BBB3F5407F1BD09B
S214001204B3F5805FEDD12046BDE83840FFF797BFC1
S2140012142046BDE83840FFF7C1B92046BDE838404F
S214001224FFF7ECB92046BDE83840FFF762BA20461F
S214001234BDE83840FFF7F2BB2046BDE83840FFF76C
S214001244CDBC7047012070470120704701207047CD
S2140012547047002070470020704700207047002029
S2140012647047002070470020704701207047012017
S2140012747047B52070470020704700207047002054
S2140012847047002070477047002070470020704762
S2140012947047002070478420704770477047704737
S2140012A47047704770477047002070477047704714
S2140012B4704700207047704700F022BD0320704737
S2140012C400207047034B1B681878012808BF0220CB
S2140012D4704700BFA0480020002070470346012046
S2140012E4024AC3E9032000221A7070470100FEFF79
S2140012F470477047704700207047002070470020F2
S21400130470470020704770470020704770470020E1
S2140013147047002070470020704700207047002068
S21400132470470020704700207047002070477047C1
S214001334B520704700207047002070477047002093
S214001344704770477047B5207047704770477047BE
S21400135400207047704770470023FF21084A137027
S21400136482F8783082F8653082F8773082F87930FF
S21400137482F87A1082F87B30024A1360704700BF06
S2140013842C22002050500020F8B50D468C680A68C0
S21400139406462749002003F0ACFF686870B9254963
S2140013A403F0A7FF00200AF0A9F82349002003F061
S2140013B4B5FFBDE8F84000200AF0A0B8002EF1D032
S2140013C41E4D1F4E1F4F013C14F8010F18B91A4941
S2140013D403F0A4FFE6E7752818D0762818D07728F7
S2140013E418D0732818D0722818D0712818D06228FC
S2140013F418D06E2818D02A2818D01349134B212841
S21400140418BF1946002003F074FFDDE72946F9E704
S2140014143146F7E73946F5E70D49F3E70D49F1E7B5
S2140014240D49EFE70D49EDE70D49EBE70D49E9E70F
S214001434A96E0300B01A0300611A03006E1A0300B3
S214001444621A0300791A0300BA1A0300B71A0300D3
S214001454851A03008F1A03009A1A0300A51A0300BC
S214001464AF1A0300B41A0300F0B50026204A92F817
S2140014747B30184452FA80F090F865C090F86650B5
S21400148430461C4BA5EB0C051F78EDB2F4B2A54212
S21400149425D90CEB060313445B7811B10CB92D2B3C
S2140014A417D0782B1FD0582B05D108B137240AE063
S2140014B4013C012C14D9602B17D8402BF6D83A2BB4
S2140014C434BF302400241B1BDBB29F4203D900FB2D
S2140014D407300136DAE70523002082F87930F0BDBC
S2140014E410270020F5E70028E2D05724EBE700BFDA
S2140014F42C220020581C0020FFF72EBF034B93F825
S214001504770093F87B30C01AC0B270472C220020B4
S2140015140021FFF7A9BF000010B50A4B93F87B2003
S214001524024453FA82F292F8652013445C78A4F1DC
S2140015342D0359425941FFF797FF2D2C08BF40420F
S21400154410BD00BF2C22002030B50C4A92F87B3028
S2140015540344C043DBB2C00F39B1D51895F86640D2
S21400156495F86550641B241A0C7042FA83F393F8BA
S21400157465301844024B184430BD00BF2C220020AE
S2140015842D220020F7B515460E460DF107011C4620
S214001594FFF7DAFF9DF807300746AB4288BF8DF8A1
S2140015A407501CB19DF807402C1BE4B22246304677
S2140015B4002100F079FB30199DF80720394600F029
S2140015C417FB9DF8070003B0F0BD38B50C460123A1
S2140015D40822FFF7D7FF04F10803621E043413F849
S2140015E4011D12F8015FA3421D701170F7D138BDBA
S2140015F438B5054601460120FFF7C6FED5E9014386
S2140016046CB91C46084D236863B12946002003F0D4
S21400161470FE21460020FFF7B7FE0C34F3E71B7874
S2140016246E2BEFD038BD00BFC970030008B504495F
S214001634002003F05EFEBDE80840002009F05EBF0F
S214001644221A030038B5FFF7F1FF0024054D61198F
S2140016540C34631953F80C3C03B938BD0020FFF76B
S21400166493FEF4E71C2B03002DE9F84F1F4B204D87
S21400167453F820201F49002003F03BFE2B681BB9BB
S214001684BDE8F84FFFF7DEBF1B4FFFF7CFFF00267E
S214001694B946DFF86CA097F87B30F4B2013B9C4265
S2140016A404DB2868BDE8F84FFFF7A2BF47FA86F3C5
S2140016B493F8658000234C44C84494F8662094F854
S2140016C4651003F1010B521ADBB2D2B2934205D372
S2140016D40A49002003F00DFE0136DCE743445A783D
S2140016E45146002003F005FE5B46E6E75C1C00203E
S2140016F4505000201D1A03002C220020CA7003003C
S214001704387303002DE9F74F884C94F87730002B94
S21400171400F0A180864B671C1B7813F0010F1FD0C6
S2140017240025844E14E0631993F8662093F8653018
S2140017340020D21A44FA85F393F86510D2B23944DD
S21400174409F0D7FE3146002003F0D3FD0135EDB293
S21400175494F87730AB42E6D87749002003F0C9FD09
S214001764002694F87730DFF8DCE10193734B4FF0F2
S2140017740008714645461EF8012B91F801C007EB98
S214001784020AACEB020C5FFA8CFC1868002852D0F4
S2140017940138D14619E02AB9002D4AD04FF0010885
S2140017A40C33F2E719F8011BA1F1410BBBF1190F39
S2140017B498BF2031A2F1410B98BFC9B2BBF1190FF3
S2140017C49CBF2032D2B28A42EAD1A9EB0A01614513
S2140017D410F8012FDFD1002ADED11D46584B013602
S2140017E41D6094F87B30F6B2013384F87B30D5E97B
S2140017F40123002A35D01B786E2B31D03F2B23D003
S2140018044FF000094FF0070BC846042394F87710EE
S214001814AA68B14212F808702BD8AFB1904498F871
S21400182401302A2B10D0212F1CBF032384F87930D3
S2140018340AE01D46B4E7B8F1000F01D1002DCDD162
S2140018440223002584F8793094F87900002869D1B9
S21400185468680CF02DFB03B0BDE8F04FFFF77CBDC5
S2140018641346019AB24282D803221D4684F8792090
S214001874EAE7732F09D8712F0BD2212F1FD0622FBE
S2140018843CD0002F4BD1032246E0A7F17502022A72
S21400189445D8752F29D0762F2AD0732F2BD0722FA8
S2140018A447F6FF7A18BF4FF0FF3A012148460193E6
S2140018B4FFF7DAFD5045019B01D984F87930AA6810
S2140018C4424452782A2A94F879201CBF08F1010869
S2140018D45FFA88F8002AB7D1212F1FBF013609F115
S2140018E40109F6B25FFA89F990E74FF0FF0ADCE7E0
S2140018F44FF6FF7AD9E74FF07F0AD6E794F87B20B5
S2140019044A4454FA82F292F8652022445278222AF3
S214001914D5D07B2AD3D0052284F87920CFE784F863
S21400192479B0CCE7FFF7A0FE95E700BF2C22002095
S214001934A8220020CA7003005F1A03001C2B0300B1
S21400194450500020912200202DE9F34106460D4612
S2140019544FF000085C4C5D4F66B90DF10701284650
S21400196409F0C2FD78B1262800F0A980012384F886
S21400197479304BE0002D00F0A28016F8013B013DC3
S2140019848DF80730EDB23A789DF807300D2A3B7093
S21400199401D10A2BE0D00D2B0CD0A3F10A02514240
S2140019A4514122788846042AD6D8DFE802F0051D7D
S2140019B4263C31000121F4E721B1FFF7A3FE4FF0E6
S2140019C40108C9E7202B63D0222B07D102232370FA
S2140019D494F87820642A5DD10623C8E77B2B01D1CE
S2140019E40323F4E70123F2E709B9202BF0D194F896
S2140019F47730112B3FD10323B9E7222BF7D00029E8
S214001A04E6D005234FF0010884F8793004232370C8
S214001A14B8F1000FA0D094F8790008B1FFF724FEBF
S214001A24FFF79AFC98E77D2B94F87A0003D1FF28F9
S214001A34DDD005239BE7602B13D8402B13D8392B16
S214001A448CBF002230229A1AD2B20F2A10D8FF284E
S214001A540BD0FF2302EB00128DF8072084F87A30AF
S214001A64B6E75722EFE73722EDE784F87A2073E7E4
S214001A74202BDED170E70133DBB294F8782084F8AB
S214001A847730234483F8652000232370002994D1FB
S214001A94884661E72378012B09D19DF80730A3F126
S214001AA4410119299CBF2033DBB28DF807309DF81D
S214001AB40710A3180132597084F878204CE7404682
S214001AC402B0BDE8F08100BF2C220020A92200202D
S214001AD449BA89B24840C0F303114140080380B2B2
S214001AE44840C3B280EA431070471BF07BBE704781
S214001AF47047704770477047704770477047704725
S214001B0470477047704770477047002070477047AB
S214001B147047002070477047704700207047704732
S214001B2470470020704770470120704701207047B7
S214001B34704770477047704770477047704700009B
S214001B442DE9F0470024204DDFF89C90DFF89CA098
S214001B545FFA84F840461FF005FAFF2806460CD1C3
S214001B6422461A49287803F0D9FB2878013409F06C
S214001B74C5FC142CECD1BDE8F087154B47B213EA2C
S214001B84270338BF534659F824201249287803F00F
S214001B94C5FB002FE9DA14B1B8F1030F08D10E4BD8
S214001BA416F0010F0D49287818BF194603F0B6FB46
S214001BB40A2CDAD10A4B16F0010F0A49287818BF06
S214001BC4194603F0ABFBD0E788480020D91B030076
S214001BD4611A0300011C03009C1B0300B21B0300D4
S214001BE4C41B0300CE1B0300481B03001C6F03002A
S214001BF48842F0B54FEA92031AD804460D469BB2C3
S214001C049E00871904370434BC4205F104053AD112
S214001C14C3EB8333314402EB8303013E304411FAB1
S214001C2483F3994220D011F8012B00F8012FF8E72E
S214001C34541E204421440D4604469BB2A0EB830662
S214001C44043E043CB442A5F104050ED16FF003042F
S214001C545C43C3EB833302EB830321449BB201341E
S214001C642044CB1A994209D1F0BD2F792771EF7819
S214001C74E770AF78A7706F786770E2E711F801290C
S214001C8400F8012DEEE715F804CC04F804CC15F89A
S214001C9403CC04F803CC15F802CC04F802CC15F8EF
S214001CA401CC04F801CCAEE70244904200D1704760
S214001CB400F8011BF9E710B5013801390AB91046D6
S214001CC406E010F8014F11F8013F9C4201D0E01ADB
S214001CD410BD013A92B2F1E782B2074B4AB1000C4A
S214001CE41A8008BF4FF6CE22044B14BF18801A8001
S214001CF470474BF6EF62F2E72C1D00202E1D0020E5
S214001D04094B1888020448BF80F0620042001A801B
S214001D14064A1388190444BF83F4805383F00B03E4
S214001D2459001180584070472C1D00202E1D00209D
S214001D340022034B1870034B1970034B1A7070473C
S214001D44B3220020B2220020B42200202DE9F04F56
S214001D54234E85B0337807468846002B3DD04FF691
S214001D64FB73204D98422C7803D952211E4802F06A
S214001D747DF81E4B4FF0000B9A4632785FFA8BF9CB
S214001D844A45187811D9484402A9C0B2019327F0ED
S214001D9451FF082241460DEB0200FFF78CFF0BF1C2
S214001DA4010B019B0028E8D14C462B78A34207D1AF
S214001DB4631C3278DBB29A422B7004BF00232B706C
S214001DC49AF8003041461C44E4B2204628F05AF8FB
S214001DD418B93946204627F0FBFE05B0BDE8F08F5B
S214001DE4B2220020B4220020F61C0300B3220020F6
S214001DF4024B187800F07F00704700BFB522002021
S214001E04034B18780130C0B2187000F07F0070479A
S214001E14B52200201FB5030A8DF80E300323009365
S214001E2403AB8DF80D0000F0BFF905B05DF804FBB8
S214001E341FB58DF80F100421030A8DF80E3000919B
S214001E4403AB8DF80D0000F0AFF905B05DF804FBA8
S214001E542DE9F043994689B0BDF840509DF844609A
S214001E64074688460DF1090011460822BDF84C4085
S214001E74FFF7BEFE8DF81250012E4FEA15258DF899
S214001E8411908DF813508DF8146017D0032E1CD1C2
S214001E94082212990DF11500FFF7AAFE9DF850309E
S214001EA48DF81D3016230093BDF8542002AB41462E
S214001EB4384600F079F909B0BDE8F0838DF815408E
S214001EC4240A8DF816400F23EDE70120F3E71FB52B
S214001ED40C46194602238DF80D2000930A4603ABE0
S214001EE40146204600F060F904B010BD70B586B017
S214001EF4044616460DF10D0008221D46FFF778FE2F
S214001F040A232A460093342103AB20468DF8156035
S214001F1400F04AF906B070BD30B5002485B0ADF8BF
S214001F240A20021D92B2012A1D46ADF80840ADF8FB
S214001F340610ADF8044003D94FF6FF72904207D15D
S214001F44064A2B46127801A925F0B6FF05B030BD27
S214001F54014601AA204626F075F8F7E7301D002052
S214001F642DE9F74F9846FF2A16BF474B00241B68F7
S214001F740E4618BF9C5C814618BF6408B8F1FF0F74
S214001F8416BF414B00271B6815461CBF13F8087084
S214001F947F08FFF735FF4FEA19238DF800008DF808
S214001FA403600621360A68468DF804608DF80190B1
S214001FB48DF802308DF805401FF08CFDFF2806468C
S214001FC404D11824204603B0BDE8F08F4FEA440B32
S214001FD40BF1070A0AEB4701C9B21FF02FFD0028D0
S214001FE4EFD10446A3451BD10BF106013A4601F096
S214001FF4FE0130465FFA8AF41FF0E7FD4FF0000A50
S2140020045FFA8AF5AF4223D83346BDF8302006215E
S2140020144846FFF781FF044630461FF0FDFBD1E734
S214002024214628461FF0CCFDA11D0246C9B2304603
S2140020341FF0CBFD611CC9B228461FF0C1FDE11D8F
S2140020440246C9B2304602341FF0BFFDE4B2C9E707
S2140020546D00EDB2294640461FF0B2FD2146024609
S21400206430461FF0B2FD691CC9B240461FF0A8FDF9
S214002074611C0246C9B2304602341FF0A6FD0AF1BE
S214002084010AE4B2BCE700BFC81C00202DE9F041F9
S21400209488B00F4602A906460AF04CFA00287CD0FF
S2140020A4FFF7AEFE8DF810001FF030F98DF8110022
S2140020B41FF02CF9000A8DF81200082239490DF198
S2140020C41300FFF795FDBDF808300F218DF81C307E
S2140020D41B0A8DF81D309DF80D3004A88DF81B6082
S2140020E48DF81E301FF0F6FCFF28044657D04FF03C
S2140020F400089DF80D305FFA88F2934208F1010853
S2140021041DD801220DF10E0120461FF025FD4FF0CB
S21400211400089DF80E305FFA88F2934208F1010831
S21400212424D823463A4620210020FFF7F5FE05462C
S21400213420461FF071FB284608B0BDE8F081002158
S21400214430460AF023FA05468DF807000DF107011C
S214002154012220461FF000FD2D0A01220DF1070181
S21400216420468DF807501FF0F7FCC2E701213046E1
S2140021740AF00CFA05468DF807000DF10701012256
S21400218420461FF0E9FC2D0A01220DF10701204626
S2140021948DF807501FF0E0FCBBE7A325CBE7182516
S2140021A4C9E700BF155F0020F8B51C460E46174663
S2140021B40546FFF725FE9DF81810207020461FF0F0
S2140021C489FCFF2804460BD003463A462846314687
S2140021D4FFF7A2FE054620461FF01EFB2846F8BD64
S2140021E41825FBE708B5FEF77FF90DF0D3FEBDE82A
S2140021F4084006F05BBC08B5FFF74AF80DF0F8FE99
S214002204BDE8084005F052B97047FFF784B8FFF7F9
S21400221488B80020704738B504460D46FFF79AF88C
S2140022242946204606F05EFC29462046BDE838408E
S21400223409F0ECB9FFF777B8FFF781B8012200215F
S21400224409200EF0A1BB002307B5CDE90033012316
S21400225469464FF0FF308DF8023012F03BFF003035
S21400226418BF012003B05DF804FB0120704701206D
S214002274704701207047000010B5084C23681B689F
S21400228458790BF078F823681B685879FFF706F836
S21400229400200EF041F8012010BD00BF3C5D002078
S2140022A42DE9F84F80460D4614469946164E06F11B
S2140022B4010A0DB9BDE8F88F102D4FF00D024946FE
S2140022C450462F4628BF1027FFF792FC0123337091
S2140022D400230D48F473B37327F06CFE42460134B2
S2140022E40A495FFA87FBE4B212F8013B11F8010FC2
S2140022F4434002F8013CA2EB0803DBB25B45F3D390
S214002304ED1BADB29046D4E7BA220020B9220020D5
S2140023142DE9F04F4FF00209364D85B003930F9B1D
S214002324174601900D220E460146681CBDF83880FB
S2140023340293FFF75DFC49234C46AA462B702846B9
S2140023444FEA1823AB7385F80F8027F033FE2B78FB
S21400235483EA17232B706B787B406B704FF0000B6F
S21400236421E0C4F1100CA7EB0B031FFA8CFC9BB204
S214002374634528BF63463046A11B00EB010C5FFA99
S2140023848CF2A0EB060C1FFA8CFC9C451BD31C4459
S214002394E4B29B44102C1E441FFA8BFB03D1284640
S2140023A427F008FE0024BB45DBD314B1504627F0C3
S2140023B401FEB9F1010F4FF00004039E47460BD00F
S2140023C44FF00109CAE710F801CB1AF802E08CEACC
S2140023D40E0C0AF802C0D0E7029804220549FFF75B
S2140023E407FC22460421019B029805B0BDE8F04F85
S2140023F4FFF756BFBA220020F7B5099FBDF8204064
S2140024040646CDE900471D46FFF782FF2CB133464A
S214002414012221462846FFF743FF002003B0F0BD03
S2140024242DE9F7431E46054688469146BDF82870B2
S2140024340D4C0346394630460122FFF731FF33463A
S2140024444A4641462846CDE90074FFF761FF042258
S21400245421460B98FFF72FFC002814BF7E2000208F
S21400246403B0BDE8F08300BFB62200202DE9F34197
S2140024740C4615461E468046084F99182144384691
S2140024840422FFF7B5FBCDE9006763192A46214607
S2140024944046FFF7C5FF02B0BDE8F081CA2200201F
S2140024A40020704700207047704770470023034A97
S2140024B41370034A1370034A137070478C5000203D
S2140024C484500020945000201FB5022344F20B02CF
S2140024D400934FF440710DF10E030BF0AEFA10B1F9
S2140024E40023ADF80E30BDF80E0005B05DF804FB11
S2140024F41FB5022344F20C0200934FF440710DF111
S2140025040E030BF09AFA18B14FF6FF63ADF80E30CF
S214002514BDF80E0005B05DF804FB81B143888088E1
S21400252483429EBF1A46034610461B1A0A20584387
S214002534B0FBF1F0B0F5803F01D280B270474FF6A1
S214002544FF7070471FB50123002200934FF44071BB
S2140025540DF10F030BF071FA20B140F2323104484A
S21400256401F084FC9DF80F0005B05DF804FB00BF85
S214002574F23503001FB50123082200934FF440717F
S2140025840DF10F030BF059FA18B19121034801F02D
S2140025946DFC9DF80F0005B05DF804FBF2350300F2
S2140025A4F0B585B00F460546FFF7E4FFB84204468B
S2140025B438D0202304AE06F8017D44F201020093CD
S2140025C44FF44071334628460BF0E6F920B14FF439
S2140025D48171174801F04AFC2023082200934FF427
S2140025E44071334628460BF0D7F920B140F2091162
S2140025F40F4801F03BFC04EB0710C0B2102813D0C0
S21400260407D801280BD002280CD12846FEF748FE2E
S21400261408E0202808D0212801D01228F4E728460C
S214002624FEF73FFE05B0F0BD2846FEF738FEF9E794
S214002634F23503001FB501220DF10F0300924FF48B
S21400264440710BF0FAF920B14FF45071034801F0D1
S2140026540DFC9DF80F0005B05DF804FBF235030091
S21400266470B50026074C0546A680FFF76BFF25725B
S2140026746070054C2846E680FFF7DCFFA573608093
S21400268470BD00BFCE220020DA2200201FB5022330
S214002694032200934FF440710DF10E030BF0CDF9B5
S2140026A420B140F21B41044801F0E0FBBDF80E00E7
S2140026B405B05DF804FB00BFF23503001FB5022326
S2140026C4042200934FF440710DF10E030BF0B5F99C
S2140026D420B140F22941044801F0C8FBBDF80E00C1
S2140026E405B05DF804FB00BFF23503001FB50223F6
S2140026F4072200934FF440710DF10E030BF09DF981
S21400270418B19F21034801F0B1FBBDF80E0005B0D7
S2140027145DF804FBF23503002DE9F84391460546BF
S2140027240C46FFF7D1FE07462846FFF7E1FEB9F14F
S214002734000F064608BF4FF00109FFF7B7FE022157
S2140027442846FFF72DFFBC4238BF3C46A4B2B4422D
S214002754284628BF3446FFF7C9FFDFF83C80A4B2FA
S214002764A8F800002846FFF7C1FFA8F80440A8F818
S2140027740200A8F80690A8F8089088F80E50A8F862
S2140027840A70A8F80C606421BDE8F84301481EF0FE
S2140027942BBE00BF8C500020EA220020F0B50E4667
S2140027A485B00621074615460AF051FB0123044668
S2140027B448B300930F220DF10E034FF440713846D0
S2140027C40BF03BF910B100238DF80E3001230022E4
S2140027D4009306210DF10F0338460BF02EF950B97D
S2140027E49DF80F403CB9FF2E08D1FF2D06D19DF869
S2140027F40E4004F00104204605B0F0BDF307F6D5FC
S21400280405F00104F7E71C46F5E700001FB5212292
S21400281404AB23F8021D00924FF4407102220BF021
S214002824BBF818B1F821034801F020FB05B05DF8A9
S21400283404FB00BFF235030010B50446C088E8B1B7
S214002844013881B2E180A07BFFF7E0FFA2886388AD
S214002854E08893420FD0238821899A428BBFD31AEB
S2140028649B1A434343438BBFB3FBF1F3B3FBF1F330
S214002874D31A9B186380B0FA80F0400910BD00009C
S2140028842DE9F8431E46314B15461B6880461B68E7
S2140028940F465C792046FFF755FE002D08BF01253C
S2140028A4B8F1FF0F814601D0FF2F05D180200DF02F
S2140028B433FD0120BDE8F8839DF8202031462046EC
S2140028C4FFF76CFF0028F2D0C14538D2A8EB090602
S2140028D47E2ECCBF00260126FFF7E8FD0021204609
S2140028E4FFF75EFE2046FFF7BBFE194B204683F833
S2140028F402804FF000085E7283F8009083F801901F
S2140029049D80DD801C7283F80A80FFF793FE114ECB
S21400291430802046FFF78EFEFE2370802946204630
S214002924B381B780F5803581B473A6F80A80FFF7C3
S2140029346DFF094864211EF057FD4046B7E7A9EB32
S21400294408067F2ED4BF00260126C5E73C5D00207E
S214002954CE220020DA22002094500020F8B50D463E
S21400296411462B4A07461268126856791A463046AC
S214002974FFF714FF20B900200DF0CEFC0120F8BDAF
S214002984FFF794FD002FF6D000213046FFF708FE2F
S2140029943046FFF765FE3046FFF7D4FD1D4C207029
S2140029A43046FFF7CFFD012F607020D13046FFF789
S2140029B4C9FD012315FA80F080B2FE2884BFFE38D4
S2140029C480B2A07063720A23A380E3800123267278
S2140029D4A37200244FF6FF713046FFF717FF0E4B25
S2140029E40E486421DC801EF0FFFC2046C4E7032F5B
S2140029F40BD13046FFF7A6FD83B2A8423CBFFE3398
S214002A049BB25D1BA5700023DCE78020B4E700BF03
S214002A143C5D0020CE220020DA22002094500020C4
S214002A242DE9F0410E461146224A80461268126885
S214002A3455791A462846FFF7B1FE28B900200DF04E
S214002A446BFC0120BDE8F081FFF730FDB8F1000F04
S214002A54F4D0002EF2D0002700212846FFF7A0FD70
S214002A642846FFF7FDFD144B28469F80FFF7E2FD3E
S214002A74124C20802846FFF7DDFDB8F1010F08BF91
S214002A84FE23314660800D480CBFA380A780FFF765
S214002A9444FD0026FE230146E08020812846A381CB
S214002AA4A5736681FFF7B2FE054864211EF09CFC00
S214002AB43046C4E73C5D0020CE220020DA22002007
S214002AC4945000202DE9F04117462E4A804612689D
S214002AD40C461268194655799DF818202846FFF7C3
S214002AE45DFE20B90DF018FC0120BDE8F0812846F3
S214002AF4FFF728FD002F08BF0127B8F1FF0F01D10B
S214002B048020EFE7032CFBD8DFE804F00232390913
S214002B14A0EB080010F0800F0CBF03240124FFF77D
S214002B24C5FC00212846FFF73BFD2846FFF798FD25
S214002B342846FFF707FD144E30702846FFF702FDBF
S214002B44631E5C425C4174720024104B70703946FC
S214002B542846DC8086F80280B780F7803572B47227
S214002B64FFF754FE0A4864211EF03EFC2046B9E7EF
S214002B74A0EB080010F0800F18BF0324CFE7012451
S214002B84CDE700BF3C5D0020CE220020DA220020E4
S214002B94945000202DE9F0410E4611461E4A804608
S214002BA41268126855791A462846FFF7F7FD20B9C9
S214002BB40DF0B2FB0120BDE8F081002E08BF01260F
S214002BC4B8F1FF0F01D18020F2E70027FFF76EFC73
S214002BD400212846FFF7E4FC2846FFF741FD0F4B8B
S214002BE428469F80FFF726FD0D4C20802846FFF7D9
S214002BF421FDFE23608031462846A381A4F8048084
S214002C04E6802681A5736781FFF700FE05486421E8
S214002C141EF0EAFB3846CBE73C5D0020CE220020BF
S214002C24DA220020945000202DE9F0411446284A68
S214002C34804612680F461268194655799DF8182082
S214002C442846FFF7ABFD28B900200DF065FB0120F0
S214002C54BDE8F0812846FFF775FC002C08BF012468
S214002C640646FFF723FCB8F1000FEDD000212846F6
S214002C74FFF796FC2846FFF7F3FC164AB8F1010F57
S214002C8416705670B3B2B9B219D10B449BB2FE2B70
S214002C9484BFFE3B9BB293700123A1B200245372FF
S214002CA40D4B28469180D18015729472DC80FFF714
S214002CB4ADFD0A4864211EF097FB2046C5E7BE42D8
S214002CC43CBFFE339BB25B1A93700023E5E700BF5C
S214002CD43C5D0020CE220020DA2200209450002002
S214002CE42DE9F0411446264A804612680F461268BB
S214002CF4194655799DF818202846FFF74FFD28B940
S214002D0400200DF009FB0120BDE8F0812846FFF7FE
S214002D1491FC002C08BF01240646FFF7C7FBB8F158
S214002D24000FEDD000212846FFF73AFC2846FFF7AF
S214002D3497FC0020134BB2B29880134BB8F1010FE6
S214002D441A805A8016D13A4492B2FE2A28BFFE222E
S214002D54A1B29A800024FE222846D98019819D7348
S214002D645C819A81FFF752FD084864211EF03CFB03
S214002D742046C6E7BE4226BFF21BD2B20246E7E7AB
S214002D843C5D0020CE220020DA2200209450002051
S214002D942DE9F8431546244A074612688946126800
S214002DA4194654799DF820202046FFF7F7FC20B9F1
S214002DB40DF0B2FA0120BDE8F883002D08BF012506
S214002DC4FFF774FB01212046FFF7EAFB2046FFF7D6
S214002DD45DFC164E4FF6FF6830802046FFF756FC23
S214002DE4B780002770802046F5803581B4737781DC
S214002DF4A6F80C80FFF762FC0D4E30802046FFF7E5
S214002E045DFC294670802046A6F80490F58035813E
S214002E14B4737781A6F80C80FFF7F8FC05486421A4
S214002E241EF0E2FA3846C3E73C5D0020FA22002092
S214002E340A230020845000202DE9F8430E4611464C
S214002E44304A07461268126855791A462846FFF72C
S214002E54A5FC28B900200DF05FFA0120BDE8F88330
S214002E64FFF724FB0FB9002EF4D001212846FFF704
S214002E7497FB2846FFF70AFC002FCCBF4FF6FF63EC
S214002E840023214CB9B2DCBF494289B2208060805D
S214002E941D48CCBFA380A380FFF73FFB4FF000087C
S214002EA44FF6FF690746E08020812846A573A4F8FC
S214002EB40A80A4F80C90FFF701FC144C4645B1B206
S214002EC4DCBF494289B2208060801048CCBFA4F899
S214002ED40490A4F80480FFF720FB002363814FF6D8
S214002EE4FF6387420146E080208138BF3946284682
S214002EF4A573A381FFF78AFC642105481EF074FAC3
S214002F04A8E700BF3C5D0020FA2200200A23002028
S214002F14845000202DE9F0471746374A06461268C3
S214002F240D461268194654799DF820202046FFF76E
S214002F3435FC20B90DF0F0F90120BDE8F0872046F5
S214002F44FFF7A4FB86194CD4B6F57F4F4BDAB6B21E
S214002F542046FFF7B3FB451948D4B5F57F4F47DA4B
S214002F64ADB2002F08BF0127FFF7A0FA01212046C3
S214002F74FFF716FB2046FFF789FBDFF888804FF043
S214002F840009A8F800002046FFF780FB4FF6FF6A0A
S214002F94A8F802002046A8F80460A8F80670A8F866
S214002FA4087088F80E40A8F80A90A8F80CA0FFF756
S214002FB485FB124E30802046FFF780FB3946708032
S214002FC42046B580F7803781B473A6F80A90A6F831
S214002FD40CA0FFF71BFC0A4864211EF005FA4846BD
S214002FE4A8E70026B4E74FF6FF66B1E70025B8E782
S214002FF44FF6FF65B5E700BF3C5D00200A230020BE
S21400300484500020FA22002070B50E4611460A4A63
S21400301405461268126854791A462046FFF7BEFB26
S21400302418B90DF079F9012070BD204632462946BC
S214003034FFF772FB0020F4E73C5D00202DE9F84F13
S2140030441E462E4B83461B6889461B6817465D79C9
S2140030549DF82C209DF828102846FFF79FFB08B9FA
S214003064002010E02846FFF72FFA80462846FFF790
S2140030743FFA8246FFF71AFABBF1000FF0D0B9F117
S214003084000F05D185200DF047F90120BDE8F88F23
S214003094474538BF4746864228BF0646022128468B
S2140030A4FFF77EFA2846FFF721FB154CBFB22080B7
S2140030B42846FFF71BFBBBF1010FB6B2608016D1A2
S2140030C4B24528BFB246A4F804A049460C48FFF708
S2140030D424FA0146E08020812846A5736781A681EC
S2140030E4FFF794FB642107481EF07EF9B8E7B8455D
S2140030F438BFB846A4F80480E7E700BF3C5D00206C
S214003104EA2200208C5000202DE9F0471C462C4B68
S21400311482461B680F461B6816465D799DF8282074
S2140031249DF824102846FFF739FB28B900200DF037
S214003134F3F80120BDE8F0872846FFF7C5F9814675
S2140031442846FFF7D5F9002E08BF0126FFF7AEF98B
S214003154BAF1000FEAD0BDF82080A14538BFA146D9
S214003164404528BF404602211FFA80F82846FFF74C
S21400317417FA2846FFF7BAFA124C1FFA89F9208084
S2140031842846FFF7B3FABAF1010F6080284613D138
S214003194FFF7ACFA3844A08031462846E6802681FC
S2140031A4A573A4F80A90A4F80C80FFF72FFB6421FB
S2140031B405481EF019F9B9E7FFF798FAC01BEAE7C5
S2140031C43C5D0020EA2200208C5000207FB54FF49E
S2140031D44071044609F03BFE00283BD02046FFF72A
S2140031E4C9F9022836D100900DF10E0344F20D02FF
S2140031F44FF4407120460AF020FC20B12046FFF729
S21400320463F9ADF80E002046BDF80E60FFF770F9BE
S21400321401230546009300220DF10E0308212046E3
S2140032240AF00BFC10B17F238DF80E309DF80E309B
S214003234012B0AD9FD2B9FBFA91B5943FE23B1FBC3
S214003244F3F18EBF3546691A8DB200222946204610
S214003254FFF762FA04B070BD08B5084B0A461B684F
S21400326401461B685879FFF799FA08B1FFF71EF96B
S21400327400200DF051F8012008BD00BF3C5D002081
S2140032847FB5524CA188257A002933D100265048B0
S214003294FFF7D2FA16B9002800F09380FFF706F974
S2140032A4627804AB03F8012D2022207A00924FF4B2
S2140032B4407100220AF070FB20B140F21311454819
S2140032C400F0D4FD424B4FF440715A88987B04AB0F
S2140032D403F8022D2022009201220AF05DFB20B1A1
S2140032E440F21D113B4800F0C1FD2846FDF7D7FF0C
S2140032F404B070BD0139A37A89B2A18013B92846F7
S214003304FFF784FAA0786378834219D02378617A29
S2140033149AB286B2002930D098422CBF314606F1C4
S214003324FE018A1AA188D2B24A43E388B2FBF3F2BA
S214003334D2B290423CBF06F1FE039EB2B21A62704D
S214003344A388002BA2D1A37A002B38D02278667AE1
S21400335493B281B22EB390422CBF0A4601F1FE020C
S214003364D31A51FA83F39BB2FE2B84BFFE3B9BB267
S2140033742070A3700A23A38088E7984284BFFE3295
S21400338492B2931BA288DBB25343E288B3FBF2F3F8
S21400339456FA83F39BB2FE2B84BFFE3B9BB263704C
S2140033A4CEE7904284BFFE339BB25B1ADAB29042F9
S2140033B43CBF01F1FE0399B220708B1AD9E70126AF
S2140033C465E7642104481EF00FF869E7CE22002062
S2140033D4DA220020F2350300945000207FB51E4CFC
S2140033E42046A57BFFF728FA06461C48FFF724FA72
S2140033F406B958B3FFF75AF8628804AB23F8022DCF
S2140034042122A07B00924FF4407103220AF0C4FAF2
S21400341420B140F22711124800F028FD0F4BA07B84
S2140034245A8804AB23F8042D21224FF440710092ED
S21400343404220AF0B1FA20B140F23111084800F033
S21400344415FD2846FDF72DFF04B070BD6421054820
S2140034541DF0CAFFD0E700BFFA2200200A2300208E
S214003464F23503008450002030B5124C85B0204657
S214003474A57BFFF7E1F9C0B1FFF718F8628804AB43
S21400348423F8022D2122A07B00924FF440710722DC
S2140034940AF082FA20B140F23B11074800F0E6FC3D
S2140034A42846FDF7FDFE05B030BD642103481DF037
S2140034B49BFFE3E7EA220020F23503008C5000204D
S2140034C44FF6FF72F0B587B006AB23F8042D02263C
S2140034D400220093CDE90162402344F210024FF427
S2140034E4407104460AF09BFA002842D14FF6FF6367
S2140034F406AD25F8023D0095CDE90160402307227C
S2140035044FF4407120460AF08AFA90BB2046FEF734
S214003514DBFF07462046FEF7EBFFBDF81430BB4240
S21400352427D3834225D8ADF8163021230722CDE9C8
S21400353400534FF44071402320460AF01DFAC0B9E8
S214003544302706AD05F8056D402308224FF4407178
S214003554CDE9005720460AF00FFACDE9005740237C
S21400356444F201024FF4407120468DF813600AF0CD
S21400357403FA07B0F0BD0000F7B50024094E0A4F61
S2140035840A4D56F8243003B93B6835F81420084928
S21400359400920120224601340BF06CFC292CF0D159
S2140035A403B0F0BD341D0020DC1D002010510020A7
S2140035B48A36030008B5FFF7DFFFBDE8084000F0D1
S2140035C4F1B8000007B50020FDF7A2FFC2B2282A12
S2140035D40DD8084B53F822300BB9074B1B68074924
S2140035E4012031F81210009105490BF043FC03B09A
S2140035F45DF804FB341D0020DC1D00201051002063
S2140036048A360300FFF7B8BF7047000038B50020BD
S214003614FDF77EFF04460120FDF77AFF05460549BF
S21400362401200BF027FCA9B2E0B2BDE8384000F058
S214003634D1B800BF95360300F7B50024094E0A4FEB
S2140036440A4D56F8243003B93B6835F81420084967
S21400365400920120224601340BF00CFC292CF0D1F8
S21400366403B0F0BD341D0020DC1D0020BE50002039
S2140036748A36030073B502AB03E906000446019DCF
S2140036841DF060FB064620461DF06AFB9DF8000010
S2140036948EB1202C0FD82B78012B37D84FF6FF7518
S2140036A4394903EB4313234431F81320AA4202D0CA
S2140036B4013221F813204FF6FF72344B344933F8A5
S2140036C4146031F8145096421CBF721C23F8142060
S2140036D404F0FD02092A31D19A8A898A02448A4270
S2140036E4B4BF9A82998233F81430AB4204D3AE4204
S2140036F402D22046FDF7D6FD0025264BEA5CA24200
S21400370428D00135112DF9D102B070BD022BD2D1CB
S2140037144FF6FF714FF6FF751B4B33F814208A42A1
S2140037241CBF013223F8142004F1210233F81210CE
S214003734A9421CBF013123F81210BCE71D2CD2D1BC
S2140037445A8F1118A942BDBF02F1FF3212185A87C8
S2140037545D87C8E719F001FD0F4B04461B788342CA
S21400376403D8DD210D4800F081FB4FF6FF710C4AAB
S21400377404EB04142C4432F814308B42C4D00133C6
S21400378422F81430C0E700BF625100201051002018
S214003794BE500020013A0300111D00207D390300AD
S2140037A49C500020522200210148FEF77DBA00BF3B
S2140037B4105100205222FF210148FEF775BA00BFBF
S2140037C4BE50002008B5FFF7EDFFBDE80840FFF740
S2140037D4F1BF0000014B23F810107047BE500020C4
S2140037E4032310B50F4C4FF48062C4E904330E4B28
S2140037F40E49E3610023A16121660D49E01DC4E979
S21400380419120C49A3626362E3622367E366636783
S21400381422622EF0A5F8084920462EF0A1F82023AF
S214003824A37110BDE85100201A270020123A0300A5
S2140038341A2300201B3A03001F3A03002DE9F84F11
S2140038441F4B16461A7881468A4698460AB9FFF7E9
S214003854C7FF182707FB09873D6FD7F86CB05D458F
S2140038642BD9BC6E796E641BB44228BF34462944F7
S214003874504622462EF061F8BB6E2544AB4208BF84
S2140038840025A244361BABEB050B5E4528BF5E46FF
S21400389456B1182303FB0983596E32462944504611
S2140038A42EF04BF83444354424B1182303FB09881E
S2140038B4C8F870502046BDE8F88F0024E3E700BF40
S2140038C4E851002010B50B46EFF311844FF02001A9
S2140038D481F311881946FFF7B1FF84F3118810BDF0
S2140038E42DE9F84F144D9B462B7881468846924620
S2140038F40BB9FFF775FFEFF3118C4FF0200181F33E
S2140039041188002018236F6903FB0054666E2EB1DD
S21400391401308742F8DC4FF0FF3009E08742FADDD9
S214003924C4E91898C4F868A02667E666C4F874B0B4
S2140039348CF31188BDE8F88FE8510020FFF750BFDC
S21400394470B54FF060441A4B00261A68194D42F0C1
S21400395401021A60DA680C2042F08072DA60164BB4
S214003964C4F8B03F0223C4F8006EC4F8806EC5F8ED
S214003974F03002F0E9FB114B00F5D52000F2FC40D4
S214003984B0FBF3F00E4A0F4B01382861C4F8406EC2
S2140039941A600D4BC4F8803E4FF48073C5F80433A8
S2140039A4D4F8003E43F48073C4F8003E70BD00BFF4
S2140039B4F0ED00E0000004E055CEACC5F8590D006B
S2140039C4FF030040001000E00D00010010B50124C4
S2140039D40B4B00201C6002F0F5FE204611F08AF81E
S2140039E4FFF7AEFF11F087F8FFF7A8FF2346402243
S2140039F404490548FFF774FF044B1860C00F10BD58
S214003A0444D403401A2B0020263A0300E01D00206D
S214003A14024B1868003018BF01207047F0ED00E034
S214003A24D123054A037013784170090A8170591C22
S214003A34C3701170042070475A2B00202DE9F74FED
S214003A44354E074633681C5C032C63D9DFF8CC80FC
S214003A5418F0B0FF4FF6FF7A0025C1460534E4B2ED
S214003A640190D8F800204AB1AC4207D918F0A2FF5A
S214003A74019BC01A80B2B0F5FA7F05D9601B18BF47
S214003A84012003B0BDE8F08F002D3DD0012D1DD1DF
S214003A944FF0020B3268D55D4FF06042D2F8801EBC
S214003AA4CB0711D51146D9F80C0040F08070C9F840
S214003AB40C00D1F8000E40F48070C1F8000E086ABD
S214003AC40028F0D082F820505D46CAE7E21E05F1D1
S214003AD4010B95425FFA8BFB02D15FFA8AF5DBE7AE
S214003AE4A21E954202D1CAF30725D5E7621E954267
S214003AF40ED0A91EC9B238461EF062F851460546D5
S214003B04FDF7E6FF8246C7E75B254FF0010BC3E7E8
S214003B145D25C1E70120B4E7C81C0020F0ED00E0F5
S214003B2410B50B4B90B0402269461868FFF7CAFEE2
S214003B3458B1C1B268461DF0CDFF044601461220B6
S214003B440FF096F920461DF067FE10B010BD00BFBA
S214003B54E01D0020002310B5064A12F83340D900B1
S214003B64844202D10A44506810BD0133072BF4D1B5
S214003B740148F9E7EC3B03006A3C03002DE9FF41EA
S214003B8400242646184FDFF86880A0B200F01EF91D
S214003B940546E0B12246394601200BF089F928464D
S214003BA40BF0BAF895F8EE00FFF7D4FF95F8F2108C
S214003BB495F8F13095F8F020029195F8EF1001365B
S214003BC4CDE9000141460120F6B20BF053F9013469
S214003BD4142CDAD1234632460120044904B0BDE849
S214003BE4F0410BF047B900BFDF3A0300353B030052
S214003BF4E53A03002DE9FF47082201230DEB0201F5
S214003C040020FDF7BFFC02A800F0F4F806460028E2
S214003C1438D11F4901200BF02DF904B0BDE8F08718
S214003C242E235D43741994F83510238E94F83420AB
S214003C340191618E0120009149460BF01BF94FF06B
S214003C44000894F835305FFA88F293420AD80137B0
S214003C5496F8F120FDB2AA42E2D80E4901200BF0F4
S214003C6409F9DAE705EB82023244917A0A4B1289A3
S214003C74002918BF5346012008490BF0FBF808F149
S214003C840108DEE70027DFF81890DFF818A0DFE762
S214003C94603B0300D83B0300593B0300C43B0300CE
S214003CA4873B0300523B0300F0B5BFB0F42200216B
S214003CB401A8FDF7F9FF0123082201A90020FDF75A
S214003CC461FC0120FDF724FC8DF8F5000220FDF7C9
S214003CD41FFC15239DF8F5508DF8F630052D06D9F2
S214003CE405221D4901200BF0C5F83FB0F0BDC0B257
S214003CF40A2802D90A221949F4E7402301268DF836
S214003D04F2304FF4007303AAD9B28D4209D801A841
S214003D1400F072F80028E8D1114901200BF0AAF847
S214003D24E3E7643182F82C10A3F5C44111851446E8
S214003D340021538582F82D00CFB2B84204F1040462
S214003D4403D801332E329BB2DEE724F8041C04F8B1
S214003D54026C0131F0E700BF363A03005F3A030015
S214003D64953A030007B50123082269460020FDF7AB
S214003D7409FC684600F06EF818B9034901200BF0F8
S214003D8479F803B05DF804FBBE3A03002DE9F04170
S214003D9406460024F427DFF8208007FB0485082263
S214003DA429463046FDF787FF18B10134142CF4D1A8
S214003DB400252846BDE8F0815C2B002041F2103235
S214003DC4FF210148FDF770BF5C2B0020142810B5B6
S214003DD402D90024204610BDF423054CFF2203FB21
S214003DE40044082120461DF077F80028F2D0F0E7BA
S214003DF45C2B0020FFF7CABF37B50546FFF7C6FFA2
S214003E0478B1114A114901200BF052F828460AF0FD
S214003E1483FF0F4901200BF02DF80024204603B041
S214003E2430BD0822FF216846FDF73EFF6846FFF7CF
S214003E34ADFF04460028F1D0F4222946FDF7D8FE4B
S214003E44204607F095FBE9E76E3C0300783C030048
S214003E54611A030008B5FFF799FF20B1F422FF2189
S214003E64FDF722FF012008BD42DE704738B5044640
S214003E740D4600F001FD02F04EFC294620460EF0E9
S214003E84C3FF2B4622460549012007F03DFB294681
S214003E942046BDE83840FFF7E7BF00BFAA3C030052
S214003EA46D4B2DE9F0415A686C4CA2655A6AE2657E
S214003EB46B4AD2F800122166D2F8042262669A6A25
S214003EC4A266DA6AE2661A6B22675A6B6267A26BAC
S214003ED4DB6B12F0040FA367D4E90F5318BF1D461B
S214003EE418F04CFD002285420346606522655DD3CA
S214003EF45C4A95425AD8AA696264E969A164B4F82E
S214003F045810C1F30801062954D157498A4251D39F
S214003F1456498A424ED211884DF64262914249D1A0
S214003F2440F201706268C4F89420A268C4F898202D
S214003F344F4A5049934238BF13460A468B423CD3F5
S214003F44D31AE3640023C4E91F33C4E92133C4E964
S214003F542333484E444FDFF814C1AE4233D8D4E975
S214003F641FC7D4E92165D4E923124FF0000E013BA4
S214003F74DBB2FF2B42D1BEF1000F05D0C4E91FC748
S214003F84C4E92165C4E92312B4F85830C3F308031E
S214003F94052B57D03CD8032B47D0042B58D040F6DB
S214003FA40722013B4B2B98BF104640E000221D46DB
S214003FB4C4E911224FF42060BAE71E68B6F1CD3F7B
S214003FC4BED10433BAE756F8042DBA42C5D36245C7
S214003FD4C3D2D107C1D5002104EB010EDEF87CE084
S214003FE49645BAD004311829F6D10BB9052301E059
S214003FF4013BDBB204EB8301CA67AEE7E0464FF051
S214004004010EBC4637462E460D4611464246AEE7DE
S2140040140C2B1AD03B2B0CD0062BC0D140F6042315
S214004024B0F5206F08BF184601E040F60120BDE851
S214004034F081114B9B6913F0020F40F2025318BF34
S2140040441846F4E740F60320F1E740F60520EEE7CD
S21400405440F60220EBE700BF00ED00E00000002081
S21400406400E100E0A01A00204C03000098190300A9
S2140040749C000020C01A00200080014A10B502F0FF
S21400408407FC044602F0FCFB0022012101FA02F3BD
S214004094234014D01B4B33F812301B4A062B13D084
S2140040A440F207218B420DD1184919480C68844206
S2140040B408D14CF23C334B800B88138012E001325B
S2140040C4102AE3D1104AF8E74FF20F010F4B588835
S2140040D4884214D11988B1F5406F10D211804CF281
S2140040E43C325A80084B1A8840F201739A4201BF48
S2140040F4084B094AD2E90001C3E9000110BD4FF498
S214004104C061EBE7BE3C0300743E002000000020C4
S21400411407020FF06C3E002094000020014B188824
S214004124000A7047743E0020014B1888704700BF91
S214004134743E00202DE9F04F4D4C0546A36BD4F891
S21400414450B05A0747BF0027B846D4F84CB0D4F846
S2140041545480D4F840A05DBF464FD4F83CA0DFF8A6
S2140041643C91DFF83C9113F0080F434B434A18BFC9
S2140041741A46B7EB08061FBF6421730801FB0B330E
S214004184B3FBF6F387B01CBF9BB205933C494B4682
S214004194CDE9017ACDF8008008BF059601F0BEF897
S2140041A4B3B2CDE900931FFA8BF2059B3549284636
S2140041B401F0B4F8A36B5B070AD49C3E5E4507D1B6
S2140041C4626D314B9A4203D23049284601F0A6F874
S2140041D4BA4501D8C24504D24A462D49284601F0BC
S2140041E49DF8284607F08AF9236E0BB9636EBBB3B5
S2140041F42849284601F07DF800260127DFF8A48028
S214004204DFF8A490226E07FA06F3134207D058F894
S214004214262013781BB14946284601F06AF8013671
S214004224202EEFD100260127DFF87880DFF878907B
S214004234626E07FA06F3134209D008EB8603D3F836
S214004244802013781BB14946284601F052F80136FF
S2140042541D2EEDD1284607B0BDE8F04F01F058B842
S21400426428460D4907B0BDE8F04F01F057B800BF27
S21400427400000020C01A0020C73F0300CE3F030002
S214004284D63F0300044003009C0000203D4003008A
S2140042946940030087400300B6400300C23F0300A2
S2140042A4265A0300CC400300A86E03002DE9F84309
S2140042B40446FFF739FF40F60123984239D010D858
S2140042C440F2025398421DD040F20173984224D023
S2140042D440F20153984213D16549204601F01EF876
S2140042E422E040F6032398426CD03DD340F60423E4
S2140042F4984200F09C8040F60523984200F0B58072
S214004304BDE8F8835B49204601F008F85A4B5B4940
S2140043145A6C204601F002F806E0574A5849D2E99A
S2140043242523204600F0FAFF2046BDE8F84307F0B0
S214004334E5B8514D5349204600F0F0FF95F86C302F
S2140043449F0703D55049204600F0E8FF95F86F30E4
S2140043545E0603D54D49204600F0E0FF95F96F3020
S214004364002BE1DA4A49B8E7434D4A49204600F0B3
S214004374D5FF95F86830980704D06A6C3F49204604
S21400438400F0CCFF95F96830002B04DA6A6F4249D6
S214004394204600F0C3FF00260127DFF80881DFF877
S2140043A41491AA6E07FA06F3134207D058F826208B
S2140043B413781BB14946204600F0B0FF0136082E9C
S2140043C4EFD1B1E72C4D3549204600F0A7FF2B4925
S2140043D46A6C204600F0A2FF95F86930590703D5A9
S2140043E42F49204600F09AFF95F96930002B04DA2D
S2140043F46A6F2949204600F091FF0826294FDFF806
S214004404B480AB6EF340DA0707D557F82620137846
S2140044141BB14146204600F081FF0136102EF0D134
S21400442495F86830002B7FF47FAF1F4955E7124D8F
S2140044341E49204600F072FF6A6C1049204600F0C0
S2140044446DFF1026174FDFF86C80AB6EF340DB076A
S21400445407D557F8262013781BB14146204600F0AE
S2140044645DFF01361A2EF0D15EE711494BE700BF17
S214004474513D03008E3D030000000020BE3D0300B6
S214004484D73D0300F13D0300093E0300433E03000D
S214004494763E0300B23E0300D73E0300FB3E030015
S2140044A4123F0300E03C0300583F0300883F03002C
S2140044B4A13F0300F33E03002DE9F84F064600250E
S2140044C4154C164FDFF85C80DFF85CA023785FFAA3
S2140044D485FB0BB9BDE8F88F57F8043B2246104914
S2140044E4304600F006FF227804F1010982B96278AA
S2140044F482B10BF0030103290CBF414651463046F6
S21400450400F0F7FE304606F0F9FF01354C46DDE7CD
S2140045144C46E8E74146F2E7C041030004000020A9
S214004524483D03005F1A03008C5E030000F00CB8DD
S21400453400F00AB800F008B800F006B800F004B8B6
S21400454400F002B800F000B872B61EF0080F09D0EA
S2140045541EF0040F0DD0DFF850E0AEE8FF1F6FF03A
S21400456402000CE0DFF840E0AEE8FF1F6FF00E003C
S21400457405E0DFF834E0AEE8FF1F6FF0060069469A
S214004584EFF309828EE8070086460848084C8545FE
S21400459401D3A54501D384F30888FFF781FC84F38F
S2140045A4088818F0C7F9000004000020A0110020B5
S2140045B4C01A0020FFF7C6BF7047704770477047A1
S2140045C400F07E63B3F17E6F70B505460E46144662
S2140045D416D103F029FF18B19A210D48FFF746FCBF
S2140045E422463146C5F30B0002F00EFA044603F0E9
S2140045F427FF5CB19D21BDE870400548FFF736BC37
S214004604520818F035F908B18F21F4E770BD00BFE1
S214004614E448030037B57F2A14BF154600254BF23D
S21400462434629142044619D17F2241F2020168465F
S2140046340823FFF7EFFF082225496846FDF73BFBF2
S21400464430B908237F2241F2F0116846FFF7E2FFF3
S214004654082269462046FDF7CBFA09E041F2F0123B
S21400466491421AD11B4901388A6CC96C1D1F0BB9BB
S21400467403B030BD013B9D4200F8012F4FEA1222E1
S214004684F5D1002203349A42F2D00132042A04F807
S214004694011F4FEA1121F6D1EAE701F47042B2F5A0
S2140046A4805F07D1C1F30B0404F17E649AB203FB66
S2140046B40541D0E701F46042B2F5005FD8D1C1F3FA
S2140046C40B0405499AB2214403FB0511C3E700BF56
S2140046D45E4903000080E00F00E0070070B5054661
S2140046E416461C46DBB14BF23463994210D1082CB3
S2140046F428BF08247F2241F202012346FFF78AFFDF
S214004704A2B207492846FDF7D6FA40B941F2F0119D
S214004714234632462846BDE87040FFF77BBF70BD8F
S2140047245E4903002DE9F7430446E0070F461546A5
S21400473403D5DD213448FFF799FBE90703D5DE21CD
S2140047443148FFF793FB04F47043B3F5805F3ED122
S214004754C4F30B0404F17E646B1E2C4A2344934278
S214004764264603D9E3212848FFF780FBDFF8989014
S21400477406EB050846453DD1A2070ED04FF6FF735B
S21400478437F8022B02A943EA0243A01E41F8043D6F
S2140047940422FFF715FF0234023DAB070ED0023D9C
S2140047A425F00103FB5A02A96FEA03436FEA134399
S2140047B4042241F8043D6019FFF702FF25B12A469A
S2140047C439462046FFF7FCFE03B0BDE8F08304F448
S2140047D46043B3F5005F05D10D4BC4F30B041C44D2
S2140047E42646C3E7EA210848FFF740FB6FF00F06AA
S2140047F40024BBE716F8013BFF2BBBD0F421484648
S214004804FFF734FBB6E700BFE4480300FF1FE00FE2
S21400481400E00700FFF78ABE1FB5144A01AB106814
S2140048245168128903C31A8001238DF804300D23BE
S2140048348DF80A3003230E4C082123208DF80B3004
S21400484401F0C0FD01A9204602F0F9F94FF4006119
S214004854022342F21800074AC2F88411235051601A
S21400486441F21C02A35004B010BD00BF6649030009
S2140048740080014A00E100E0014802F0CFB900BF21
S2140048840080014AA52803D10021024802F0B7B9E6
S214004894704700BF0080014A024B586800F00100D0
S2140048A4704700BF0080014A024A536A002BFCD1BD
S2140048B4704700BF0080014A002070470020704700
S2140048C47047000007B572B601F025FF894B8A4988
S2140048D45B6940228B6000230B764B768B76F02345
S2140048E4CB760B774B778B77CA77802281F820209C
S2140048F481F82130E023602081F822307F4B81F854
S214004904232083F8002383F8012383F8022383F803
S214004914032383F8042383F8052383F8062383F804
S214004924072383F8082383F8092383F80A2383F8E4
S2140049340B2383F80C2383F80D2383F80E2383F8C4
S2140049440F2383F8102383F8112383F8122383F8A4
S214004954132383F8142383F8152383F8162383F884
S214004964172383F8182383F8192383F81A2383F864
S2140049741B2383F81C2383F81D2383F81E2383F844
S2140049841F2383F8202383F82103202083F822237F
S21400499483F8232383F8242383F8252383F8262304
S2140049A483F8272383F8282383F8292383F82A23E4
S2140049B483F82B0383F82C0383F82D2383F82E2304
S2140049C483F82F2383F8302383F8312383F83223A4
S2140049D483F8332383F8342383F8352383F8362384
S2140049E483F8372383F8382383F8392383F83A2364
S2140049F483F83B2383F83C23CB6823F4E0631B044F
S214004A041B0C43F0BF6343F40133CB604B6943F0A4
S214004A1410034B614FF4E0234B6202F0F3FCFFF704
S214004A242DFBEFF308834FF0CD31354A043B934218
S214004A345DD2344A002192B23348FDF735F962B6A6
S214004A44684602F009F8314B9B6DDB0318D4304AF4
S214004A54136823F4FF0323F4FE4343F4BC1343F424
S214004A64A063136052F8043C23F4704343F44043B9
S214004A7442F8043C52F8043C43F4E06342F8043C35
S214004A849DF80130012B0FD19DF8003063B94FF02B
S214004A9400531B681F4B1B681F4B1B681F4B1B6870
S214004AA41F4B1B681F4B1B681F4AD2F8803043F00D
S214004AB40303C2F8803002224FF040231A6702F044
S214004AC42DFC01F081F8002300938DF804300123B7
S214004AD468468DF8033001F06CFE00F027F917F0F5
S214004AE47BFF124810F010F803B05DF804FB196061
S214004AF4043B9CE75400000000ED00E000E100E009
S214004B04601100208C100000A000002000C00040AF
S214004B1434C00040004000200080002000C0002078
S214004B24000001200040012000800040C47B0300F8
S214004B3440F2016017F0FEBEFDF7B6BC08B50021D2
S214004B440B20FDF7AFFCBDE80840FDF7AEBC032024
S214004B5400F078BA08B5FFF7E1FA044B0B289ABFC1
S214004B6400B203EB8000184608BD00BFB64A030037
S214004B7408B5FFF7D9FA044BC0F30F2253F82230D6
S214004B84C0B203EB800008BD804A030010B5FFF7EF
S214004B94C5FA0446FFF7C8FAC0B228B9012C24D1D6
S214004BA464F07F04E4B216E0072CF9D801A353F8A6
S214004BB424F000BFDB4B0000A54B0000D94B0000DF
S214004BC4DF4B0000DF4B0000E34B0000E74B000028
S214004BD4EB4B00000924204610BD0224FBE7032407
S214004BE4F9E70B24F7E70624F5E70446F3E700BFE6
S214004BF407282DE9F84F04460F462DD0082808BF8D
S214004C04022421460120FCF7A6FBFFF745FE651E9D
S214004C14D5F1000848EB050800B3012C1ED1A520E9
S214004C24FFF730FE2646EFF31089012383F310883E
S214004C34EFF3118A4FF0000B8BF31188354D404685
S214004C4406F075FC631EC5F800B0042B59D8DFE8DF
S214004C5403F00E4D4D5155000324D2E7FFF71CFE1A
S214004C6418B1FFF721FE0026DDE70646DBE72A4AF1
S214004C74136923F00403136130BF284AD2F824349E
S214004C84D2F8202413409BB2254A2B60D2F8001198
S214004C94480102D51168490106D4D2F800118801EA
S214004CA405D51268910102D543F480332B601C4B62
S214004CB4D3F80021520506D51B685B0542BF2B6856
S214004CC443F400332B601EB10121164801F097FF10
S214004CD4404606F02DFCCFB18AF3118889F310887C
S214004CE42146BDE8F84F0020FCF735BB012001F053
S214004CF433FDC2E7012001F043FDBEE701F042FDAB
S214004D04BBE788210848FFF7B1F8B6E787F31088B1
S214004D14E6E700BF803E002000ED00E000C0034050
S214004D2400E100E00080014AE64A030042F2204126
S214004D34044AD2F820341B0C1B045350024A136056
S214004D44704700BF00C003407C3E00200021FFF7F0
S214004D544FBFFFF7FBBF00002DE9F04F89B00FF0FF
S214004D64C7FE0746002840F0DD806F4E6F4D316861
S214004D74286816F0C9FF0446002827D033683C4646
S214004D84D3E900019A6912689047336804A89B69BE
S214004D949B689847336802209B69DB6898473268AB
S214004DA405985368E7B2B3FBF0F3BB42916904F18C
S214004DB4010442D8CB680020984733689B695B6837
S214004DC498473168286816F09FFF04460026DFF8E7
S214004DD48891002C53D1564B4FEA8608F35C002B7F
S214004DE431D1A246534BF35C0193534B03EB080BB0
S214004DF4019B5FFA8AF7BB42286853D84F4BF35C93
S214004E04002B3CD04C4B019F9844FBB27E2B286869
S214004E1435D8D8F8003003AA07EB030A514602AB8C
S214004E2417F0ACF948452AD05146286817F0ECF933
S214004E34013704460028E8D021E012680B6907FB16
S214004E4400209847ABE73C4B03AA53F82670286823
S214004E5402AB394617F092F9484507D078B9039B58
S214004E64012B0CD03946286817F0CEF9344B394656
S214004E7453F8083028681A6817F0AAF8044601366A
S214004E842D2EA6D1B4FA84F32E4A5B0913702E4B4A
S214004E949C4241D02DD8002C32D0013B9C423FD0BE
S214004EA4C5242DE0DBF8003003AA1F44394602ABC4
S214004EB417F064F948450AD010B10AF1010A97E7D9
S214004EC4039B8BB9214B029AF35C9A42F5D01F4B95
S214004ED41B4A9B5D52F808203946286816F0EAFFFC
S214004EE40028EAD0044689E73946286817F08CF982
S214004EF4EDE7174B9C4211D004339C42D0D1C12419
S214004F042B681B7C23B14FF489711248FEF7AEFF61
S214004F14204609B0BDE8F08FC324F1E7C424EFE7C8
S214004F24C224EDE7C624F3E74C1E0020481E0020EA
S214004F34DC200300F91F03003821030009210300C5
S214004F4428200300843E002002E000F0EC21030049
S214004F5404E000F0624B03000BE000F02C2970B56F
S214004F6406460C4615461AD8144A127822B3144A32
S214004F741068144A52F82110134A125D3AB13246A8
S214004F8417F074F8C0B1BDE87040FCF7B0BD7F2DD3
S214004F9408BF00253246294416F0D6FFF2E7FF295B
S214004FA403D9BDE87040FFF799BB40F24511BDE850
S214004FB470400648FEF75ABF70BD00BF843E00200E
S214004FC4481E002038210300DC200300624B030047
S214004FD42C28F8B504460D46164619D814490978FF
S214004FE429B31449144F0868144951F824103C5D39
S214004FF43CB1126816F0ECFFC8B1BDE8F840FCF707
S21400500476BD7F2D08BF0025294416F053FFF3E72D
S214005014FF2805D91A463146BDE8F840FFF782BB9B
S2140050244FF4BC71BDE8F8400548FEF71FBFF8BD55
S214005034843E0020481E0020DC20030038210300A4
S214005044624B030008B5084B1B7863B1074B00227C
S21400505453F82010064B186817F048F818B1BDE846
S2140050640840FCF744BD08BD843E002038210300F8
S214005074481E002070B5164685180AB9304470BD1F
S21400508401F00F030A2B34BF30243724013A23449B
S214005094090905F8013DD2B2EFE70000F0B5F9B111
S2140050A400281CDA2D23B0F1004F137000D04042C4
S2140050B4012115E0801B8642ECB205F10105F9D901
S2140050C404B927B101274D1C30345454E9B20133D6
S2140050D4092B09D1303050540131C8B2F0BD00213B
S2140050E400231F46DFF808C05CF823600025E2E7CB
S2140050F4D84B03002DE9F04F4FF0000B95B002ACEF
S21400510481468A4617461D465E46A0463B7863B9E6
S21400511402ABE41AE4B2224619465046C8470028B1
S21400512440F093803444E0B290E0252B13D0BBF1DA
S214005134000F14D12370013412AB9C426DD3A4EB40
S2140051440804E4B2224641465046C84700287CD1AB
S2140051542644F6B260E0BBF1000F00D101373B787D
S214005164632B00F092801BD8392B09D8302B80F0A3
S2140051749E80002BCCD0252B51D04FF0000BDBE7C4
S214005184582B00F08B80622BF7D14FF0000B2B6866
S21400519401936B680093009B9B4543D10835ECE76D
S2140051A4702B1ED017D8642B01D06C2BE5D16C2B3A
S2140051B405F1040B28686CD17B78752B14BF01218C
S2140051C4002101D0642B00D101372246FFF766FF89
S2140051D404445D46D1E7752BE9D0782B5ED0732B5B
S2140051E4CBD1A4EB0804E4B2224602A9504605F14A
S2140051F4040B2D68C84740BB2644F6B2C4B22B5DE8
S2140052040130002BFAD1224629465046C847E0B959
S2140052145D4683462644F6B24446013776E7237055
S2140052240134AAE7019B204613F80B100222FFF76D
S21400523421FF12AB984204460ED3A0EB0804E4B256
S214005244224641465046C84718B1002015B0BDE86E
S214005254F08F26444446F6B2009B013B5B4582BF72
S21400526420232370013412AB9C420BD3A4EB080416
S214005274E4B2224641465046C8470028E5D12644B3
S2140052844446F6B20BF1010B85E72B680435237010
S214005294C6E7752B0CBF0021012196E720460222A3
S2140052A42978FFF7E7FE05F1040B044691E77A78C0
S2140052B402F0DF02582A19D1322B07F1010B09D16B
S2140052C40422204629882F1DFFF7D4FE3D460446B7
S2140052D45F4652E7342B09D12F1D2D680422290C72
S2140052E42046FFF7C7FE0422A9B2EDE74FF0010BF4
S2140052F422E70EB403B503AA52F8041B019206F083
S2140053041EF9C0B202B05DF804EB03B070470000AB
S2140053140149FFF7EEBF00BF5F1A03000EB433B5B2
S21400532405AA52F8041B0546019206F008F904463D
S2140053342846FFF7EDFFE0B202B0BDE8304003B008
S214005344704708B506F0FBF8C0B208BD2DE9F8436F
S214005354174B1F6D5B6D1F4000D5FEE70126002529
S214005364144CDFF85480DFF85490374217D0236883
S214005374C8F800609BB1A16862680131A160284644
S2140053849847637B012B0AD148B909EB4513197B6F
S2140053941A7F60F3410160F3410219731A770135ED
S2140053A4082D4FEA460604F11004DED1BDE8F88362
S2140053B400000440883E002050200440083F00209F
S2140053C470B504460125084E04B970BD94FAA4F0DD
S2140053D4B0FA80F005FA00F324EA030456F8203005
S2140053E4002BF1D09847EFE708400020084BD3F88D
S2140053F42404D3F82024104042F2204220F42A50F9
S21400540420F02A004004400C9850FFF7D9BF00BF94
S21400541400C00340084BD3F82404D3F820241040DB
S21400542442F2204220F4AA4020F055000004000C6A
S2140054349850FFF7C5BF00BF00C00340104A30B500
S214005444136841611546ABB91060836011E0091B0F
S2140054549C6841611A467CB123465C698C42F6D945
S214005464002CF4D052B19060836013B15A69511A7B
S214005474596130BD0022F0E72346F4E72860F3E7DD
S2140054845C40002010B500F0AFFA094B094A1968D1
S21400549431B11368C41A4B69A34203D31B1B4B6177
S2140054A4106003E0C01A002310604B6110BD00BFFB
S2140054B45C4000204C400020074B10B51B680220BF
S2140054C45C69064B1B681C4400F0C2FA2046BDE823
S2140054D4104000F091BA00BF5C4000204C40002011
S2140054E470B59DF81450164605710025049A85601B
S2140054F4BDF818500446C5800260C0E903360D4660
S21400550429B961610BB11146984796B1354601F049
S2140055140AF90646FFF7B6FF29462046FFF78EFF30
S214005524054B1B68A34201D1FFF7C6FF304601F0C6
S21400553400F9002070BD00BF5C40002000210C4A2A
S21400554413687BB183420AD1836879B18B60836820
S2140055541BB15A6941690A445A61002070471946CA
S2140055649B68EEE70028EFD0022070471360EEE752
S2140055745C40002070B501F0D6F8114D06462C7834
S214005584CCB9104B1C60104B1C60104B1C8000F0F8
S214005594F1F9012000F05CFA00F0A8FA0C4B024680
S2140055A4186040F2E73123460A482BF0F5FF0A4B11
S2140055B4186001232B70304601F0BBF8002070BD44
S2140055C4484000205C4000204C400020544000200E
S2140055D45840002018FCFFFF504000202DE9F04101
S2140055E40546F8B101F09FF80F4F0646FFF74AFF4D
S2140055F42846D7F80080FFF7A1FF044628B13046B6
S21400560401F097F82046BDE8F081A8453B6803D131
S21400561423B1FFF751FFF2E7002BF0D1022000F090
S21400562423FAECE72224EDE75C400020F0B50D46B3
S21400563485B016461F46044680B1FFF7CFFFBDF877
S2140056442C30002202939DF828302946CDE90073B9
S21400565420463346FFF744FF05B0F0BD2220FBE7A3
S21400566438B50C46054698B191B100230B7001F08D
S2140056745AF80121074B1B680BB122781AB101F0C6
S21400568458F8002038BD9D420CBF21709B68F3E794
S2140056942220F7E75C400020F0B51F46002387B0C1
S2140056A40D4616468DF817300446A0B10DF11701C5
S2140056B4FFF7D6FF9DF817207AB9BDF8343029468F
S2140056C402939DF830302046CDE900733346FFF749
S2140056D407FF07B0F0BD2220FBE70320F9E7000030
S2140056E4F8B50C460646C8B1C1B101F01CF805462B
S2140056F4FFF7C8FE73692360134B1B68B3420FD0D1
S21400570423B9284601F015F803201CE059692268DD
S2140057149B680A442260F1E700230FE0222012E08F
S214005724276800F061F9094E3368C01A8742F3D936
S21400573400F05AF93368C01A23681B1A28462360F7
S21400574400F0F7FF0020F8BD5C4000204C4000202D
S21400575470B500F0E8FF064600F046F9094B05462A
S2140057641C880120A4B200F097F918B100F03CF9A7
S21400577405460134304600F0DCFF0022214642EAAA
S214005784050070BD544000200A4B10B51B680C463B
S21400579483420CD3084B4FF47A7219680023A0FB9B
S2140057A401012BF0F9FE01302060002010BD2120FD
S2140057B4FCE700BF5040002058400020104B10B5B6
S2140057C41A684FF47A73A0FB0301A2B1531E134266
S2140057D411D1B2FA82F2C2F11F02C2F12004A2F180
S2140057E4200301FA04F420FA02F2224321FA03F316
S2140057F442EA030010BD00232BF0CEFEFAE700BFFA
S21400580458400020F8B516461BA3D3E900238B4264
S21400581408BF82422AD3174B1A684FF47A73A0FB48
S214005824034503FB0155C2B1531E13EA020014D10B
S214005834B2FA82F2C2F11F02C2F12007A2F12001DD
S21400584424FA02F305FA07F73B4325FA01F10B4362
S21400585425FA02F2C6E90032F8BD0023204629469E
S2140058642BF09AFEC6E900010020F5E72120F3E7B5
S214005874AFF3008058400020EFA7C64B378941009D
S214005884C2072DE9F84F04460BD5374A138801336F
S2140058949BB21380FFF7F6FD344B1B680BB1FFF782
S2140058A40BFEA3075DD500F09FF8314E074635681A
S2140058B44FF0000A451B00F036FF8046DFF8AC9038
S2140058C4D9F80040002C48D06369AB4209D95D1B67
S2140058D465613760FFF7F0FD4046BDE8F84F00F01D
S2140058E428BF23462A4637605969914209D8187951
S2140058F494F804C0521A844588BF1C469B68002B43
S214005904F2D1404600F015FFD4F81480C4F814A071
S21400591400F009FF83462046FFF710FE584600F0C5
S21400592408FF23694BB100F0FEFE8346216920463A
S214005934FFF784FD584600F0FCFEE36813B12168C7
S2140059442046984700F050F84744ED1B04460544AB
S21400595400F0E9FE27468046B2E7022000F084F80D
S214005964BAE7BDE8F88F00BF544000205C40002032
S2140059744C4000201FB50024184B18689A880290E3
S21400598453F8060FADF80C201B79009002A88DF88A
S21400599404308DF808408DF80C4000F0C3FF6946CB
S2140059A401208DF8004000F081FF4FF090431F2146
S2140059B49A6922F01F029A61094A11609A6A12F0E3
