:10400000C01A0020B9A40100956C0000996C000052
:10401000A70A0A010042000004180FACA067A7011C
:104020000000000000000000000000000000000090
:1040300000000000881B03000000000000000000DA
:104040000000000000000000FFFFFFFFFFFFFFFF78
:10405000FFFFFFFF006007000100000000000000FC
:10406000FFFFFFFFFFFFFFFF8000000000000000D8
:104070000000000000000000000000000000000040
:104080000000000000000000CC4B0020CC4B0020C2
:10409000C01A0020EC4A0300D8050300601100207C
:0C40A0002C11002000E0070000000000D0
:10420000C01A0020B9A40100956C0000996C000050
:10421000A5AF00009D6C0000A56C0000B7A40100D4
:10422000B7A40100B7A40100B7A40100B7A401001E
:10423000A96C0000B7A40100B7A40100B7A4010055
:104240001C6D00001C6D00001C6D00001C6D00004A
:104250001C6D0000A9880000D99500001C6D0000AD
:104260001C6D00001C6D0000AD860000E1E6000042
:104270001C6D00001C6D00001C6D00001C6D00001A
:104280001C6D00001C6D00001C6D0000B7A4010037
:104290001C6D0000097F00001C6D00001C6D0000FB
:1042A0001C6D000009800000E17F00001C6D000013
:1042B0001C6D00001C6D00001C6D0000897E01005B
:1042C000157E0100117E010051750100857E0100FF
:1042D000197E0100397E01001D7E0100B7A4010096
:1042E000CD7E01001C6D00001C6D00007D6F000084
:1042F0001C6D00001C6D00001C6D0000B7A40100C7
:104300001C6D00001C6D00001C6D00001C6D000089
:104310001C6D00001C6D00001C6D00001C6D000079
:104320001C6D00001C6D00001C6D00001C6D000069
:044330001C6D000000
:10433400F8B500BFF8BC08BC9E467047F8B500BF8E
:10434400F8BC08BC9E46704710B5054C237833B9B9
:10435400044B13B1044800E000BF0123237010BDD7
:1043640034220020000000007043030008B5034B12
:104374001BB10349034800E000BF08BD0000000072
:104384003822002070430300154B002B08BF134B49
:104394009D46A3F5803A00218B460F461348144AE4
:1043A400121A2CF0F5F80F4B002B00D098470E4B47
:1043B400002B00D098470020002104000D000D4878
:1043C400002802D00C4800E000BF2CF0A3F8200025
:1043D40029000AF0ADFB2CF089F800BF00000800AA
:1043E400C01A002000000000000000003422002059
:1043F400CC4B002000000000000000001FB501238A
:104404000022009306210DF10F030CF01CFA20B9D1
:104414009DF80F3023B102F081FC05B05DF804FB78
:1044240002F07DFCF9E7000030B50024104D85B0A2
:104434002C700BF0EDF8022817D100900DF10E034B
:104444002246032101200CF0FEF9BDF80E0048B10C
:10445400204602F065FC4FF47A6128461AF0D4FD38
:1044640005B030BD02F05AFCFAE707F027FAF7E787
:104474003840002008B50BF0CBF8022802BF002218
:10448400014B1A7008BD00BF304000207047FFF791
:10449400B5BF09B9FFF7B2BF704738B5C37B05464E
:1044A4000BB1832038BDC47C2CB901F041FB20B989
:1044B400EB7B002BF5D18120F4E72046F2E7C37BA8
:1044C40010B504460BB1832010BDC37C1BB1012B76
:1044D40010D08120F8E7017D82898B1C9A420CD38D
:1044E40080680CF00EFC06F0D5FD40B9E37B002B90
:1044F400E9D1EEE706F0E6FDF7E78020E4E70020E7
:10450400E2E7C37B10B504460BB1832010BDC37C26
:10451400012B0BD003D3022B0BD08120F6E707F03D
:1045240049FB48B9E37B002BEFD1F6E707F052FBD8
:10453400F7E707F05FFBF4E70020E7E738B5C37B54
:104544000446002B437D14BF8325C325012B11D1C1
:104554000368028A598858790BF0C6FC50B1236865
:104564005B88192B04D1E37B002B14BF83258125A1
:10457400284638BD637D002BFAD12368228A5988E6
:1045840058790BF0A8FC0028F2D023685B88032B31
:1045940008D0062B0BD0002BEAD12046BDE83840CA
:1045A400FFF77BBF2046BDE83840FFF788BF2046B1
:1045B400BDE83840FFF7A5BF7047012070470120D0
:1045C40070470120704770470020704700207047F3
:1045D400002070470020704700207047002070477B
:1045E4000020704701207047012070470020704769
:1045F400002070470020704700207047002070475B
:104604007047002070477047812070470020704732
:1046140084207047704770477047704770477047F1
:104624000020704700207047034B1B68187801284E
:1046340008BF0220704700BFB83800207047002030
:104644007047000003460120024AC3E90320002208
:104654001A7070470100FEFF704700207047002069
:1046640070470020704700207047002070470020EA
:1046740070477047B520704700207047002070478E
:104684007047002070477047704770477047704705
:1046940000207047704770470023FF21084A1370B9
:1046A40082F8783082F8653082F8773082F8793091
:1046B40082F87A1082F87B30024A1360704700BF98
:1046C4005022002040400020F8B50D468C680A684E
:1046D40006462849202003F0A2F96B687BB92649D5
:1046E400202003F09CF9202009F0DEFD234920203E
:1046F40003F0AAF9BDE8F840202009F0D5BD002E4A
:10470400F1D01F4D1F4E204F013C14F8013F23B937
:104714001A49202003F098F9E5E7752B18D0762B79
:1047240018D0772B18D0732B18D0722B18D0712B6C
:1047340018D0622B18D06E2B18D02A2B18D01349FE
:10474400134A212B18BF1146202003F068F9DCE737
:104754002946F9E73146F7E73946F5E70D49F3E726
:104764000D49F1E70D49EFE70D49EDE70D49EBE799
:104774000D49E9E7DA10030071060300220603007D
:104784002F060300230603003A0603007B060300FA
:104794007806030046060300500603005B06030088
:1047A400660603007006030075060300F0B50026D4
:1047B400204A92F87B30184452FA80F090F865C091
:1047C40090F8665030461C4BA5EB0C051F78EDB2F3
:1047D400F4B2A54225D90CEB060313445B7811B15E
:1047E4000CB92D2B17D0782B1FD0582B05D108B11D
:1047F40037240AE0013C012C14D9602B17D8402B34
:10480400F6D83A2B34BF302400241B1BDBB29F4262
:1048140003D900FB07300136DAE70523002082F8CC
:104824007930F0BD10270020F5E70028E2D05724A6
:10483400EBE700BF50220020581C0020FFF72CBFDC
:1048440038B5054601460120FFF73EFFD5E901438F
:104854006CB91C46084D236863B12946202003F037
:10486400DEF821460020FFF72FFF0C34F3E71B7816
:104874006E2BEFD038BD00BFE005030008B5044936
:10488400202003F0CCF8BDE80840202009F00CBD3E
:10489400E305030038B5FFF7F1FF0024054D611966
:1048A4000C34631953F80C3C03B938BD0020FFF7EE
:1048B4000BFFF4E7880B03002DE9F84F1F4B204D45
:1048C40053F820201F49202003F0A9F82B681BB9B6
:1048D400BDE8F84FFFF7DEBF1B4FFFF7CFFF002601
:1048E400B946DFF86CA097F87B30F4B2013B9C42E8
:1048F40004DB2868BDE8F84FFFF7A2BF47FA86F348
:1049040093F8658000234C44C84494F8662094F8D6
:10491400651003F1010B521ADBB2D2B2934205D3F4
:104924000A49202003F07BF80136DCE743445A7837
:104934005146202003F073F85B46E6E75C1C002038
:1049440040400020D805030050220020E105030068
:10495400DD0503002DE9F74F884C94F87730002BE0
:1049640000F0A180864B671C1B7813F0010F1FD049
:104974000025844E14E0631993F8662093F865309B
:104984002020D21A44FA85F393F86510D2B2394440
:1049940009F085FC3146202003F041F80135EDB2E1
:1049A40094F87730AB42E6D87749202003F037F803
:1049B400002694F87730DFF8DCE10193734B4FF075
:1049C4000008714645461EF8012B91F801C007EB1B
:1049D400020AACEB020C5FFA8CFC1868002852D077
:1049E4000138D14619E02AB9002D4AD04FF0010808
:1049F4000C33F2E719F8011BA1F1410BBBF1190FBC
:104A040098BF2031A2F1410B98BFC9B2BBF1190F75
:104A14009CBF2032D2B28A42EAD1A9EB0A01614595
:104A240010F8012FDFD1002ADED11D46584B013684
:104A34001D6094F87B30F6B2013384F87B30D5E9FD
:104A44000123002A35D01B786E2B31D03F2B23D085
:104A54004FF000094FF0070BC846042394F8771071
:104A6400AA68B14212F808702BD8AFB1904498F8F4
:104A740001302A2B10D0212F1CBF032384F8793056
:104A84000AE01D46B4E7B8F1000F01D1002DCDD1E5
:104A94000223002584F8793094F87900002869D13C
:104AA40068680CF085F803B0BDE8F04FFFF7F4BD7B
:104AB4001346019AB24282D803221D4684F8792013
:104AC400EAE7732F09D8712F0BD2212F1FD0622F41
:104AD4003CD0002F4BD1032246E0A7F17502022AF5
:104AE40045D8752F29D0762F2AD0732F2BD0722F2B
:104AF40047F6FF7A18BF4FF0FF3A01214846019369
:104B0400FFF754FE5045019B01D984F87930AA6817
:104B1400424452782A2A94F879201CBF08F10108EB
:104B24005FFA88F8002AB7D1212F1FBF013609F197
:104B34000109F6B25FFA89F990E74FF0FF0ADCE762
:104B44004FF6FF7AD9E74FF07F0AD6E794F87B2037
:104B54004A4454FA82F292F8652022445278222A76
:104B6400D5D07B2AD3D0052284F87920CFE784F8E6
:104B740079B0CCE7FFF7A0FE95E700BF50220020F4
:104B8400CC220020E105030020060300880B03006B
:104B940040400020B52200202DE9F34106460D4691
:104BA4004FF000085C4C5D4F66B90DF107012846D3
:104BB40009F070FB78B1262800F0A980012384F85D
:104BC40079304BE0002D00F0A28016F8013B013D46
:104BD4008DF80730EDB23A789DF807300D2A3B7016
:104BE40001D10A2BE0D00D2B0CD0A3F10A025142C3
:104BF400514122788846042AD6D8DFE802F0051D00
:104C0400263C31000121F4E721B1FFF7A3FE4FF068
:104C14000108C9E7202B63D0222B07D1022323707C
:104C240094F87820642A5DD10623C8E77B2B01D150
:104C34000323F4E70123F2E709B9202BF0D194F818
:104C44007730112B3FD10323B9E7222BF7D000296A
:104C5400E6D005234FF0010884F87930042323704B
:104C6400B8F1000FA0D094F8790008B1FFF724FE42
:104C7400FFF712FD98E77D2B94F87A0003D1FF2803
:104C8400DDD005239BE7602B13D8402B13D8392B99
:104C94008CBF002230229A1AD2B20F2A10D8FF28D1
:104CA4000BD0FF2302EB00128DF8072084F87A3032
:104CB400B6E75722EFE73722EDE784F87A2073E767
:104CC400202BDED170E70133DBB294F8782084F82E
:104CD4007730234483F8652000232370002994D17E
:104CE400884661E72378012B09D19DF80730A3F1A9
:104CF400410119299CBF2033DBB28DF807309DF8A0
:104D04000710A3180132597084F878204CE7404604
:104D140002B0BDE8F08100BF50220020CD22002067
:104D240049BA89B24840C0F303114140080380B234
:104D34004840C3B280EA4310704716F087BB7047FF
:104D440070477047704770477047704770477047A7
:104D5400704770477047704770470020704770472E
:104D640070470020704770477047002070477047B5
:104D7400704770470020704770470120704701203A
:104D84007047704770477047704770477047704767
:104D94008842F0B54FEA92031AD804460D469BB2F6
:104DA4009E00871904370434BC4205F104053AD146
:104DB400C3EB8333314402EB8303013E304411FAE5
:104DC40083F3994220D011F8012B00F8012FF8E762
:104DD400541E204421440D4604469BB2A0EB830696
:104DE400043E043CB442A5F104050ED16FF0030463
:104DF4005C43C3EB833302EB830321449BB2013452
:104E04002044CB1A994209D1F0BD2F792771EF784C
:104E1400E770AF78A7706F786770E2E711F801293F
:104E240000F8012DEEE715F804CC04F804CC15F8CD
:104E340003CC04F803CC15F802CC04F802CC15F822
:104E440001CC04F801CCAEE70244904200D1704793
:104E540000F8011BF9E710B5013801390AB9104609
:104E640006E010F8014F11F8013F9C4201D0E01A0E
:104E740010BD013A92B2F1E782B2074B4AB1000C7D
:104E84001A8008BF4FF6CE22044B14BF18801A8034
:104E940070474BF6EF62F2E72C1D00202E1D002018
:104EA400094B1888020448BF80F0620042001A804F
:104EB400064A1388190444BF83F4805383F00B0318
:104EC40059001180584070472C1D00202E1D0020D1
:104ED4000022034B1870034B1970034B1A70704770
:104EE400D7220020D6220020D82200202DE9F04F1E
:104EF400234E85B0337807468846002B3DD04FF6C5
:104F0400FB73204D98422C7803D952211E4801F09E
:104F14005FFB1E4B4FF0000B9A4632785FFA8BF919
:104F24004A45187811D9484402A9C0B2019322F025
:104F340043FB082241460DEB0200FFF78CFF0BF107
:104F4400010B019B0028E8D14C462B78A34207D1E2
:104F5400631C3278DBB29A422B7004BF00232B709F
:104F64009AF8003041461C44E4B2204622F04CFC3E
:104F740018B93946204622F0EDFA05B0BDE8F08FA5
:104F8400D6220020D822002006070300D7220020C2
:104F9400024B187800F07F00704700BFD922002030
:104FA400034B18780130C0B2187000F07F007047CE
:104FB400D922002030B5002485B0ADF80A20021DA6
:104FC40092B2012A1D46ADF80840ADF80610ADF8BE
:104FD400044003D94FF6FF72904207D1064A2B468C
:104FE400127801A920F08CFC05B030BD014601AA5D
:104FF400204620F04BFDF7E7301D00202DE9F74F48
:105004009846FF2A16BF474B00241B680E4618BF5C
:105014009C5C814618BF6408B8F1FF0F16BF414B72
:1050240000271B6815461CBF13F808707F08FFF79C
:10503400B7FF4FEA19238DF800008DF803600621AD
:10504400360A68468DF804608DF801908DF80230B8
:105054008DF805401AF04EFBFF28064604D11824AB
:10506400204603B0BDE8F08F4FEA440B0BF1070A6A
:105074000AEB4701C9B21AF0F1FA0028EFD104464D
:10508400A3451BD10BF106013A4601F0FE0130465F
:105094005FFA8AF41AF0A9FB4FF0000A5FFA8AF566
:1050A400AF4223D83346BDF8302006214846FFF7E7
:1050B40081FF044630461AF0BFF9D1E7214628465D
:1050C4001AF08EFBA11D0246C9B230461AF08DFBC0
:1050D400611CC9B228461AF083FBE11D0246C9B21D
:1050E400304602341AF081FBE4B2C9E76D00EDB238
:1050F400294640461AF074FB2146024630461AF00F
:1051040074FB691CC9B240461AF06AFB611C024672
:10511400C9B2304602341AF068FB0AF1010AE4B25B
:10512400BCE700BFC81C0020F8B51C460E46174655
:105134000546FFF735FF9DF81810207020461AF039
:10514400D9FAFF2804460BD003463A46284631468E
:10515400FFF730FF054620461AF06EF92846F8BDE1
:105164001825FBE708B500F0B7F80CF0B1FBBDE873
:10517400084009F0FFBC08B5FFF745FA0CF0D4FB72
:10518400BDE8084005F010BF704700F0CCB9FFF748
:105194006ABA0020704738B504460D46FFF77AFA1C
:1051A40029462046BDE8384009F0DCBDFFF75DBA6A
:1051B400FFF767BA704713B50139044604292AD8A2
:1051C400DFE801F003162B29320048B9042100F06E
:1051D400ABFB0121084602B0BDE8104000F0E8B97D
:1051E40000F0BCF94FF496730322009305210FE0FD
:1051F40048B90146012000F0DBF9204602B0BDE8C1
:10520400104000F03FBB4FF4FA73042203210093D3
:10521400012000F0B3FB02B010BD0028FBD102B0A6
:10522400BDE8104000F0B0B80028DBD1C82302224A
:105234000093032100F0A2FB00F0E0F915F0F0FC6C
:105244001CF00CFF02B0BDE8104002F023B80000CF
:1052540007B5042836D8DFE800F00320031824003B
:105264004FF49673032200930521002000F086FB7F
:105274000123164A1370164A13704FF47A711548B5
:1052840003B05DF804EB19F0BFBE4FF4967303222C
:1052940000930521002000F071FB02220C4B1A70D0
:1052A400EBE70A4B1B786BB14FF496730322009320
:1052B4000521002000F062FB0322054B40F6B831C3
:1052C4001A70DCE703B05DF804FB00BFDA220020AB
:1052D4008C4000207440002008B500F0F7FA06491D
:1052E400064800F025FA064800F048F8BDE80840F2
:1052F400044819F07DBE00BFBB510000B951000045
:10530400555200007440002073B50020184C194B0E
:1053140025781870012D264612D003D3032D1FD0F3
:1053240002B070BD0AF074F938B9C823032200939F
:10533400012100F023FB00F027F802233370EFE78C
:105344004FF4967303220093052100F017FB0A4BD8
:105354001D700223237002B0BDE8704000F0FEB857
:105364000223237002B0BDE8704001F093BF00BF78
:105374008C40002074400020DA220020014B186089
:10538400704700BFDC22002008B50AF041F930B9AB
:10539400BDE808404FF4FA61014819F035BE08BD74
:1053A40090400020002208B5054B1A700AF030F92D
:1053B40028B906F083FA034A13680133136008BD61
:1053C40090400020E0220020902810B504460FD120
:1053D400114B124C186830B106F0A0FA23682BB1B7
:1053E4000220984702E02368002BFAD1002010BD68
:1053F4000AF00EF950B9094B1B680BB10420984709
:10540400942CF3D1054B01201B68EAE70328F7D15C
:10541400024B1B68F3E700BFE0220020DC220020DF
:1054240070B5C47CF4B9037D8289591C8A421BD3AC
:10543400056880686E79C55C0BF063FC012E05D1AC
:105444004F2D05D90221204600F06EFA204670BD8A
:10545400272D01D93146F6E70DB10421F3E728469B
:1054640000F010FA0024F1E70124EFE72DE9FF41F1
:10547400002507462C464FF6FF78EEB2304615F06D
:10548400EBF940450DD06946304615F0EDF99DF82D
:105494000130BB4205D19DF80030012B04BF01341B
:1054A400E4B20135032DE8D1204604B0BDE8F08113
:1054B40038B5C47C1CB1012C20D0002038BD05793E
:1054C40055B1022DF9D12146204600F02DFA21468E
:1054D400012000F029FAF0E72946012000F024FA1F
:1054E4000120294600F064F80120FFF7BFFF0028DF
:1054F400E3D02946012000F091F8DEE7017919B1E3
:105504000229DAD12046E4E70221204600F00CFA11
:105514002046214600F04CF82046FFF7A7FF00285C
:10552400CBD02146E6E7827B08B52AB103685B88C5
:10553400062B03D0082B04D0002008BDFFF7B8FFCA
:10554400FAE7FFF76DFFF7E710B514460BF028FBF9
:105554002146BDE8104000200BF018BB70B5114B7C
:1055640090B0186802AD02900AF052F8022816D1E1
:105574000D4B10AE46F8343D04AC95E80F0007C45B
:10558400237011230122CDE900630021074B102071
:105594000BF098FA012100220846FFF7D5FF10B05E
:1055A40070BD00BF940B030005000042980B03007C
:1055B4004FF0805310B592B0059305230446019330
:1055C40005AB8DF80F108DF81810009301220A4BCB
:1055D400062110200BF076FA204600220121FFF765
:1055E400B3FF10230022009306210DF10F03204680
:1055F4000BF0D8F812B010BD980B03001FB50223AE
:10560400002000934FF48A5203AB48F234018DF822
:105614000D00FFF789FD05B05DF804FB2DE9FF419E
:105624008846FFF723FF0138C6B2304615F014F957
:10563400002705466946F8B215F016F9044610BB72
:105644000137032FF6D16946304615F00DF94FF6B0
:10565400FF739D4217D02B1D9BB2012B13D9B8F1B8
:10566400010F0A4B0CBF42462246062101200BF0D3
:1056740029FA9DF804109DF801000BF091FA2946CF
:1056840020460BF083FA04B0BDE8F0812206030043
:10569400F8B5234C636883422FD0636998422ED1B6
:1056A4000125EDB22D0163195F683023625D1D4849
:1056B40053430022164618440368FB4003F00103D9
:1056C4000168F94001F0010C63451AD10132052A41
:1056D400F6D1621982F808C0B3B9537A0133537210
:1056E400137B13B9104819F083FC002301222C44C6
:1056F400A37263732273E372F8BD0025D1E7FF251B
:10570400D0E700226346DBE701230848D372067022
:1057140016734FF4FA71BDE8F84019F075BC00BF78
:10572400341D002014C0034098400020A0400020F5
:105734002DE9F74307460E46012502F033FC104CD1
:10574400DFF8489004F120080023012261682078E2
:1057540004F0A8FC4946207902F032FC626814F88F
:10576400100BCDE900550123114604F055FC4445C6
:10577400EAD1044B1F60044B1E6003B0BDE8F08304
:10578400341D0020E4220020E82200209556000069
:105794002DE9F84300241A4B4FF005081C704FF014
:1057A40001092346174D184FEE7826B36B78013361
:1057B400DBB2042B84BF00222A703A686B7088BF66
:1057C40085F804905AB1B3FBF8F101EB81001B1A80
:1057D40013F0FF0F03D10A31C9B2204690471035A8
:1057E40034B156B1BDE8F843C821054819F00CBCE2
:1057F40001243346D8E71E46F1E7BDE8F88300BF2D
:10580400984000203D1D0020E42200202DE9F041B5
:105814000025A846174B184C184E194F1D70E37AF3
:10582400ABB133683BB1627BE8B2B2B9617A0A29A1
:1058340028BF1121984784F80A8084F8098084F8E5
:105844000C8084F80B8084F8088084F80D80103470
:105854000DB1BDE8F0810125E1E7A17A3B681D297E
:105864009FBF0522B1FBF2F10A31C9B288BF1121F1
:10587400E0E700BFA0400020341D0020E822002003
:10588400E42200204823584301230E4970B53025F3
:105894000A18085C51680C4C03FA01F641F2100135
:1058A40005FB00404650107ED66905FB004003FA14
:1058B40006F6465092F83000526B934005FB0042C6
:1058C400535070BD541D002000C0034070B5124DEC
:1058D40000242E462919285D00230422496818341F
:1058E40004F0E0FB482CF5D100243019C16C0023EE
:1058F400042290F84800183404F0D4FB482CF4D166
:105904000020FFF7BFFF0120FFF7BCFF034B044A51
:105914001A60044A5A6070BD541D0020E8400020FB
:10592400E0400020A84000204823124A2DE9F0411D
:1059340003FB002001270022302641F2100C42F222
:10594400100E0D4D0378446806FB035341FA02F828
:1059540018F0010F07FA04F402F1010214BF43F82E
:105964000E4043F80C40032A00F11800EAD1BDE8C8
:10597400F08100BF541D002000C0034030B418243F
:10598400084D04FB00540125E360029BAA402361F7
:10599400054B22752572617253F8200030BC19F052
:1059A40027BB00BFB0400020E840002018222DE9AA
:1059B400F047404D044602FB0052137D3E49002B44
:1059C40059D013F0010F4FF0480332D003FB0013FA
:1059D4004FF0010E0021302741F2100842F2100965
:1059E40092F809C0354E1A78586807FB02624CFADF
:1059F40001FA1AF0010F0EFA00F001F1010114BFCF
:105A040042F8090042F80800032903F11803EAD117
:105A1400182303FB0453D968294B53F8240019F0C5
:105A2400F3FA182303FB0454237D013B2375BDE8DB
:105A3400F0874343C818CE5C01234FF0300C416813
:105A44001E4F03FA01FE41F210010CFB067646F8E4
:105A540001E090F818E0C6690CFB0E7E03FA06F626
:105A64004EF8016090F83060406B83400CFB067088
:105A740043501169D0E7137248235C430123302556
:105A84000A19085D51680D4C03FA01F641F2100140
:105A940005FB00404650107ED66905FB004003FA22
:105AA40006F6465092F83000526B934005FB0042D4
:105AB4005350BCE7B0400020541D002000C00340F8
:105AC400E84000200020044B1870044B1B7A012B83
:105AD40001D1FFF76BBF7047E0400020B0400020C9
:105AE4000022054B1A70054B93F82000012801D1C0
:105AF400FFF75CBF704700BFA8400020B040002003
:105B0400002307B5CDE90033012369464FF0FF3088
:105B14008DF802300DF016F9003018BF012003B0E3
:105B24005DF804FB01207047012070470120704795
:105B340010B5084C23681B6858790AF066FB236883
:105B44001B685879FEF767FD00200CF017F8012058
:105B540010BD00BF484900202DE9F84F80460D468E
:105B640014469946164E06F1010A0DB9BDE8F88FA0
:105B7400102D4FF00D02494650462F4628BF1027DE
:105B8400FFF706F90123337000230D48F473B37350
:105B940021F0D2FE424601340A495FFA87FBE4B29F
:105BA40012F8013B11F8010F434002F8013CA2EB4B
:105BB4000803DBB25B45F3D3ED1BADB29046D4E7EB
:105BC400F0220020EF2200202DE9F04F4FF00209CF
:105BD400364D85B003930F9B174601900D220E4658
:105BE4000146681CBDF838800293FFF7D1F84923B9
:105BF4004C46AA462B7028464FEA1823AB7385F807
:105C04000F8021F099FE2B7883EA17232B706B7891
:105C14007B406B704FF0000B21E0C4F1100CA7EB3C
:105C24000B031FFA8CFC9BB2634528BF63463046C6
:105C3400A11B00EB010C5FFA8CF2A0EB060C1FFA1F
:105C44008CFC9C451BD31C44E4B29B44102C1E4486
:105C54001FFA8BFB03D1284621F06EFE0024BB45BE
:105C6400DBD314B1504621F067FEB9F1010F4FF0B8
:105C74000004039E47460BD04FF00109CAE710F811
:105C840001CB1AF802E08CEA0E0C0AF802C0D0E745
:105C9400029804220549FFF77BF822460421019B60
:105CA400029805B0BDE8F04FFFF756BFF022002080
:105CB400F7B5099FBDF820400646CDE900471D46CB
:105CC400FFF782FF2CB13346012221462846FFF715
:105CD40043FF002003B0F0BD2DE9F7431E460546FF
:105CE40088469146BDF828700D4C03463946304627
:105CF4000122FFF731FF33464A4641462846CDE9A3
:105D04000074FFF761FF042221460B98FFF7A3F804
:105D1400002814BF7E20002003B0BDE8F08300BF3C
:105D2400EC2200202DE9F3410C4615461E46804620
:105D3400084F9918214438460422FFF729F8CDE981
:105D4400006763192A4621464046FFF7C5FF02B0A3
:105D5400BDE8F08100230020002070470020704738
:105D64007047704773B502AB03E906000446019D12
:105D740018F016FE0646204618F020FE9DF8000096
:105D84008EB1202C0FD82B78012B37D84FF6FF7506
:105D9400394903EB4313234431F81320AA4202D0B8
:105DA400013221F813204FF6FF72344B344933F893
:105DB400146031F8145096421CBF721C23F814204E
:105DC40004F0FD02092A31D19A8A898A02448A425E
:105DD400B4BF9A82998233F81430AB4204D3AE42F2
:105DE40002D22046FEF718FC0025264BEA5CA242AC
:105DF40028D00135112DF9D102B070BD022BD2D1BA
:105E04004FF6FF714FF6FF751B4B33F814208A428F
:105E14001CBF013223F8142004F1210233F81210BC
:105E2400A9421CBF013123F81210BCE71D2CD2D1AA
:105E34005A8F1118A942BDBF02F1FF3212185A87B6
:105E44005D87C8E714F0BDFF0F4B04461B788342FF
:105E540003D8DD210D4800F0BBFB4FF6FF710C4A5F
:105E640004EB04142C4432F814308B42C4D00133B4
:105E740022F81430C0E700BFB6410020644100207E
:105E8400124100201E0C0300111D00209A0B030078
:105E9400F0400020522200210148FEF7D5BF00BF88
:105EA400644100205222FF210148FEF7CDBF00BF0C
:105EB4001241002008B5FFF7EDFFBDE80840FFF7E9
:105EC400F1BF0000032310B50F4C4FF48062C4E906
:105ED40004330E4B0E49E3610023A16121660D4991
:105EE400E01DC4E919120C49A3626362E3622367EB
:105EF400E366636722622AF053FB084920462AF0CE
:105F04004FFB2023A37110BD3C4200200427002036
:105F14002F0C030004230020380C03003C0C030066
:105F24002DE9F84F1F4B16461A7881468A46984643
:105F34000AB9FFF7C7FF182707FB09873D6FD7F892
:105F44006CB05D452BD9BC6E796E641BB44228BF1E
:105F540034462944504622462AF00FFBBB6E2544A2
:105F6400AB4208BF0025A244361BABEB050B5E45D4
:105F740028BF5E4656B1182303FB0983596E324687
:105F8400294450462AF0F9FA3444354424B11823FC
:105F940003FB0988C8F870502046BDE8F88F002438
:105FA400E3E700BF3C42002010B50B46EFF3118439
:105FB4004FF0200181F311881946FFF7B1FF84F3F4
:105FC400118810BD2DE9F84F144D9B462B7881465E
:105FD400884692460BB9FFF775FFEFF3118C4FF02B
:105FE400200181F31188002018236F6903FB0054FA
:105FF400666E2EB101308742F8DC4FF0FF3009E0C5
:106004008742FADDC4E91898C4F868A02667E666F2
:10601400C4F874B08CF31188BDE8F88F3C420020BA
:10602400FFF750BF70B54FF060441A4B00261A6852
:10603400194D42F001021A60DA680C2042F08072B5
:10604400DA60164BC4F8B03F0223C4F8006EC4F8FB
:10605400806EC5F8F03003F051FC114B00F5D520EB
:1060640000F2FC40B0FBF3F00E4A0F4B01382861FC
:10607400C4F8406E1A600D4BC4F8803E4FF4807330
:10608400C5F80433D4F8003E43F48073C4F8003EEA
:1060940070BD00BFF0ED00E0000004E055CEACC5DB
:1060A400F8590D00FF030040001000E00D0001004E
:1060B40010B501240E4B00201C6003F0ABFF2346F7
:1060C40004220321002003F0EDFF20460CF04AFBDC
:1060D400FFF7A8FF0CF047FBFFF7A2FF234640227F
:1060E40004490548FFF76EFF044B1860C00F10BD4C
:1060F40044D40340042B0020430C0300E41D00207F
:10610400024B1868003018BF01207047F0ED00E022
:10611400D123054A037013784170090A8170591C10
:10612400C370117004207047442B00202DE9F74FF1
:10613400354E074633681C5C032C63D9DFF8CC80EA
:1061440014F070FA4FF6FF7A0025C1460534E4B224
:106154000190D8F800204AB1AC4207D914F062FA91
:10616400019BC01A80B2B0F5FA7F05D9601B18BF35
:10617400012003B0BDE8F08F002D3DD0012D1DD1CD
:106184004FF0020B3268D55D4FF06042D2F8801EAA
:10619400CB0711D51146D9F80C0040F08070C9F82E
:1061A4000C00D1F8000E40F48070C1F8000E086AAB
:1061B4000028F0D082F820505D46CAE7E21E05F1BF
:1061C400010B95425FFA8BFB02D15FFA8AF5DBE79C
:1061D400A21E954202D1CAF30725D5E7621E954255
:1061E4000ED0A91EC9B2384619F0FAFA514605462E
:1061F400FEF796FD8246C7E75B254FF0010BC3E728
:106204005D25C1E70120B4E7C81C0020F0ED00E0E3
:1062140010B50B4B90B0402269461868FFF7C4FED6
:1062240058B1C1B2684619F065FA04460146122015
:106234000BF044FF204619F0FFF810B010BD00BF6A
:10624400E41D002000F038B838B50446044D287821
:10625400A04203D02146FEF7E0F92C7038BD00BF00
:10626400452B0020054B1B7820B1012B04D80220BC
:10627400FFF7EABF012BFBD8704700BF452B002076
:1062840008B500F019F8BDE8084004F039BC000076
:1062940010B5084C237853B9FFF7F2FF012323709C
:1062A40028B10388B3F5817F24BF037D2370207850
:1062B40010BD00BF462B002038B5144B1B78012BB2
:1062C40022D8134C04F004FC0120FFF7CBFF2578FF
:1062D400FF2D19D104F014FCA8B143881822C3F38C
:1062E400400329460B482370FEF7AEFD2378012BAB
:1062F4000AD1FFF7CDFF042806D9BDE83840D921DB
:10630400054800F065B9207038BD00BF452B00205A
:10631400E81D0020E4420020530C0300FFF7CCBF2B
:106324002DE9F04F4FF0FF33002687B00393074663
:106334008A461546CDE904668DF81030FFF7BCFF98
:10634400FFF7A6FF5B4B80461B78012B1AD101286F
:1063540018D9B7FBF0F300FB13739BB1564C2268BA
:10636400511C03D0237A13449F4237D0E268531C54
:1063740003D0237D13449F422FD04FF49D714F4887
:1063840000F026F94B4C2278012A09D1B7FBF8F327
:1063940008FB137323B140F26311484800F018F965
:1063A4002378012B12D1EB19B3FBF8F408FB143456
:1063B40064B1A6B2291B1B1B3246514404A8AD1B71
:1063C4000393ADB2FEF7E4FC8DF81440002D4BD1DD
:1063D400039B01335AD1002654E001260C2303FB0E
:1063E4000643187A32B2A8EB000953005FFA89F920
:1063F4001344A9454FEA830328BF5FFA85F903F1E3
:10640400040B009358441FFA89F31A46514620445A
:106414000193FEF7BDFC019BED1A0C235E43A11909
:106424000A7AADB24A44D2B242450A7218D1032064
:106434000193FFF709FF1FFA88F204EB0B01A0593F
:1064440004F0E6FB06460220FFF7FEFE019BFF2157
:106454001A46009B23441846FEF7F6FC96B9CA4434
:10646400002DB8D04F448DE70320FFF7EDFE2A46F8
:106474005146384604F0CCFB06460220FFF7E4FE02
:10648400002EA5D0304607B0BDE8F08F0A48036857
:1064940001330BD0C36801330AD101230C220DEB65
:1064A400020102FB0300FEF773FC94E70023F5E707
:1064B4000126E7E7E81D0020E4420020530C030016
:1064C40038B5184B1B78012B28D1174CFFF7F4FE75
:1064D400236801330FD00320FFF7B6FE2568FFF7CA
:1064E400D7FE211D82B2284604F092FB0546022005
:1064F400FFF7AAFE9DB9E36801330FD00320FFF72D
:10650400A3FEE468FFF7C4FE084982B2204604F003
:106514007FFB05460220FFF797FE05B900252846B4
:1065240038BD00BFE81D0020E4420020F4420020F2
:1065340070B504460D461646FFF7BEFE0420FFF76D
:1065440083FE32462946204604F071FB04460220AD
:10655400FFF77AFE204670BDF8B504460E46FFF7F5
:10656400ABFE0520FFF770FE3146204604F06EFBBB
:10657400104D07460220FFF767FE2B68591C09D00F
:106584009C4207D8A219934204D20C22FF21284628
:10659400FEF75AFCEB685A1C09D0A34207D33444D3
:1065A400A34204D20C22FF210348FEF74DFC3846D7
:1065B400F8BD00BFE4420020F042002008B5FFF718
:1065C4007BFEBDE8084004F050BB42DE704700008B
:1065D40038B504460D4600F001FD03F076FC29466B
:1065E40020460BF037FD2B4622460549012007F0D3
:1065F40061FE29462046BDE83840FFF7E6BF00BFEC
:10660400C40C03006D4B2DE9F0415A686C4CA26533
:106614005A6AE2656B4AD2F800122166D2F8042263
:1066240062669A6AA266DA6AE2661A6B22675A6B33
:106634006267A26BDB6B12F0040FA367D4E90F53FC
:1066440018BF1D4613F0D2FF002285420346606541
:1066540022655DD35C4A95425AD8AA696264E969A5
:10666400A164B4F85810C1F30801062954D157495C
:106674008A4251D356498A424ED211884DF642621B
:10668400914249D140F201706268C4F89420A26832
:10669400C4F898204F4A5049934238BF13460A46DB
:1066A4008B423CD3D31AE3640023C4E91F33C4E907
:1066B4002133C4E92333484E444FDFF814C1AE42BA
:1066C40033D8D4E91FC7D4E92165D4E923124FF0A4
:1066D400000E013BDBB2FF2B42D1BEF1000F05D00F
:1066E400C4E91FC7C4E92165C4E92312B4F85830CA
:1066F400C3F30803052B57D03CD8032B47D0042BF6
:1067040058D040F60722013B4B2B98BF104640E07F
:1067140000221D46C4E911224FF42060BAE71E6826
:10672400B6F1CD3FBED10433BAE756F8042DBA42D0
:10673400C5D36245C3D2D107C1D5002104EB010EF4
:10674400DEF87CE09645BAD004311829F6D10BB9AD
:10675400052301E0013BDBB204EB8301CA67AEE72A
:10676400E0464FF0010EBC4637462E460D46114614
:106774004246AEE70C2B1AD03B2B0CD0062BC0D1D3
:1067840040F60423B0F5206F08BF184601E040F638
:106794000120BDE8F081114B9B6913F0020F40F218
:1067A400025318BF1846F4E740F60320F1E740F619
:1067B4000520EEE740F60220EBE700BF00ED00E025
:1067C4000000002000E100E0A01A00204C4300007B
:1067D400D80503009C000020C01A00200080014A54
:1067E40010B503F091FD044603F086FD002201215B
:1067F40001FA02F3234014D01B4B33F812301B4A26
:10680400062B13D040F207218B420DD118491948A9
:106814000C68844208D14CF23C334B800B881380C3
:1068240012E00132102AE3D1104AF8E74FF20F01C7
:106834000F4B5888884214D11988B1F5406F10D293
:1068440011804CF23C325A80084B1A8840F2017392
:106854009A4201BF084B094AD2E90001C3E9000189
:1068640010BD4FF4C061EBE7D80C0300502B00209F
:106874000000002007020FF0482B002094000020A5
:10688400014B1888000A7047502B0020014B1888D0
:10689400704700BF502B00202DE9F04F4D4C0546AA
:1068A400A36BD4F850B05A0747BF0027B846D4F8B2
:1068B4004CB0D4F85480D4F840A05DBF464FD4F80F
:1068C4003CA0DFF83C91DFF83C9113F0080F434BF8
:1068D400434A18BF1A46B7EB08061FBF6421730862
:1068E40001FB0B33B3FBF6F387B01CBF9BB20593DC
:1068F4003C494B46CDE9017ACDF8008008BF0596A6
:1069040001F0A2F8B3B2CDE900931FFA8BF2059B14
:106914003549284601F098F8A36B5B070AD49C3EDE
:106924005E4507D1626D314B9A4203D23049284605
:1069340001F08AF8BA4501D8C24504D24A462D4925
:10694400284601F081F8284607F0AEFC236E0BB907
:10695400636EBBB32849284601F061F8002601277D
:10696400DFF8A480DFF8A490226E07FA06F313423E
:1069740007D058F8262013781BB14946284601F061
:106984004EF80136202EEFD100260127DFF878805B
:10699400DFF87890626E07FA06F3134209D008EB29
:1069A4008603D3F8802013781BB14946284601F0AA
:1069B40036F801361D2EEDD1284607B0BDE8F04F5C
:1069C40001F03CB828460D4907B0BDE8F04F01F08E
:1069D4003BB800BF00000020C01A0020EA0F0300EB
:1069E400F10F0300F90F0300271003009C0000209F
:1069F400601003008C100300AA100300DD100300D4
:106A0400E50F0300DD0F0300F4100300D9100300A9
:106A14002DE9F8430446FFF739FF40F60123984275
:106A240039D010D840F2025398421DD040F201737D
:106A3400984224D040F20153984213D1654920462C
:106A440001F002F822E040F6032398426CD03DD3D3
:106A540040F60423984200F09C8040F605239842B7
:106A640000F0B580BDE8F8835B49204600F0ECFFF8
:106A74005A4B5B495A6C204600F0E6FF06E0574A41
:106A84005849D2E92523204600F0DEFF2046BDE820
:106A9400F84307F009BC514D5349204600F0D4FF98
:106AA40095F86C309F0703D55049204600F0CCFF81
:106AB40095F86F305E0603D54D49204600F0C4FFBB
:106AC40095F96F30002BE1DA4A49B8E7434D4A495A
:106AD400204600F0B9FF95F86830980704D06A6C36
:106AE4003F49204600F0B0FF95F96830002B04DAE6
:106AF4006A6F4249204600F0A7FF00260127DFF80D
:106B04000881DFF81491AA6E07FA06F3134207D03E
:106B140058F8262013781BB14946204600F094FF0C
:106B24000136082EEFD1B1E72C4D3549204600F04F
:106B34008BFF2B496A6C204600F086FF95F869307C
:106B4400590703D52F49204600F07EFF95F9693097
:106B5400002B04DA6A6F2949204600F075FF0826E5
:106B6400294FDFF8B480AB6EF340DA0707D557F846
:106B7400262013781BB14146204600F065FF0136FC
:106B8400102EF0D195F86830002B7FF47FAF1F49A9
:106B940055E7124D1E49204600F056FF6A6C104915
:106BA400204600F051FF1026174FDFF86C80AB6EC3
:106BB400F340DB0707D557F8262013781BB141466D
:106BC400204600F041FF01361A2EF0D15EE711494C
:106BD4004BE700BF6C0D0300A90D0300000000206B
:106BE400D90D0300F20D03000C0E0300240E030064
:106BF4005E0E0300910E0300CD0E0300F20E03009F
:106C0400160F03002D0F0300F80C0300730F03008D
:106C1400A30F0300BC0F03000E0F03002DE9F84F70
:106C240006460025154C164FDFF85C80DFF85CA0A3
:106C340023785FFA85FB0BB9BDE8F88F57F8043B5E
:106C440022461049304600F0EAFE227804F1010998
:106C540082B9627882B10BF0030103290CBF41466B
:106C64005146304600F0DBFE304607F01DFB01358F
:106C74004C46DDE74C46E8E74146F2E7E8110300FD
:106C840004000020630D030020060300600D0300D0
:106C940000F00CB800F00AB800F008B800F006B82C
:106CA40000F004B800F002B800F000B872B61EF0AC
:106CB400080F09D01EF0040F0DD0DFF850E0AEE845
:106CC400FF1F6FF002000CE0DFF840E0AEE8FF1FAA
:106CD4006FF00E0005E0DFF834E0AEE8FF1F6FF060
:106CE40006006946EFF309828EE8070086460848E5
:106CF400084C854501D3A54501D384F30888FFF7E3
:106D040081FC84F3088813F04DFC0000040000208B
:106D1400A0110020C01A0020FFF7C6BF70477047BB
:106D24007047704700F07E63B3F17E6F70B505461F
:106D34000E46144616D104F0C3FB18B19A210D482F
:106D4400FFF746FC22463146C5F30B0003F098FBDF
:106D5400044604F0C1FB5CB19D21BDE870400548C8
:106D6400FFF736BC520813F0BBFB08B18F21F4E7E0
:106D740070BD00BF0A19030037B57F2A14BF15463A
:106D840000254BF234629142044619D17F2241F22C
:106D9400020168460823FFF7EFFF082225496846E9
:106DA400FEF759F830B908237F2241F2F011684602
:106DB400FFF7E2FF082269462046FDF7E9FF09E0F4
:106DC40041F2F01291421AD11B4901388A6CC96C04
:106DD4001D1F0BB903B030BD013B9D4200F8012FCC
:106DE4004FEA1222F5D1002203349A42F2D0013242
:106DF400042A04F8011F4FEA1121F6D1EAE701F44D
:106E04007042B2F5805F07D1C1F30B0404F17E64D4
:106E14009AB203FB0541D0E701F46042B2F5005F8A
:106E2400D8D1C1F30B0405499AB2214403FB0511DF
:106E3400C3E700BF841903000080E00F00E00700EF
:106E440070B5054616461C46DBB14BF234639942D5
:106E540010D1082C28BF08247F2241F202012346C6
:106E6400FFF78AFFA2B207492846FDF7F4FF40B9AD
:106E740041F2F011234632462846BDE87040FFF740
:106E84007BBF70BD841903002DE9F7430446E00776
:106E94000F46154603D5DD213448FFF799FBE90772
:106EA40003D5DE213148FFF793FB04F47043B3F5B7
:106EB400805F3ED1C4F30B0404F17E646B1E2C4A44
:106EC40023449342264603D9E3212848FFF780FB55
:106ED400DFF8989006EB050846453DD1A2070ED091
:106EE4004FF6FF7337F8022B02A943EA0243A01EB0
:106EF40041F8043D0422FFF715FF0234023DAB07BD
:106F04000ED0023D25F00103FB5A02A96FEA0343A8
:106F14006FEA1343042241F8043D6019FFF702FFAE
:106F240025B12A4639462046FFF7FCFE03B0BDE8EA
:106F3400F08304F46043B3F5005F05D10D4BC4F353
:106F44000B041C442646C3E7EA210848FFF740FB2C
:106F54006FF00F060024BBE716F8013BFF2BBBD0F4
:106F6400F4214846FFF734FBB6E700BF0A190300D3
:106F7400FF1FE00F00E00700FFF78ABE1FB5144AA9
:106F840001AB10685168128903C31A8001238DF87C
:106F940004300D238DF80A3003230E4C08212320DE
:106FA4008DF80B3002F0E8FD01A9204603F09FFCA8
:106FB4004FF40061022342F21800074AC2F8841118
:106FC4002350516041F21C02A35004B010BD00BF15
:106FD4008C1903000080014A00E100E0014803F03D
:106FE40075BC00BF0080014AA52803D100210248D6
:106FF40003F05DBC704700BF0080014A024B586833
:1070040000F00100704700BF0080014A024A536A41
:10701400002BFCD1704700BF0080014A002070475C
:10702400002070477047000007B572B602F04DFFAC
:10703400894B8A495B6940228B6000230B764B762F
:107044008B76F023CB760B774B778B77CA778022BE
:1070540081F8202081F82130E023602081F822305B
:107064007F4B81F8232083F8002383F8012383F8DE
:10707400022383F8032383F8042383F8052383F886
:10708400062383F8072383F8082383F8092383F866
:107094000A2383F80B2383F80C2383F80D2383F846
:1070A4000E2383F80F2383F8102383F8112383F826
:1070B400122383F8132383F8142383F8152383F806
:1070C400162383F8172383F8182383F8192383F8E6
:1070D4001A2383F81B2383F81C2383F81D2383F8C6
:1070E4001E2383F81F2383F8202383F82103202001
:1070F40083F8222383F8232383F8242383F8252386
:1071040083F8262383F8272383F8282383F8292365
:1071140083F82A2383F82B0383F82C0383F82D2385
:1071240083F82E2383F82F2383F8302383F8312325
:1071340083F8322383F8332383F8342383F8352305
:1071440083F8362383F8372383F8382383F83923E5
:1071540083F83A2383F83B2383F83C23CB6823F456
:10716400E0631B041B0C43F0BF6343F40133CB60A7
:107174004B6943F010034B614FF4E0234B6203F07F
:10718400BFFEFFF72DFBEFF308834FF0CD31354AF7
:10719400043B93425DD2344A002192B23348FDF756
:1071A40053FE62B6684603F093F9314B9B6DDB03E3
:1071B40018D4304A136823F4FF0323F4FE4343F442
:1071C400BC1343F4A063136052F8043C23F47043EB
:1071D40043F4404342F8043C52F8043C43F4E06373
:1071E40042F8043C9DF80130012B0FD19DF800308A
:1071F40063B94FF000531B681F4B1B681F4B1B6880
:107204001F4B1B681F4B1B681F4B1B681F4AD2F880
:10721400803043F00303C2F8803002224FF0402351
:107224001A6703F0E7FD01F0C7FA002300938DF815
:107234000430012368468DF8033002F0E2FE00F0CA
:107244000BF913F001FA12480BF096FA03B05DF84B
:1072540004FB1960043B9CE70040000000ED00E0E3
:1072640000E100E0601100208C100000A00000206C
:1072740000C0004034C000400040002000800020D6
:1072840000C00020000001200040012000800040D8
:107294000822030040F2016013F084B9FEF760BDD8
:1072A40008B500210B20FEF759FDBDE80840FEF7A4
:1072B40058BD032000F05CBA10B5FFF7E1FA0446AC
:1072C400FFF7E4FAC0B228B9012C24D164F07F049A
:1072D400E4B216E0072CF9D801A353F824F000BF58
:1072E40007730000D1720000057300000B730000E7
:1072F4000B7300000F73000013730000177300007A
:107304000924204610BD0224FBE70324F9E70B24DB
:10731400F7E70624F5E70446F3E700BF07282DE95D
:10732400F84F04460F462DD0082808BF02242146F2
:107334000120FDF7B0F9FFF761FE651ED5F10008E5
:1073440048EB050800B3012C1ED1A520FFF74CFE25
:107354002646EFF31089012383F31088EFF3118A93
:107364004FF0000B8BF31188354D404607F00AFAB5
:10737400631EC5F800B0042B59D8DFE803F00E4DA6
:107384004D5155000324D2E7FFF738FE18B1FFF73B
:107394003DFE0026DDE70646DBE72A4A136923F0B3
:1073A4000403136130BF284AD2F82434D2F82024CD
:1073B40013409BB2254A2B60D2F80011480102D534
:1073C4001168490106D4D2F80011880105D5126864
:1073D400910102D543F480332B601C4BD3F8002178
:1073E400520506D51B685B0542BF2B6843F4003386
:1073F4002B601EB10121164803F059FA404607F0EC
:10740400E1F9CFB18AF3118889F310882146BDE8E8
:10741400F84F0020FDF73FB9012002F0C5FDC2E797
:10742400012002F0D5FDBEE702F0D4FDBBE78821C0
:107434000848FFF7CDF8B6E787F31088E6E700BF02
:107444005C2B002000ED00E000C0034000E100E000
:107454000080014A9C19030042F22041044AD2F8F8
:1074640020341B0C1B045350024A1360704700BFA6
:1074740000C00340582B00200021FFF74FBFFFF747
:10748400FBBF00002DE9F04F89B00BF069F9074606
:10749400002840F0DD806F4E6F4D3168286812F08F
:1074A4006BFA0446002827D033683C46D3E9000130
:1074B4009A6912689047336804A89B699B68984747
:1074C400336802209B69DB689847326805985368E3
:1074D400E7B2B3FBF0F3BB42916904F1010442D873
:1074E400CB680020984733689B695B68984731688C
:1074F400286812F041FA04460026DFF88891002C2F
:1075040053D1564B4FEA8608F35C002B31D1A24687
:10751400534BF35C0193534B03EB080B019B5FFA52
:107524008AF7BB42286853D84F4BF35C002B3CD0FE
:107534004C4B019F9844FBB27E2B286835D8D8F871
:10754400003003AA07EB030A514602AB12F04EFCCB
:1075540048452AD05146286812F08EFC013704466B
:107564000028E8D021E012680B6907FB0020984747
:10757400ABE73C4B03AA53F82670286802AB3946A4
:1075840012F034FC484507D078B9039B012B0CD08A
:107594003946286812F070FC344B394653F80830E9
:1075A40028681A6812F04CFB04460136242EA6D132
:1075B400B4FA84F32E4A5B0913702E4B9C4241D0DB
:1075C4002DD8002C32D0013B9C423FD0C5242DE065
:1075D400DBF8003003AA1F44394602AB12F006FC64
:1075E40048450AD010B10AF1010A97E7039B8BB909
:1075F400214B029AF35C9A42F5D01F4B1B4A9B5DC8
:1076040052F808203946286812F08CFA0028EAD08B
:10761400044689E73946286812F02EFCEDE7174B3B
:107624009C4211D004339C42D0D1C1242B681B7CD2
:1076340023B14FF489711248FEF7CAFF204609B0FE
:10764400BDE8F08FC324F1E7C424EFE7C224EDE7DB
:10765400C624F3E7101E00200C1E00208C0A030031
:10766400D8090300D40A0300B00A0300FC0903008C
:10767400602B002002E000F0640B030004E000F043
:10768400181A03000BE000F0232970B506460C46D7
:1076940015461AD8144A127822B3144A1068144AA8
:1076A40052F82110134A125D3AB1324612F016FB19
:1076B400C0B1BDE87040FDF742BB7F2D08BF002577
:1076C4003246294412F078FAF2E7FF2903D9BDE8DB
:1076D4007040FFF7B5BB40F24511BDE87040064865
:1076E400FEF776BF70BD00BF602B00200C1E00208B
:1076F400D40A03008C0A0300181A03002328F8B5DF
:1077040004460D46164619D81449097829B3144974
:10771400144F0868144951F824103C5D3CB11268B8
:1077240012F08EFAC8B1BDE8F840FDF708BB7F2D12
:1077340008BF0025294412F0F5F9F3E7FF2805D91D
:107744001A463146BDE8F840FFF79EBB4FF4BC71C2
:10775400BDE8F8400548FEF73BBFF8BD602B0020AC
:107764000C1E00208C0A0300D40A0300181A03001C
:1077740008B5084B1B7863B1074B002253F820105F
:10778400064B186812F0EAFA18B1BDE80840FDF794
:10779400D6BA08BD602B0020D40A03000C1E0020BA
:1077A40070B5164685180AB9304470BD01F00F0350
:1077B4000A2B34BF30243724013A2344090905F83D
:1077C400013DD2B2EFE70000F0B5F9B100281CDAB0
:1077D4002D23B0F1004F137000D04042012115E079
:1077E400801B8642ECB205F10105F9D904B927B131
:1077F40001274D1C30345454E9B20133092B09D10B
:10780400303050540131C8B2F0BD002100231F466E
:10781400DFF808C05CF823600025E2E7901A030053
:107824002DE9F04F4FF0000B95B002AC81468A462B
:1078340017461D465E46A0463B7863B902ABE41A80
:10784400E4B2224619465046C847002840F09380C7
:107854003444E0B290E0252B13D0BBF1000F14D1D7
:107864002370013412AB9C426DD3A4EB0804E4B240
:10787400224641465046C84700287CD12644F6B2E9
:1078840060E0BBF1000F00D101373B78632B00F0BF
:1078940092801BD8392B09D8302B80F09E80002B86
:1078A400CCD0252B51D04FF0000BDBE7582B00F048
:1078B4008B80622BF7D14FF0000B2B6801936B6820
:1078C4000093009B9B4543D10835ECE7702B1ED0F9
:1078D40017D8642B01D06C2BE5D16C2B05F1040B6C
:1078E40028686CD17B78752B14BF0121002101D04D
:1078F400642B00D101372246FFF766FF04445D463E
:10790400D1E7752BE9D0782B5ED0732BCBD1A4EBC8
:107914000804E4B2224602A9504605F1040B2D687E
:10792400C84740BB2644F6B2C4B22B5D0130002BDD
:10793400FAD1224629465046C847E0B95D468346F7
:107944002644F6B24446013776E723700134AAE7A9
:10795400019B204613F80B100222FFF721FF12AB04
:10796400984204460ED3A0EB0804E4B222464146F2
:107974005046C84718B1002015B0BDE8F08F264422
:107984004446F6B2009B013B5B4582BF2023237033
:10799400013412AB9C420BD3A4EB0804E4B222469C
:1079A40041465046C8470028E5D126444446F6B22D
:1079B4000BF1010B85E72B6804352370C6E7752BA3
:1079C4000CBF0021012196E7204602222978FFF707
:1079D400E7FE05F1040B044691E77A7802F0DF0232
:1079E400582A19D1322B07F1010B09D10422204660
:1079F40029882F1DFFF7D4FE3D4604465F4652E713
:107A0400342B09D12F1D2D680422290C2046FFF7A1
:107A1400C7FE0422A9B2EDE74FF0010B22E70EB432
:107A240003B503AA52F8041B019206F061FFC0B229
:107A340002B05DF804EB03B0704700000149FFF7A2
:107A4400EEBF00BF200603000EB433B505AA52F8FA
:107A5400041B0546019206F04BFF04462846FFF737
:107A6400EDFFE0B202B0BDE8304003B0704708B5A6
:107A740006F03EFFC0B208BD2DE9F04F9B46584BBF
:107A840085B01B78064689461546109F9DF844A08C
:107A9400DDF85080002B00F09280072A00F29180DC
:107AA4000E9B002B00F08D800F9B002B00F0898033
:107AB400129BB3F5006F00F38480012801D1002FDD
:107AC4007FD0484B03EB05131B7B002B7BD0464C2C
:107AD40010220021684628F05BFD04EB45141022B7
:107AE400B9F1000F5CD14946204628F051FDA37836
:107AF40043F01003A370E37843F03003E370BAF16A
:107B0400000F03D1DBB243F00303E37036496A018B
:107B1400129B885A013B63F30E100E9B01EB020C7F
:107B24008852CCF808300F9B9DF84C10CCF80430E8
:107B34009CF80330012E61F38303CDF800B08CF878
:107B4400033042D113230CF1100ECCF80C309CE816
:107B54000F008EE80F006FF00301DCF81C20B9F170
:107B6400010F61F39F02CCF81C20CCF8147004D1EF
:107B74000F9BCCF80470CCF81830002719492A015F
:107B84008B1841F80280159A28465A609F605E73EC
:107B94002246694602F016FB384605B0BDE8F08F70
:107BA4000021204628F0F4FC1023A3700323E37083
:107BB400BAF1000FAAD1DBB243F03003A5E70B48BA
:107BC400EBE70B48E9E70B48E7E7B8F1000FD4D13E
:107BD4009CF8023068F304138CF80230CDE700BF40
:107BE400E42C0020642B0020E42B0020028000F011
:107BF400018000F0078000F038B5104B05461B7873
:107C0400BBB1C0B102F069F900230D4901EB0312C5
:107C1400147B3CB92B6001231460137302F063F9E5
:107C2400204638BD0133082BF0D102F05CF9054839
:107C3400F7E70548F5E70548F3E700BFE42C002023
:107C4400642B0020048000F0028000F0018000F02A
:107C540038B502F042F9002305460A4AD1180C7BD4
:107C64005CB91033802BF9D102F05EFA064B28463A
:107C74001C7002F038F9204638BD284602F033F96A
:107C84000248F9E7642B0020E42C0020058000F072
:107C94000D4B10B51B78044693B1072812D802F097
:107CA4001CF90A4B03EB04131A7B2AB100241C733E
:107CB40002F019F9204610BD02F015F90448FAE75C
:107CC4000448F8E70448F6E7E42C0020642B00207D
:107CD400068000F0028000F0018000F0164B13B51E
:107CE4001868002301908DF8043002F0F6F8134B65
:107CF4001C7824B102F0F7F8114802B010BD01223B
:107D04001A7002F0F0F80F4B1C731C7783F82C40A8
:107D140083F83C4083F84C4083F85C4083F86C4023
:107D240083F87C4004230DEB03008DF8073002F048
:107D34001FFA2046E1E700BFB41A0300E42C002038
:107D4400038000F0642B002010B588B00E9C0092D4
:107D540007940D9C024606949DF8304005940B9CB4
:107D640004949DF8284003940024CDE9013420466E
:107D74000B462146FFF780FE08B010BD10B588B051
:107D84000E9C009207940D9C024606949DF8304088
:107D940005940B9C04949DF8284003940024CDE999
:107DA400013420460B460121FFF766FE08B010BDE2
:107DB40008B50A4B1B785BB107280BD8084B03EBBB
:107DC40000131B7B43B1002102F0C2F9002008BD5F
:107DD4000448FCE70448FAE70448F8E7E42C0020E8
:107DE400642B0020028000F0018000F0078000F086
:107DF40008B50A4B1B785BB107280BD8084B03EB7B
:107E040000131B7B43B1012102F0A2F9002008BD3D
:107E14000448FCE70448FAE70448F8E7E42C0020A7
:107E2400642B0020028000F0018000F0078000F045
:107E340008B50A4B1B7853B107280AD8084B03EB43
:107E440000131B7B3BB102F00DFA002008BD05486E
:107E5400FCE70548FAE70548F8E700BFE42C0020F2
:107E6400642B0020028000F0018000F0078000F005
:107E74000D4B1B7893B1072812D889B10B4B03EB38
:107E840000131B7B73B10A4BDA6A012303FA00F077
:107E940010401ABF00200B700870704705487047E7
:107EA4000548704705487047E42C0020642B0020E7
:107EB40000000440028000F0018000F0078000F020
:107EC4000B4B10B51B780C4663B107280CD859B17D
:107ED400084B03EB00131B7B43B102F0D5F9206080
:107EE400002010BD0448FCE70448FAE70448F8E71A
:107EF400E42C0020642B0020028000F0018000F0BC
:107F0400078000F02DE9F843174B1F6D5B6D1F4090
:107F140000D5FEE701260025144CDFF85480DFF875
:107F24005490374217D02368C8F800609BB1A16809
:107F340062680131A16028469847637B012B0AD10E
:107F440048B909EB4513197B1A7F60F3410160F3CB
:107F5400410219731A770135082D4FEA460604F1D8
:107F64001004DED1BDE8F88300000440642B002037
:107F740050200440E42B002070B504460125084E2F
:107F840004B970BD94FAA4F0B0FA80F005FA00F3D5
:107F940024EA030456F82030002BF1D09847EFE789
:107FA400E82C00204FF00072044BC3F880211A60C3
:107FB4004FF08062C3F880211A60704700E100E04E
:107FC40038B504460D4601F088FF034B43F82450AE
:107FD400BDE8384001F087BFE82C0020084BD3F8F7
:107FE4002404D3F82024104042F2204220F42A50E2
:107FF40020F02A004004400C9850FFF7BDBF00BF9A
:1080040000C00340084BD3F82404D3F820241040C4
:1080140042F2204220F4AA4020F055000004000C53
:108024009850FFF7A9BF00BF00C00340104A30B505
:10803400136841611546ABB91060836011E0091BF8
:108044009C6841611A467CB123465C698C42F6D92E
:10805400002CF4D052B19060836013B15A69511A64
:10806400596130BD0022F0E72346F4E72860F3E7C6
:108074003C2D002010B500F0AFFA094B094A1968ED
:1080840031B11368C41A4B69A34203D31B1B4B6160
:10809400106003E0C01A002310604B6110BD00BFE4
:1080A4003C2D00202C2D0020074B10B51B6802200E
:1080B4005C69064B1B681C4400F0C2FA2046BDE80C
:1080C400104000F091BA00BF3C2D00202C2D002060
:1080D40070B59DF81450164605710025049A856004
:1080E400BDF818500446C5800260C0E903360D4649
:1080F40029B961610BB11146984796B1354601F033
:10810400ECFE0646FFF7B6FF29462046FFF78EFF32
:10811400054B1B68A34201D1FFF7C6FF304601F0AF
:10812400E2FE002070BD00BF3C2D002000210C4A5F
:1081340013687BB183420AD1836879B18B60836809
:108144001BB15A6941690A445A61002070471946B3
:108154009B68EEE70028EFD0022070471360EEE73B
:108164003C2D002070B501F0B8FE114D06462C7868
:10817400CCB9104B1C60104B1C60104B1C8000F0E1
:10818400F1F9012000F05CFA00F0A8FA0C4B024669
:10819400186040F2E73123460A4828F01DF80A4BDC
:1081A400186001232B70304601F09DFE002070BD45
:1081B400282D00203C2D00202C2D0020342D0020C3
:1081C400382D002018FCFFFF302D00202DE9F04150
:1081D4000546F8B101F081FE0F4F0646FFF74AFF4E
:1081E4002846D7F80080FFF7A1FF044628B130469F
:1081F40001F079FE2046BDE8F081A8453B6803D133
:1082040023B1FFF751FFF2E7002BF0D1022000F079
:1082140023FAECE72224EDE73C2D0020F0B50D46CF
:1082240085B016461F46044680B1FFF7CFFFBDF860
:108234002C30002202939DF828302946CDE90073A2
:1082440020463346FFF744FF05B0F0BD2220FBE78C
:1082540038B50C46054698B191B100230B7001F076
:108264003CFE0121074B1B680BB122781AB101F0C7
:108274003AFE002038BD9D420CBF21709B68F3E795
:108284002220F7E73C2D0020F0B51F46002387B0DD
:108294000D4616468DF817300446A0B10DF11701AE
:1082A400FFF7D6FF9DF817207AB9BDF83430294678
:1082B40002939DF830302046CDE900733346FFF732
:1082C40007FF07B0F0BD2220FBE70320F9E7000019
:1082D400F8B50C460646C8B1C1B101F0FEFD05462D
:1082E400FFF7C8FE73692360134B1B68B3420FD0BA
:1082F40023B9284601F0F7FD03201CE059692268E0
:108304009B680A442260F1E700230FE0222012E078
:10831400276800F061F9094E3368C01A8742F3D91F
:1083240000F05AF93368C01A23681B1A28462360E0
:1083340001F0D9FD0020F8BD3C2D00202C2D00209B
:1083440070B501F0CAFD064600F046F9094B054632
:108354001C880120A4B200F097F918B100F03CF990
:1083640005460134304601F0BEFD0022214642EAB2
:10837400050070BD342D00200A4B10B51B680C4657
:1083840083420CD3084B4FF47A7219680023A0FB84
:10839400010127F021FF01302060002010BD2120C1
:1083A400FCE700BF302D0020382D0020104B10B505
:1083B4001A684FF47A73A0FB0301A2B1531E13424F
:1083C40011D1B2FA82F2C2F11F02C2F12004A2F169
:1083D400200301FA04F420FA02F2224321FA03F3FF
:1083E40042EA030010BD002327F0F6FEFAE700BFBF
:1083F400382D0020F8B516461BA3D3E900238B4281
:1084040008BF82422AD3174B1A684FF47A73A0FB31
:10841400034503FB0155C2B1531E13EA020014D1F4
:10842400B2FA82F2C2F11F02C2F12007A2F12001C6
:1084340024FA02F305FA07F73B4325FA01F10B434B
:1084440025FA02F2C6E90032F8BD00232046294687
:1084540027F0C2FEC6E900010020F5E72120F3E77A
:10846400AFF30080382D0020EFA7C64B37894100B9
:10847400C2072DE9F84F04460BD5374A1388013358
:108484009BB21380FFF7F6FD344B1B680BB1FFF76B
:108494000BFEA3075DD500F09FF8314E0746356803
:1084A4004FF0000A451B01F018FD8046DFF8AC9040
:1084B400D9F80040002C48D06369AB4209D95D1B50
:1084C40065613760FFF7F0FD4046BDE8F84F01F005
:1084D4000ABD23462A4637605969914209D818795A
:1084E40094F804C0521A844588BF1C469B68002B2C
:1084F400F2D1404601F0F7FCD4F81480C4F814A07B
:1085040001F0EBFC83462046FFF710FE584601F0CD
:10851400EAFC23694BB101F0E0FC83462169204663
:10852400FFF784FD584601F0DEFCE36813B12168CF
:108534002046984700F050F84744ED1B0446054494
:1085440001F0CBFC27468046B2E7022000F084F815
:10855400BAE7BDE8F88F00BF342D00203C2D002081
:108564002C2D00201FB50024184B18689A880290FF
:1085740053F8060FADF80C201B79009002A88DF873
:1085840004308DF808408DF80C4001F007FF69466F
:1085940001208DF8004001F0C5FE4FF090431F21EB
:1085A4009A6922F01F029A61094A11609A6A12F0CC
:1085B4000802FBD11A62012001F0CEFE4FF4806262
:1085C400044BC3F880211A6004B010BDB81A03002C
:1085D4001420004800E100E04FF090439A6A12072B
:1085E400FCD4186A704700004FF09042936A190750
:1085F400FCD4136A116C5269120704D4CA1A022AF1
:1086040001D899420ED1C21A012A98BF981CB0F120
:10861400FF3F28BF01304FF0904318649A6942F03D
:1086240008029A61054A13783BB14FF09041CB6B35
:1086340043F00203CB63002313707047F01D002046
:1086440082074FF0904200F00103916948BF43F064
:1086540008030B4393617047830700F001020AD5B6
:108664000121084B42F0080219704FF09041CB6B86
:1086740023F00303CB634FF090418B6923EA020399
:108684008B617047F01D00204FF0904301285B6917
:1086940004D0022805D1C3F3C000704703F00100E1
:1086A400704700207047000010B501F016FC4FF031
:1086B400904304465B691A07074A03F0010003F07C
:1086C4000D0348BF40F002001360FFF7D1FE2046BF
:1086D400BDE8104001F007BC142000481B2001F045
:1086E4000DB90000002211462D48F0B503682D4D48
:1086F40054592CB11E68AC18002E3DD123460121DB
:108704000832282AF4D101B1036000221446264914
:10871400264E0B6895592DB11F68B518002F32D11C
:108724002B4601240832282AF4D104B10B600068D6
:108734000368002B2FD04FF04022936F007923F071
:10874400FF7323F4803343EA00439367184B4FF0DD
:10875400004209681A600B68FBB14FF04022936F26
:10876400097923F4FF7323F001030B439367104B40
:108774004FF080421A60F0BD1E792779B74284BF5A
:1087840023460121BCE71F7995F804C0BC453CBFD2
:108794002B460124C6E7074BD9E7064BE8E700BFA1
:1087A400442D0020542D0020482D00207C2D002035
:1087B400685000406860004010B5012228240F4B27
:1087C40000211A700E48224627F0E2FE22460021BC
:1087D4000C4827F0DDFE0C4B0C4A13600C4A136066
:1087E4004FF040430B4A1360536020220A4BC3F8F6
:1087F40080211A60FFF776FF002010BD402D002075
:10880400542D00207C2D00204C2D0020442D0020D0
:10881400482D00206460004000E100E04FF0402259
:10882400D2F88800D2F88830C0F38800C3F38803F4
:108834009842F5D16FF48873184440B27047000031
:108844004FF04022936E526E10B5134013F08042E5
:1088540011D0114B1B681C682CB1002119605960A0
:10886400FFF7DCFFA0474FF080420C4B1A60BDE8D5
:108874001040FFF737BF002BF9DA094B1B681C685F
:108884002CB11A605A60FFF7C9FF0121A047034BBE
:108894004FF00042EAE700BF482D0020646000402A
:1088A400442D0020FFF7CCBF012203685A619A6966
:1088B400D207FCD541F2AC52042103795B0103F1E8
:1088C400804303F5703399507047000038B141B1CB
:1088D400013AB2F5006F044838BF002070470348DE
:1088E40070470148704700BF037000F0027000F049
:1088F40038B504460D4601F0F0FAA28892B222B9C6
:108904002A6001F0F0FA064838BD1422638802FB9D
:10891400034308332B6001F0E6FA0020F4E700BFBC
:108924000B7000F038B504460D4601F0D6FAA38862
:108934009BB223B92B6001F0D6FA0C4838BD14223F
:108944006388E18802FB034308332B6063885A1C65
:1089540092FBF1F301FB13239BB26380A388013BD9
:108964009BB2A38001F0BFFA0020E7E70B7000F090
:1089740090F83130022B0BD13022437F90F8210044
:108984005A43044B9B5823FA00F000F0010070474F
:108994000020704714C00340002313B51C4A52F84A
:1089A400234094F8211081420ED00133042BF6D1D8
:1089B40002B010BD0028FBD19DF80730002BF7D082
:1089C400A068FFF7F5F9F3E794F83130022BEFD103
:1089D4002046FFF7CDFF637E2076022BE8D194F882
:1089E4002E3003F0FF02002BE2D102A901F8012D81
:1089F400A068FFF73DFA237E1BB194F82F30002BBB
:108A0400D8D00023A06884F82F30FFF7F1F9CFE71E
:108A1400A42D0020012230B590F8324087B080F8B0
:108A24002C207CB9094D0368CDE9024504904C68BB
:108A34002433CDE900240A684169C068FFF79EF930
:108A440007B030BD002380F82C30F9E7059300000F
:108A5400012330B590F8324087B080F82D307CB9CE
:108A6400094D0268CDE9024504904C683C32CDE9D9
:108A740000340B6801698068FFF766F907B030BD00
:108A8400002380F82D30F9E7918A0000F7B5906A49
:108A940001A91446FFF72CFF144B984220D000255F
:108AA400019B1D619D6001F018FA019A0746D66882
:108AB40026B1D2E9002329462046B04701A9A06A7D
:108AC400FFF730FFA06A83889BB263B101A9FFF767
:108AD4000FFF01992046FFF7BBFF384601F003FA68
:108AE400012003B0F0BD84F82D30F6E70B7000F0E0
:108AF400F8B5044617460D4601F0EFF9A388E2885D
:108B040006469A4205D800233B6001F0ECF916486A
:108B1400F8BD1422238805F1100C02FB034308332B
:108B24002A4603CA624518605960154603F10803D2
:108B3400F6D11068142218602388E18802FB0343ED
:108B440008333B60238830465A1C92FBF1F301FB47
:108B540013239BB22380A38801339BB2A38001F02B
:108B6400C2F90020D4E700BF0A7000F02DE9F341F8
:108B74000D460446002800F0868001F0AEF9012D70
:108B8400064637D1A36A9B889BB2002B39D0A068D4
:108B9400FFF74EF90023A06A84F82D3083889BB236
:108BA400002B34D1226893699B04FCD5023D012D2E
:108BB4001BD8E068FFF73CF90023606A84F82C3086
:108BC40083889BB2002B41D194F83130032B0CD015
:108BD40042F2AC52042123795B0103F1804303F593
:108BE40070339950022223685A61304601F07BF9B0
:108BF400002009E0022D48D1636A9B889BB2002BB8
:108C0400D4D101F070F9264802B0BDE8F08101A981
:108C1400FFF76EFE0199A0680831FFF751F9214F63
:108C2400019B1F61A06A83889BB2002BBAD001A963
:108C3400FFF778FE019BD3F80C80B8F1000FF1D058
:108C44009B68002239462046C047EBE76946FFF798
:108C54004FFE0099E0680831FFF732F9114F009B8D
:108C64001F61606A83889BB2002BADD06946FFF711
:108C740059FE009BDD68002DF3D09B680022394625
:108C84002046A847EDE70848BEE7032D8ED1A36A26
:108C94009B889BB2002B7FF47AAF636A73E700BFB3
:108CA400087000F0097000F0027000F00368986921
:108CB4007047436A9888C0B270472DE9F3419846DB
:108CC40000230546406A0E4684881746A4B2CDE9BF
:108CD40000333CB16946FFF70BFE01A90446E8687E
:108CE400FFF7EEF8009969B164B94868019BC01AAE
:108CF4003860C8F800300B6833602B68986902B09C
:108D0400BDE8F0810021C8F8001039603160F4E753
:108D1400836A9888C0B270472DE9F34198460023CE
:108D24000546806A0E4684881746A4B2CDE900330E
:108D34003CB16946FFF7DCFD01A90446A868FFF7CA
:108D4400BFF8009969B164B94868019BC01A3860DA
:108D5400C8F800300B6833602B68986902B0BDE82E
:108D6400F0810021C8F8001039603160F4E7007E1A
:108D740070472DE9F04104460F469046FFF7A6FDE3
:108D84000546002839D1152001F0CCF80646A26A20
:108D940093889BB213B194F82E308BB323689E69E9
:108DA40016F002060ED104225A619A699207FCD584
:108DB40041F2AC52102123795B0103F1804303F5A6
:108DC40070339950012384F8303094F8323033B939
:108DD400B8444745206818D183699B06FCD566B919
:108DE40042F2AC52102123795B0103F1804303F575
:108DF40070339950082223685A612846BDE8F081EF
:108E0400002EC5D0FFF77EF8C1E717F8011B01F06B
:108E140049FDDEE710B5044680B190F82E302BB939
:108E2400FFF7A6FD10B9A068FEF7C2FF002094F872
:108E34002E300133DBB284F82E3010BD0048FCE73D
:108E4400027000F010B50446A0B190F82E309BB12A
:108E540090F82E30012B05D1FFF78AFD10B9A068D8
:108E6400FEF7C6FF002094F82E30013BDBB284F8F5
:108E74002E3010BD0148FCE70148FAE7027000F00B
:108E8400057000F037B590F831500446022D1ED11C
:108E9400012190F82220457E837F01FA02F23020DE
:108EA400154925B900FB031342F2100105E0012D19
:108EB40007D100FB031341F210015A50002003B004
:108EC40030BD247E00FB0313002CF4D1ECE7012D0C
:108ED400F4D1037E73B911238DF80730FFF79AFF9D
:108EE4002A460DF107012046FFF743FF2046FFF70E
:108EF400A9FFE3E71323EFE700C00340F0B50446FE
:108F04008BB09E4F03AE0D460FCF0FC697E80700F8
:108F140086E807001CB99A4C20460BB0F0BD0DB989
:108F2400984CF9E738220021204627F031FB964976
:108F3400964A0B78002B40F0D3800120C2E900331D
:108F4400C2E90233087042F823402B7D286884F874
:108F540031300023206084F832302B7B23718C4B1A
:108F6400984240F0CA80202384F82330894B23613F
:108F74004FF4802300266361D5E9072362621680DB
:108F84005680968084F82C60A3621E805E809E804A
:108F94006B6803A90593EB8984F82D60ADF81C3048
:108FA4002B8A84F82F60ADF81A30AB7C8DF80C60F6
:108FB4008DF81830EB7C8DF81E3005238DF81930B0
:108FC40001F0F2FB14212A7B734B287A03EB42173E
:108FD400C7F8AC15A97A2E3240EA014C03EB4213D0
:108FE400C3F804C06A7AEB7A42EA034CC7F8BCC5FA
:108FF400E17784F820306B7DE07622776377AB7D70
:10900400042284F82130EB7DA3772B7E84F8223070
:10901400012301F047F80123022294F82010207F55
:1090240001F040F894F83130022B7DD1334601220F
:1090340094F82110607F01F035F83346042294F847
:109044002210A07F01F02EF8012394F82120607FE4
:109054001146CDE9003300F0DFFF00F03EFF2E7D26
:109064000746032E71D141F2AC5202212B7B04201E
:109074005B0103F1804303F57033995041F25C02C4
:1090840029688850297EEA7D42EA014241F2B851BA
:109094005A50A97D6A7D42EA014241F2B4515A50C4
:1090A4004FF0FF3242F248032868C2502B7D032B55
:1090B4000CBF0521042101F031FB4FF440622B6801
:1090C4005A61FEF70BFE002104F10800FEF794FD3F
:1090D400014600284AD0314C384600F004FF1BE713
:1090E400002352F8231000293FF42DAF8C423FF4A3
:1090F4002AAF0133042BF4D10DE7294B984207D151
:10910400212384F82330274B23614FF4A02331E734
:10911400254B98427FF404AF222384F82330234B59
:1091240023614FF4C02325E7032B96D1334694F8EB
:109134002110607F012200F0B5FF3346042294F829
:109144002210A07F00F0AEFF87E7022EA8D194F88A
:1091540021001749FEF734FFFEF724FF002366764B
:10916400A37623762046FFF78DFE99E704F10C00E1
:10917400FEF742FD04460028AED0ACE7C41A030053
:10918400027000F0037000F0B42D0020A42D002024
:10919400008005400200040000C003400E7000F08F
:1091A40000C0054002000500000006400200060061
:1091B4009D89000090F83130032B05D002294176B7
:1091C40018BF0176FFF75EBE00487047057000F0D7
:1091D40013B50446002862D00321FFF7C7FC002121
:1091E4002046FFF7E7FF0023E17F1A46E07E00F008
:1091F40059FF002394F820101A46207F00F052FFF4
:1092040094F83130022B39D1002394F821101A46F6
:10921400607F00F047FF002394F822101A46A07FD5
:1092240000F040FF0021012394F82120607FCDE964
:109234000031114600F0F0FE94F8323013B90A22DE
:1092440023685A6194F83130032B04D0002194F838
:109254002100FEF7B5FEA068FEF71AFDE068FEF7F0
:1092640017FDFEF7F5FC0020636A1880588098808B
:10927400A36A18805880988002B010BD032BDBD1FC
:10928400002394F821101A46607F00F00BFF00239E
:1092940094F822101A46A07F00F004FFCCE701489E
:1092A400EAE700BF027000F0F0B587B00446164646
:1092B400FFF70CFB0546E8B90493104BCDE9011602
:1092C4006A4601A9606A03960593FFF711FC0546F7
:1092D40080B994F82C306BB92046FFF7E5FA009971
:1092E400FFF798FB94F83130032B03D02576204602
:1092F400FFF7C8FD284607B0F0BD00BF017000F0BD
:1093040073B5506A01A91446FFF7F2FA2F4B98423D
:1093140030D094F83200019B002839D12268916C36
:1093240011F4007129D02A499860196142F2480366
:109334004FF40071D15000F0D0FD01990646CD687C
:1093440035B14A688B682046D31A0A680969A84768
:1093540001A9606AFFF7E6FA606A8588ADB2DDB1FB
:1093640001A9FFF7C5FA01992046FFF753FB3046E0
:1093740000F0B9FD012002B070BD906CC00507D5A6
:109384001448996018614FF4807142F24803D1E7A0
:1093940000221A619A60CEE7012320462376FFF764
:1093A40071FD94F8313084F82C50032BDFD042F255
:1093B400AC52042123795B0103F1804303F570333C
:1093C4009950022223685A61D1E700BF0B7000F064
:1093D4000D7000F00C7000F090F8312010B5012AE7
:1093E400034610D102290ED0827E8A4201D1002088
:1093F40010BD997611B9FFF725FDF8E70129F6D1DB
:10940400FFF708FDF3E70148F2E700BF057000F03D
:10941400F0B587B004461646FFF758FA054600BB78
:109424000493114BCDE901166A4601A9A06A03967B
:109434000593FFF75DFB054698B994F82D3083B981
:1094440000F04BFDA36A06469B889BB233B100999A
:109454002046FFF7FDFA012384F83030304600F04F
:1094640042FD284607B0F0BD017000F070B588B029
:109474000E22002104A827F08BF801230D220021DD
:1094840068468DF8103027F083F80223244C6A468E
:10949400002120468DF8063001F0A4F8236B4FF626
:1094A400FF73204EE36100233546ADF8123004A962
:1094B400204601F04AF8062000F020FABDF81230E8
:1094C4000133B0FBF3F09BB2B3F5806F3060ADF8BD
:1094D400123002D2144B9842E9D80E2000F00EFA52
:1094E4001249134CB1FBF0F128680025E1FB00455B
:1094F400104A00232046294626F06EFE0E4B084AE9
:10950400186000200D4B1870936923F010039361C9
:1095140040220B4BC3F880211A6008B070BD00BF15
:1095240000800440B82D002080841E0000B0710B20
:1095340020A1070040420F00BC2D0020C02D0020B8
:1095440000E100E0F7B500251D4B1E4C19681E4ACA
:10955400E0FB014500232046294626F03DFE4FF658
:10956400E85400254FF6E75E4FF0FF37DFF860C0A0
:10957400164E8D4208BF844211D380B260B1144AA2
:10958400516A89B2536A9BB2ADF80630BDF8063011
:109594005B1A9BB29842F5D8002003B0F0BDDCF80A
:1095A400242092B2DCF824309BB2ADF80430BDF82C
:1095B40004309B1A9BB27345F4D980197941D8E7DA
:1095C400B82D002020A1070040420F001802FFFF21
:1095D40000800440054B5A69D20606D542F21402B3
:1095E400102199500122024B1A70704700800440E8
:1095F400C02D002038B5124B0546D3F820310C4657
:1096040003F00703013B032B17D8DFE803F0020A3A
:109614000E1201F001FA042305B1286004B123708D
:1096240038BD01F0E3F90323F6E701F001FA05235D
:10963400F2E701F0F9F90223EEE700231846EBE71D
:109644000080004037B50C460021114B0191D3F83E
:109654008031054603F00303022B0ED0032B11D0F7
:10966400012B03D101A8FFF7C5FF0D210DB1019B0B
:109674002B6004B1217003B030BD01F0D9F905218C
:109684000190F3E701F0D0F902210190EEE700BF69
:109694000080004038B5104B0546D3F840310C46E5
:1096A40003F00303022B0BD0032B0DD0012B0FD19E
:1096B40001F002FA082305B1286004B1237038BD13
:1096C40001F000FA0723F6E701F0F9F90923F2E7BC
:1096D40000231846EFE700BF0080004038B5104B68
:1096E4000546D3F860310C4603F00303022B0BD07C
:1096F400032B0DD0012B0FD101F0DEF9082305B1A6
:10970400286004B1237038BD01F0DCF90723F6E7C3
:1097140001F0D5F90923F2E700231846EFE700BF6B
:109724000080004038B5134B0546D3F800320C4690
:1097340003F00703013B032B18D8DFE803F0020A08
:109744000E1201F0B9F9082305B1286004B12370A1
:1097540038BD01F0B7F90723F6E701F0B0F90923A2
:10976400F2E701F02DF90C23800AEDE700231846F7
:10977400EAE700BF0080004038B5134B0546D3F834
:1097840008320C4603F00703013B032B18D8DFE82B
:1097940003F0020A0E1201F08FF9082305B12860C4
:1097A40004B1237038BD01F08DF90723F6E701F009
:1097B40086F90923F2E701F003F90C23800AEDE7A7
:1097C40000231846EAE700BF0080004038B5104B7C
:1097D4000546D3F840320C4603F00303022B0BD0AA
:1097E400032B0DD0012B0FD101F066F9082305B12D
:1097F400286004B1237038BD01F064F90723F6E74B
:1098040001F05DF90923F2E700231846EFE700BFF2
:109814000080004038B5104B0546D3F800310C46A3
:1098240003F00303022B0BD0032B0DD0012B0FD11C
:1098340001F0DCF8032305B1286004B1237038BDBE
:1098440001F040F90723F6E701F0ECF80623F2E70C
:1098540001230020EFE700BF0080004041F6713291
:109864000F4B10B5D969DA639A680E4C22F4401292
:10987400A04288BF42F480129A600B4A0B4CD2F883
:109884001832A04223F0020388BF43F0020301F41C
:109894008031C2F8183211B10022014BDA6310BDD5
:1098A40000000340C017530200C0074080F0FA02D2
:1098B40008B501F097F8BDE80840FFF7CFBF0000F6
:1098C40002280CD007D8012814D10B4B186FC0F311
:1098D400013001307047032807D00E28F4E7064B07
:1098E400D3F89000C0F30460F3E7034B186FC0F3A0
:1098F4008020EEE70020ECE700800040002307B55D
:109904000193242817D8DFE800F0131A1D262B35FD
:109914003A3F44494E5358661A3F1616441A262BAA
:1099240026351A3F26663A3A3A3A262626494E0002
:1099340001F02CF80190019803B05DF804FB01F0EC
:109944003FF8F7E701F022F802460220FFF7B8FFDC
:10995400B2FBF0F0EEE701F033F802460320F5E73E
:1099640001F02EF802460320FFF7AAFFB2FBF0F045
:109974004008DFE7002101A8FFF764FEDBE70021D0
:1099840001A8FFF737FED6E7002101A8FFF782FE02
:10999400D1E7002101A8FFF7A1FECCE7002101A82F
:1099A400FFF7C0FEC7E7002101A8FFF7E5FEC2E705
:1099B400002101A8FFF72EFFBDE7094BD3F8803043
:1099C40003F00303022BBAD0032B01D00020B1E72C
:1099D40001F02EF8AEE7002101A8FFF7F7FEAAE791
:1099E4000080004002280AD002D8012804D0704721
:1099F40003280FD00E2815D1084600F02BB80A4AC8
:109A04000139D2F8903023F0F85343EA0161C2F8E7
:109A140090107047044A0139136F23F4806343EABA
:109A240081211167704700BF00800040022103209C
:109A3400FFF7D8BF08B50120FFF760FFBDE8084075
:109A4400034988428CBF022101210320FFF7CABFCA
:109A540080F0FA0210B50446FFF72AFFFFF7E6FF8D
:109A6400074A013C106F20F4405040EA043010676C
:109A740000F0A6FFFFF7F2FEBDE81040FFF7DABFE3
:109A840000800040002307B58DF80730242822D831
:109A9400DFE800F013212121212C32383E444A50C2
:109AA4005669213821213E212121212C2138216987
:109AB40032323232212121444A002E4B1B6F03F0F3
:109AC4000703013B032B06D8DFE803F00E020A0C60
:109AD40004238DF807309DF8070003B05DF804FBFC
:109AE4000323F6E70623F4E70223F2E70DF1070167
:109AF4000020FFF7A7FDEEE70DF107010020FFF7B7
:109B040079FDE8E70DF107010020FFF7C3FDE2E767
:109B14000DF107010020FFF7E1FDDCE70DF107017E
:109B24000020FFF7FFFDD6E70DF107010020FFF746
:109B340023FED0E70DF107010020FFF76BFECAE713
:109B44000C4BD3F8803003F00303022B03D0032B18
:109B540005D00023BDE700F033FF0B23B9E700F085
:109B640067FF0523B5E70DF107010020FFF72EFE7F
:109B7400B1E700BF0080004070B50C46242848D8E7
:109B8400DFE810F0250047004700470047005B006E
:109B94006C007D008E009F00B000C100D200E30085
:109BA40047007D00470047008E00470047004700FC
:109BB40047005B0047007D004700E3006C006C0039
:109BC4006C006C004700470047009F00B0008B1EEC
:109BD400042B2FD8DFE803F02B1E032E28000025CA
:109BE4000226FFF765FEFFF721FF604A136F23F09B
:109BF40007033343136700F0E3FEFFF72FFEFFF77D
:109C040019FF35B9032C04D142F228030121584A23
:109C1400D15070BD41F228020121554B03269D6AA3
:109C24009950C5F34005DCE700250426D9E7002553
