S00B00004C6162312E733337A9
S214000000C01A002065A60100C5310000C9310000F5
S214000010A70B0000000000000000FFFF54000000D7
S21400002004180F00000000000000000000000000A0
S21400003000000000000000000000000000000000BB
S214000040000000000000000000000000A701000003
S20800005000000000A7
S214000054C01A002065A60100C5310000C9310000A1
S214000064A70A0A010002000004180FACA067A70143
S2140000740000000000000000000000000000000077
S2140000840000000000000000000000000000000067
S2140000940000000000000000FFFFFFFFFFFFFFFF5F
S2140000A4FFFFFFFF006007000000000000000000E4
S2140000B4FFFFFFFFFFFFFFFF8000000000000000BF
S2140000C40000000000000000000000000000000027
S2140000D40000000000000000204F0020204F0020F9
S2140000E4C01A0020E0A80300E826030060110020E0
S2100000F42C11002000E0070000000000B7
S214000200C01A002065A60100C5310000C9310000F3
S214000210597F0000CD310000D531000063A60100F3
S21400022063A6010063A6010063A6010063A60100A1
S214000230D931000063A6010063A6010063A6010091
S2140002404C3200004C3200004C3200004C320000B1
S2140002504C320000114E0000415B00004C320000A2
S2140002604C3200004C320000154C000089B80000EB
S2140002704C3200004C3200004C3200004C32000081
S2140002804C3200004C3200004C32000063A60100E5
S2140002904C320000714400004C3200004C3200002A
S2140002A04C32000071450000494500004C32000009
S2140002B04C3200004C3200004C3200003580010009
S2140002C0C17F0100BD7F0100FD7601003180010085
S2140002D0C57F0100E57F0100C97F010063A601001C
S2140002E0798001004C3200004C320000AD34000032
S2140002F04C3200004C3200004C32000063A6010075
S2140003004C3200004C3200004C3200004C320000F0
S2140003104C3200004C3200004C3200004C320000E0
S2140003204C3200004C3200004C3200004C320000D0
S2080003304C32000046
S214000334F8B500BFF8BC08BC9E467047F8B500BFC9
S214000344F8BC08BC9E46704710B5054C237833B9F4
S214000354044B13B1044800E000BF0123237010BD12
S2140003648C230020000000000CA0030008B5034BFB
S2140003741BB10349034800E000BF08BD00000000AD
S214000384902300200CA00300154B002B08BF134B32
S2140003949D46A3F5803A00218B460F461348144A1F
S2140003A4121A32F07BF90F4B002B00D098470E4BF5
S2140003B4002B00D098470020002104000D000D48B3
S2140003C4002802D00C4800E000BF32F029F92000D3
S2140003D429000BF081FC32F00FF900BF0000080082
S2140003E4C01A002000000000000000008C2300203B
S2140003F4204F002000000000000000001FB501236D
S2140004040022009306210DF10F030DF096FD20B98E
S2140004149DF80F3023B102F019FF05B05DF804FB18
S21400042402F015FFF9E7000030B50024144D85B03E
S2140004342C700CF025FB022817D100900DF10E034A
S2140004442246032101200DF078FDBDF80E0048B1C8
S214000454204602F0FDFE4FF47A6128461EF0CEFEDA
S21400046405B030BD02F0F2FEFAE709F0AFF9054B2D
S2140004740090054A054901200EF04EFFF0E700BF44
S214000484F83F002007400300E8260300ED2603009B
S21400049408B50CF0F5FA02280CD10022064B012010
S2140004A41A7007F00DFABDE8084002460349012019
S2140004B40EF032BF08BD00BFF03F00204C270300FB
S2140004C413B5044600900C4B0C4A0D4901200EF05F
S2140004D423FF74B122460B4901200EF01DFF0020B5
S2140004E408F084FB084B0090084A054901200EF0EA
S2140004F413FF02B010BD00BF12270300E826030056
S214000504ED2603001B2703000740030047270300CC
S214000514002307B5044A00930449054B01200EF056
S214000524FBFE03B05DF804FB01270300ED26030081
S21400053412270300FFF762BF09B9FFF75FBF7047D2
S21400054438B5C37B05460BB1832038BDC47C2CB9B3
S21400055401F0C6FE20B9EB7B002BF5D18120F4E731
S2140005642046F2E7C37B10B504460BB1832010BDCA
S214000574C37C1BB1012B10D08120F8E7017D828952
S2140005848B1C9A420CD380680EF009FA07F05CFDC7
S21400059440B9E37B002BE9D1EEE707F06DFDF7E702
S2140005A48020E4E70020E2E7F8B5C37B04460BB1FD
S2140005B48320F8BDC37C052B29D8DFE803F0032A83
S2140005C435414C4F057D8289AB1C9A4201D280206E
S2140005D4EFE7ADB2294680680EF0E1F90646A0685A
S2140005E402352844A7890EF0FFF9284401308742D3
S2140005F4EDD32946A289A0680EF0D8F90146304604
S21400060407F01EFA002848D1E37B002BD0D18120C6
S214000614CFE7017D82898B1C9A42D8D380680EF07E
S214000624BEF907F02DFAEDE7037D81895A1C914245
S214000634CDD38268591C1144D05C07F051FAE1E727
S214000644017D82898B1C9A42C1D380680EF0A7F97B
S21400065407F0C8FAD6E707F021FBD3E7057D8289C1
S214000664AB1C9A42B3D3ADB2294680680EF097F914
S2140006740646A06802352844A7890EF0B5F9284432
S21400068401308742A3D32946A289A0680EF08EF9CA
S2140006940146304607F04AFBB4E7002089E7C37BEF
S2140006A42DE9F7430446002B40F0BA80C37C062BA2
S2140006B400F2B880DFE803F0044A5A6A7585A80099
S2140006C4057D8289AB1C9A4203D2802003B0BDE824
S2140006D4F083ADB2294680680EF061F9A289E91C60
S2140006E48A42064605F10203EFD3881C8242ECD305
S2140006F4A0680535C75C0EF052F98046A068B4F8C9
S2140007040C9028440EF070F9284401308145DCD35F
S2140007142946A289A0680EF049F98146A0682844B3
S2140007240EF062F901300544A0684B4610FA85F5D0
S21400073400954246394630460AF07EFD002873D1BD
S214000744E37B002B14BF83208120BFE7057D8289CD
S214000754EB1C9A42B9D3ADB2294680680EF01FF955
S214000764A3680235595D0AF0E7FDE7E7057D82894F
S214000774EB1C9A42A9D3ADB2294680680EF00FF955
S214000784A3680235595D0AF0D5F9D7E7017D828959
S2140007948B1C9A4299D380680EF001F90AF038FA55
S2140007A4CCE7057D8289EB1C9A428ED3ADB22946EE
S2140007B480680EF0F4F8A3680235595D0AF08EFBE3
S2140007C4BCE7057D8289AB1C9A42FFF47EAFADB2CE
S2140007D4294680680EF0E3F8A289E91C8A42064698
S2140007E405F10203FFF471AFA068C75C8B1C9A4244
S2140007F407D30EF0D4F80246394630460AF0D6FB44
S2140008049CE74FF6FF72F7E7017D82898B1C9A42BC
S214000814FFF45BAF80680EF0C2F80AF061FA8DE769
S214000824832053E7812051E700204FE7C37B10B5B0
S21400083404460BB1832010BDC37C012B0BD003D31D
S214000844022B0BD08120F6E709F07EF948B9E37B4A
S214000854002BEFD1F6E709F087F9F7E709F094F9EA
S214000864F4E70020E7E738B5C37B0446002B437D56
S21400087414BF8325C325012B13D0637DCBB923680E
S214000884228A598858790CF006FE90B123685B8852
S214000894082B0ED8DFE803F00F0D0D14191E230DD8
S2140008A428000368028A598858790CF0FDFD002850
S2140008B4E3D0284638BD2046BDE83840FFF740BEA2
S2140008C42046BDE83840FFF74DBE2046BDE8384018
S2140008D4FFF76ABE2046BDE83840FFF7E0BE204674
S2140008E4BDE83840FFF7A2BFE37B002B14BF832587
S2140008F48125DEE7704701207047012070470120FC
S21400090470477047002070470020704700207047EB
S2140009140020704700207047002070470120704771
S21400092401207047B52070470020704700207047AC
S21400093400207047002070477047002070477047BB
S2140009440020704770470020704784207047704727
S214000954704770477047002070477047704770476D
S2140009640020704700F018BD032070470020704731
S214000974034B1B681878012808BF0220704700BF85
S214000984603800200020704703460120024AC3E96D
S214000994032000221A7070470100FEFF70470020F3
S2140009A470470020704700207047002070470020E2
S2140009B4704700207047002070470020704770473B
S2140009C4B52070470020704700207047704700200D
S2140009D470477047704700207047B52070477047CF
S2140009E47047704700207047704770470023FF2108
S2140009F4084A137082F8783082F8653082F87730C7
S214000A0482F8793082F87A1082F87B30024A1360D2
S214000A14704700BFA823002000400020F8B50D460C
S214000A248C680A6806462849202003F0ACFA6B68EE
S214000A347BB92649202003F0A6FA20200AF008FDF8
S214000A442349202003F0B4FABDE8F84020200AF039
S214000A54FFBC002EF1D01F4D1F4E204F013C14F852
S214000A64013F23B91A49202003F0A2FAE5E7752BC3
S214000A7418D0762B18D0772B18D0732B18D0722B4F
S214000A8418D0712B18D0622B18D06E2B18D02A2BA6
S214000A9418D01349134A212B18BF1146202003F0FF
S214000AA472FADCE72946F9E73146F7E73946F5E70F
S214000AB40D49F3E70D49F1E70D49EFE70D49EDE779
S214000AC40D49EBE70D49E9E77174030000280300BC
S214000AD4B1270300BE270300B2270300C92703007B
S214000AE40A28030007280300D5270300DF2703008E
S214000AF4EA270300F5270300FF2703000428030062
S214000B04F0B50026204A92F87B30184452FA80F05A
S214000B1490F865C090F8665030461C4BA5EB0C0563
S214000B241F78EDB2F4B2A54225D90CEB06031344A4
S214000B345B7811B10CB92D2B17D0782B1FD0582BFE
S214000B4405D108B137240AE0013C012C14D9602BE6
S214000B5417D8402BF6D83A2B34BF302400241B1B5E
S214000B64DBB29F4203D900FB07300136DAE70523E0
S214000B74002082F87930F0BD10270020F5E7002821
S214000B84E2D05724EBE700BFA8230020581C00201F
S214000B94FFF72CBF034B93F8770093F87B30C01A0B
S214000BA4C0B27047A82300200021FFF7A9BF0000A9
S214000BB410B50A4B93F87B20024453FA82F292F85B
S214000BC4652013445C78A4F12D0359425941FFF77C
S214000BD497FF2D2C08BF404210BD00BFA82300205D
S214000BE430B50C4A92F87B300344C043DBB2C00FE6
S214000BF439B1D51895F8664095F86550641B241AE3
S214000C040C7042FA83F393F865301844024B184488
S214000C1430BD00BFA8230020A9230020F7B5154641
S214000C240E460DF107011C46FFF7DAFF9DF8073064
S214000C340746AB4288BF8DF807501CB19DF80740A5
S214000C442C1BE4B222463046002100F079FB301912
S214000C549DF80720394600F017FB9DF8070003B0FF
S214000C64F0BD38B50C4601230822FFF7D7FF04F180
S214000C740803621E043413F8011D12F8015FA34230
S214000C841D701170F7D138BD38B5054601460120F0
S214000C94FFF7C4FED5E901436CB91C46084D23682A
S214000CA463B12946202003F06EF921460020FFF7A1
S214000CB4B5FE0C34F3E71B786E2BEFD038BD00BFBF
S214000CC49940030008B50449202003F05CF9BDE808
S214000CD4084020200AF0BCBB7227030038B5FFF793
S214000CE4F1FF0024054D61190C34631953F80C3CCC
S214000CF403B938BD0020FFF791FEF4E76036030021
S214000D042DE9F84F1F4B204D53F820201F49202073
S214000D1403F039F92B681BB9BDE8F84FFFF7DEBFBF
S214000D241B4FFFF7CFFF0026B946DFF86CA097F8F5
S214000D347B30F4B2013B9C4204DB2868BDE8F84FE4
S214000D44FFF7A2BF47FA86F393F8658000234C4466
S214000D54C84494F8662094F8651003F1010B521AFF
S214000D64DBB2D2B2934205D30A49202003F00BF932
S214000D740136DCE743445A785146202003F003F951
S214000D845B46E6E75C1C0020004000206D2703005D
S214000D94A82300209A4003001C7A03002DE9F74F8D
S214000DA4884C94F87730002B00F0A180864B671CA3
S214000DB41B7813F0010F1FD00025844E14E063192E
S214000DC493F8662093F865302020D21A44FA85F307
S214000DD493F86510D2B239440AF035FB3146202028
S214000DE403F0D1F80135EDB294F87730AB42E6D88B
S214000DF47749202003F0C7F8002694F87730DFF808
S214000E04DCE10193734B4FF00008714645461EF82B
S214000E14012B91F801C007EB020AACEB020C5FFA57
S214000E248CFC1868002852D00138D14619E02AB93B
S214000E34002D4AD04FF001080C33F2E719F8011BD5
S214000E44A1F1410BBBF1190F98BF2031A2F1410B60
S214000E5498BFC9B2BBF1190F9CBF2032D2B28A42E6
S214000E64EAD1A9EB0A01614510F8012FDFD1002A67
S214000E74DED11D46584B01361D6094F87B30F6B221
S214000E84013384F87B30D5E90123002A35D01B785A
S214000E946E2B31D03F2B23D04FF000094FF0070BB9
S214000EA4C846042394F87710AA68B14212F808706A
S214000EB42BD8AFB1904498F801302A2B10D0212FAC
S214000EC41CBF032384F879300AE01D46B4E7B8F162
S214000ED4000F01D1002DCDD10223002584F87930EE
S214000EE494F87900002869D168680DF03FFA03B0D9
S214000EF4BDE8F04FFFF77ABD1346019AB24282D896
S214000F0403221D4684F87920EAE7732F09D8712F47
S214000F140BD2212F1FD0622F3CD0002F4BD103229F
S214000F2446E0A7F17502022A45D8752F29D0762FF8
S214000F342AD0732F2BD0722F47F6FF7A18BF4FF0A4
S214000F44FF3A012148460193FFF7DAFD5045019B1D
S214000F5401D984F87930AA68424452782A2A94F847
S214000F6479201CBF08F101085FFA88F8002AB7D177
S214000F74212F1FBF013609F10109F6B25FFA89F97C
S214000F8490E74FF0FF0ADCE74FF6FF7AD9E74FF019
S214000F947F0AD6E794F87B204A4454FA82F292F801
S214000FA4652022445278222AD5D07B2AD3D0052223
S214000FB484F87920CFE784F879B0CCE7FFF7A0FE71
S214000FC495E700BFA8230020242400209A400300AD
S214000FD4AF27030060360300004000200D240020E5
S214000FE42DE9F34106460D464FF000085C4C5D4F74
S214000FF466B90DF1070128460AF020FA78B12628CA
S21400100400F0A980012384F879304BE0002D00F02D
S214001014A28016F8013B013D8DF80730EDB23A7810
S2140010249DF807300D2A3B7001D10A2BE0D00D2B1A
S2140010340CD0A3F10A025142514122788846042A70
S214001044D6D8DFE802F0051D263C31000121F4E77E
S21400105421B1FFF7A3FE4FF00108C9E7202B63D0A8
S214001064222B07D10223237094F87820642A5DD1BA
S2140010740623C8E77B2B01D10323F4E70123F2E719
S21400108409B9202BF0D194F87730112B3FD10323E4
S214001094B9E7222BF7D00029E6D005234FF0010844
S2140010A484F8793004232370B8F1000FA0D094F8A4
S2140010B4790008B1FFF724FEFFF798FC98E77D2B2C
S2140010C494F87A0003D1FF28DDD005239BE7602B34
S2140010D413D8402B13D8392B8CBF002230229A1AEF
S2140010E4D2B20F2A10D8FF280BD0FF2302EB00122F
S2140010F48DF8072084F87A30B6E75722EFE73722D0
S214001104EDE784F87A2073E7202BDED170E701330D
S214001114DBB294F8782084F87730234483F865208B
S21400112400232370002994D1884661E72378012B95
S21400113409D19DF80730A3F1410119299CBF20333A
S214001144DBB28DF807309DF80710A31801325970EA
S21400115484F878204CE7404602B0BDE8F08100BF32
S214001164A82300202524002049BA89B24840C0F3A9
S21400117403114140080380B24840C3B280EA4310DA
S21400118470471AF03FBA7047704770477047704709
S214001194704770477047704770477047704770478E
S2140011A400207047704770470020704770477047AC
S2140011B4002070477047704770470020704770479C
S2140011C4012070470120704770477047704770478A
S2140011D470477047704700002DE9F0470024204D03
S2140011E4DFF89C90DFF89CA05FFA84F840461DF078
S2140011F4C3FDFF2806460CD122461A49287802F079
S214001204D7FE287801340AF023F9142CECD1BDE873
S214001214F087154B47B213EA270338BF534659F8ED
S21400122424201249287802F0C3FE002FE9DA14B10C
S214001234B8F1030F08D10E4B16F0010F0D492878AC
S21400124418BF194602F0B4FE0A2CDAD10A4B16F07F
S214001254010F0A49287818BF194602F0A9FED0E7FC
S2140012648120002029290300B12703005129030007
S214001274EC28030002290300142903001E29030096
S21400128498280300267503008842F0B54FEA9203B7
S2140012941AD804460D469BB29E00871904370434B8
S2140012A4BC4205F104053AD1C3EB8333314402EB67
S2140012B48303013E304411FA83F3994220D011F897
S2140012C4012B00F8012FF8E7541E204421440D4654
S2140012D404469BB2A0EB8306043E043CB442A5F14C
S2140012E404050ED16FF003045C43C3EB833302EBB7
S2140012F4830321449BB201342044CB1A994209D17A
S214001304F0BD2F792771EF78E770AF78A7706F7804
S2140013146770E2E711F8012900F8012DEEE715F8E9
S21400132404CC04F804CC15F803CC04F803CC15F864
S21400133402CC04F802CC15F801CC04F801CCAEE7D4
S2140013440244904200D1704700F8011BF9E710B53B
S214001354013801390AB9104606E010F8014F11F8B1
S214001364013F9C4201D0E01A10BD013A92B2F1E767
S21400137482B2074B4AB1000C1A8008BF4FF6CE2241
S214001384044B14BF18801A8070474BF6EF62F2E7DE
S2140013942C1D00202E1D0020094B1888020448BF6F
S2140013A480F0620042001A80064A1388190444BF7B
S2140013B483F4805383F00B03590011805840704720
S2140013C42C1D00202E1D00200022034B1870034BFA
S2140013D41970034B1A7070472F2400202E24002007
S2140013E4302400202DE9F04F234E85B0337807468D
S2140013F48846002B3DD04FF6FB73204D98422C7840
S21400140403D952211E4801F07BFB1E4B4FF0000B04
S2140014149A4632785FFA8BF94A45187811D94844C7
S21400142402A9C0B2019326F00FFB082241460DEB39
S2140014340200FFF78CFF0BF1010B019B0028E8D19B
S2140014444C462B78A34207D1631C3278DBB29A420F
S2140014542B7004BF00232B709AF8003041461C44BE
S214001464E4B2204626F018FC18B93946204626F081
S214001474B9FA05B0BDE8F08F2E24002030240020F1
S214001484462A03002F240020024B187800F07F0021
S214001494704700BF31240020034B18780130C0B2D7
S2140014A4187000F07F007047312400201FB5030A2F
S2140014B48DF80E300323009303AB8DF80D0000F077
S2140014C4BFF905B05DF804FB1FB58DF80F100421B5
S2140014D4030A8DF80E30009103AB8DF80D0000F072
S2140014E4AFF905B05DF804FB2DE9F043994689B0E1
S2140014F4BDF840509DF84460074688460DF1090043
S21400150411460822BDF84C40FFF7BEFE8DF8125077
S214001514012E4FEA15258DF811908DF813508DF88D
S214001524146017D0032E1CD1082212990DF1150051
S214001534FFF7AAFE9DF850308DF81D301623009351
S214001544BDF8542002AB4146384600F079F909B09C
S214001554BDE8F0838DF81540240A8DF816400F2355
S214001564EDE70120F3E71FB50C46194602238DF874
S2140015740D2000930A4603AB0146204600F060F9AE
S21400158404B010BD70B586B0044616460DF10D00C5
S21400159408221D46FFF778FE0A232A4600933421C4
S2140015A403AB20468DF8156000F04AF906B070BD0E
S2140015B430B5002485B0ADF80A20021D92B2012A87
S2140015C41D46ADF80840ADF80610ADF8044003D942
S2140015D44FF6FF72904207D1064A2B46127801A9AD
S2140015E424F074FB05B030BD014601AA204624F061
S2140015F433FCF7E7301D00202DE9F74F9846FF2A05
S21400160416BF474B00241B680E4618BF9C5C8146D9
S21400161418BF6408B8F1FF0F16BF414B00271B68BC
S21400162415461CBF13F808707F08FFF735FF4FEA0E
S21400163419238DF800008DF803600621360A6846E3
S2140016448DF804608DF801908DF802308DF8054011
S2140016541EF04AF9FF28064604D11824204603B093
S214001664BDE8F08F4FEA440B0BF1070A0AEB47017B
S214001674C9B21EF0EDF80028EFD10446A3451BD1ED
S2140016840BF106013A4601F0FE0130465FFA8AF491
S2140016941EF0A5F94FF0000A5FFA8AF5AF4223D888
S2140016A43346BDF8302006214846FFF781FF04463E
S2140016B430461DF0BBFFD1E7214628461EF08AF9C6
S2140016C4A11D0246C9B230461EF089F9611CC9B292
S2140016D428461EF07FF9E11D0246C9B230460234A0
S2140016E41EF07DF9E4B2C9E76D00EDB22946404626
S2140016F41EF070F92146024630461EF070F9691C49
S214001704C9B240461EF066F9611C0246C9B23046AC
S21400171402341EF064F90AF1010AE4B2BCE700BF21
S214001724C81C00202DE9F04188B00F4602A90646E1
S2140017340BF072FA00287CD0FFF7AEFE8DF810008E
S2140017441DF0EEFC8DF811001DF0EAFC000A8DF881
S2140017541200082239490DF11300FFF795FDBDF874
S21400176408300F218DF81C301B0A8DF81D309DF8AB
S2140017740D3004A88DF81B608DF81E301EF0B4F8EA
S214001784FF28044657D04FF000089DF80D305FFA46
S21400179488F2934208F101081DD801220DF10E01CA
S2140017A420461EF0E3F84FF000089DF80E305FFA6E
S2140017B488F2934208F1010824D823463A462021A9
S2140017C40020FFF7F5FE054620461DF02FFF2846AD
S2140017D408B0BDE8F081002130460BF049FA054612
S2140017E48DF807000DF10701012220461EF0BEF811
S2140017F42D0A01220DF1070120468DF807501EF030
S214001804B5F8C2E7012130460BF032FA05468DF8EA
S21400181407000DF10701012220461EF0A7F82D0A45
S21400182401220DF1070120468DF807501EF09EF8A0
S214001834BBE7A325CBE71825C9E700BFC54D0020A5
S214001844F8B51C460E4617460546FFF725FE9DF8D6
S2140018541810207020461EF047F8FF2804460BD0C8
S21400186403463A4628463146FFF7A2FE054620467A
S2140018741DF0DCFE2846F8BD1825FBE708B500F089
S214001884A3F80EF043FEBDE8084007F0A5BA08B575
S214001894FFF758F80EF064FEBDE8084006F05EBB9D
S2140018A47047FFF780B8FFF784B80020704738B554
S2140018B404460D46FFF798F82946204607F0A8FA8E
S2140018C429462046BDE838400AF042BAFFF773B806
S2140018D4FFF77DB80122002109200FF03BBB000072
S2140018E40C2907D00D2907D00B2907D1044901205C
S2140018F40DF012BD0349FAE70349F8E7704700BF45
S214001904074103001041030019410300022913B5DF
S2140019140C4621D0032939D001291BD170B924499A
S21400192420460DF0F9FC41F210020821214B9C5090
S214001934995042F21002102199500BE01E4920469D
S2140019440DF0EAFC4FF49673032205210093012060
S21400195400F01AFB02B010BD70B9184901200DF052
S214001964DBFC41F210020121124B995010219950D0
S21400197442F210020821DFE7114901200DF0CCFCE9
S2140019844FF4FA73042200930321E0E70028E1D120
S2140019940C4901200DF0C0FC41F210021021054B49
S2140019A499500821995042F210020121C4E700BF61
S2140019B4C940030000C00340D5400300E1400300D3
S2140019C4EE400300FA40030008B5124901200DF06A
S2140019D4A3FC1149114800F0B3F800F0A7FA00F090
S2140019E4D1F900F093FB00F0C9FBF0EE000A9FED7E
S2140019F40C1AB0EE600A00F041F94FF47A71094807
S214001A041DF0FCFBBDE808404FF47A7106481DF053
S214001A14F5BB00BF2241030011190000E5180000C1
S214001A246F12833A4C4000203C400020002310B53F
S214001A34074C237000F006FA0649024601200DF012
S214001A446BFC2046BDE8104041F288311DF0D6BB41
S214001A544C4000208340030038B500230B4C0C4D4B
S214001A64237000F0F7FB286000F00AFC094A0346DE
S214001A74106009492A6801200DF04EFC2046BDE896
S214001A84384042F210711DF0B9BB00BF3C40002044
S214001A9434240020382400209C40030070470000B3
S214001AA4F8B5234C636883422FD0636998422ED1DD
S214001AB40125EDB22D0163195F683023625D1D4870
S214001AC453430022164618440368FB4003F0010300
S214001AD40168F94001F0010C63451AD10132052A68
S214001AE4F6D1621982F808C0B3B9537A0133537237
S214001AF4137B13B910481DF075FB002301222C44F8
S214001B04A37263732273E372F8BD0025D1E7FF2541
S214001B14D0E700226346DBE701230848D372067049
S214001B2416734FF41671BDE8F8401DF067BB00BF8E
S214001B34341D002014C003405C4000206440002094
S214001B442DE9F74307460E46012502F0DFFC104C4C
S214001B54DFF8489004F12008002301226168207809
S214001B6404F054FD4946207902F0DEFC626814F85D
S214001B74100BCDE900550123114604F001FD444540
S214001B84EAD1044B1F60044B1E6003B0BDE8F0832B
S214001B94341D00203C24002040240020A51A000008
S214001BA42DE9F84300241A4B4FF005081C704FF03B
S214001BB401092346174D184FEE7826B36B78013388
S214001BC4DBB2042B84BF00222A703A686B7088BF8D
S214001BD485F804905AB1B3FBF8F101EB81001B1AA7
S214001BE413F0FF0F03D10A31C9B2204690471035CF
S214001BF434B156B1BDE8F843C82105481DF0FEBA15
S214001C0401243346D8E71E46F1E7BDE8F88300BF53
S214001C145C4000203D1D00203C240020F8B5002533
S214001C242E46134B134C144F1D70E37A7BB13B685E
S214001C343BB1627BE8B27AB9617A0A2928BF1121DE
S214001C449847A67266722673E67226726673103416
S214001C5405B1F8BD0125E8E7A17A1D299FBF052235
S214001C64B1FBF2F10A31C9B288BF1121E8E700BF1F
S214001C7464400020341D002040240020044B83EDE3
S214001C84000A044BC3ED000A034B83ED001A7047A9
S214001C945840002034400020384000202DE9F84306
S214001CA42B4D2C4B2DED048BD3ED007AD5ED008A0D
S214001CB478EEA77A284C88EEA79AD4ED007A30EE10
S214001CC4670AB0EE678AA9EE008A77EEC87AF0EE65
S214001CD4E77A224B17EE900A83ED009A204B83EDA9
S214001CE4008A2FF079FF1F4B064618680F462FF020
S214001CF473FF02460B46304639462FF0C5FF0646AC
S214001D0419EE100A0F462FF067FF02460B46002016
S214001D1415492FF001FE804618EE900A89462FF0EA
S214001D245BFF02460B46404649462FF0ADFF02468F
S214001D340B46304639462FF0F1FD30F07DFAB0EE12
S214001D44480A84ED008ABDEC048B2860BDE8F8835D
S214001D5434400020584000205440002048400020D2
S214001D6444400020384000200000F03F07EE900A70
S214001D7408B5B8EE670AFFF791FFFCEEC07A17EED7
S214001D84900A08BDF0B52B4E8FB008AD00240FCED8
S214001D9403270FC596E80300012685E80300264DB1
S214001DA4CDE903442846CDE9054407948DF80E7022
S214001DB48DF808608DF809408DF80A408DF80B40C0
S214001DC404F090FE0221052004F08AF9022322463C
S214001DD41A4928468DF8173004F0FAFE23468DF883
S214001DE419000090224642F2107128468DF823709E
S214001DF404F006FF04238DF82130A5238DF8250072
S214001E0408AA05A928468DF809308DF80E408DF8E5
S214001E14086004F019FF02AA03A9284604F022FE6B
S214001E24074AD2F8283343F48033C2F828330FB075
S214001E34F0BD00BF2C4103000040004A40420F00A2
S214001E4400C0034007B500221E4B1A7001221E4B29
S214001E54DA605A6902F4A072B2F5807FF9D11A49A1
S214001E64684605F047F80098184B1860FFF77EFFA1
S214001E74174B184A1860184B03FB0023B3FBF0F00B
S214001E84164B186018682FF085FE9FED0A1B41EC70
S214001E94100B2DF063F909A3D3E9002351EC100BC2
S214001EA42FF0F2FE30F0A0F90D4B1860186803B05E
S214001EB45DF804FB666666666666F6BF00000000AC
S214001EC4D8227E414C4000200040004A4C2400208A
S214001ED444240020408AF701F0D8FFFF6C4000201D
S214001EE4482400204823584301230E4970B5302562
S214001EF40A18085C51680C4C03FA01F641F210010A
S214001F0405FB00404650107ED66905FB004003FAE8
S214001F1406F6465092F83000526B934005FB00429A
S214001F24535070BD541D002000C0034070B5124DC0
S214001F3400242E462919285D0023042249681834F3
S214001F4404F064FB482CF5D100243019C16C00233E
S214001F54042290F84800183404F058FB482CF4D1B6
S214001F640020FFF7BFFF0120FFF7BCFF034B044A26
S214001F741A60044A5A6070BD541D0020B040002008
S214001F84A84000207040002030B41824084D04FBFC
S214001F9400540125E360029BAA402361054B227589
S214001FA42572617253F8200030BC1DF01BB900BFC7
S214001FB478400020B040002018222DE9F047404D1C
S214001FC4044602FB0052137D3E49002B59D013F001
S214001FD4010F4FF0480332D003FB00134FF0010EFD
S214001FE40021302741F2100842F2100992F809C085
S214001FF4354E1A78586807FB02624CFA01FA1AF052
S214002004010F0EFA00F001F1010114BF42F80900B5
S21400201442F80800032903F11803EAD1182303FB46
S2140020240453D968294B53F824001DF0E7F8182305
S21400203403FB0454237D013B2375BDE8F08743432B
S214002044C818CE5C01234FF0300C41681E4F03FACB
S21400205401FE41F210010CFB067646F801E090F80A
S21400206418E0C6690CFB0E7E03FA06F64EF801600D
S21400207490F83060406B83400CFB06704350116947
S214002084D0E7137248235C43012330250A19085D00
S21400209451680D4C03FA01F641F2100105FB0040AD
S2140020A44650107ED66905FB004003FA06F64650F5
S2140020B492F83000526B934005FB00425350BCE745
S2140020C478400020541D002000C00340B04000208B
S2140020D40020044B1870044B1B7A012B01D1FFF728
S2140020E46BBF7047A8400020784000200022054BB4
S2140020F41A70054B93F82000012801D1FFF75CBF46
S214002104704700BF704000207840002030B585B08E
S2140021146C46164B164D0FCB84E80F0001230B229A
S2140021241946184604F072FA01230B2218460021B9
S21400213404F06CFA0F4B1048D3F8A014014041F099
S2140021440111C3F8A014D3F89C242146024042F09F
S2140021540102C3F89C2403222846C3F8982404F0FA
S214002164DDFA1023AB6005B030BD00BF4441030068
S2140021740000014A00C00340FCFFF0FF4CF6FC12CE
S21400218430B5184B89B0039308AB23F81C2D049381
S2140021940223ADF8143002AB0693032303A91248B6
S2140021A4ADF81C3004F0E8FB04460F4D012C13D0A8
S2140021B422460E4901200DF0AFF89DF808200CB910
S2140021C4142A03D00A4901200DF0A6F80949012073
S2140021D40DF0A2F809B030BD284604F0C1FA044652
S2140021E4E4E700BF800004000000014A54410300F5
S2140021F4644103008B410300F0B5D31D87B003F49C
S214002204FC7300AFADEB030D104B05467B6007F186
S214002214180303F8181DBB600123391D0C48BB8145
S214002224C7F810D0BA826C4604F0A6FB084E012804
S21400223408D00120227863781C3703EB02232B6036
S214002244BD46F0BD304604F08BFAF0E7800004008B
S2140022540000014A07B50222E52101A8FFF7CCFFDA
S21400226450B143F2D403019A534364221B0CA3F5E2
S2140022741673B3FBF2F30193019803B05DF804FB05
S21400228407B50222E02101A8FFF7B6FF58B144F2D1
S214002294A443019A534364221B0CA3F592530D3BAB
S2140022A4B3FBF2F30193019803B05DF804FB00233B
S2140022B407B5CDE90033012369464FF0FF308DF8AA
S2140022C4023010F015FE003018BF012003B05DF890
S2140022D404FB01207047012070470120704700006E
S2140022E410B5084C23681B6858790BF0CEFA23689F
S2140022F41B685879FEF72CFB00200EF0FFFA01202D
S21400230410BD00BF284C00202DE9F84F80460D462E
S21400231414469946164E06F1010A0DB9BDE8F88F23
S214002324102D4FF00D02494650462F4628BF102761
S214002334FEF7AAFF0123337000230D48F473B3732A
S21400234425F042FD424601340A495FFA87FBE4B2AF
S21400235412F8013B11F8010F434002F8013CA2EBCE
S2140023640803DBB25B45F3D3ED1BADB29046D4E76E
S21400237454240020532400202DE9F04F4FF0020986
S214002384364D85B003930F9B174601900D220E46DB
S2140023940146681CBDF838800293FEF775FF492392
S2140023A44C46AA462B7028464FEA1823AB7385F88A
S2140023B40F8025F009FD2B7883EA17232B706B78A2
S2140023C47B406B704FF0000B21E0C4F1100CA7EBC0
S2140023D40B031FFA8CFC9BB2634528BF634630464A
S2140023E4A11B00EB010C5FFA8CF2A0EB060C1FFAA3
S2140023F48CFC9C451BD31C44E4B29B44102C1E440A
S2140024041FFA8BFB03D1284625F0DEFC0024BB45CF
S214002414DBD314B1504625F0D7FCB9F1010F4FF0C9
S2140024240004039E47460BD04FF00109CAE710F894
S21400243401CB1AF802E08CEA0E0C0AF802C0D0E7C8
S214002444029804220549FEF71FFF22460421019B39
S214002454029805B0BDE8F04FFFF756BF542400209D
S214002464F7B5099FBDF820400646CDE900471D464E
S214002474FFF782FF2CB13346012221462846FFF798
S21400248443FF002003B0F0BD2DE9F7431E46054682
S21400249488469146BDF828700D4C034639463046AA
S2140024A40122FFF731FF33464A4641462846CDE926
S2140024B40074FFF761FF042221460B98FEF747FFDE
S2140024C4002814BF7E20002003B0BDE8F08300BFC0
S2140024D4502400202DE9F3410C4615461E4680463E
S2140024E4084F9918214438460422FEF7CDFECDE95C
S2140024F4006763192A4621464046FFF7C5FF02B027
S214002504BDE8F08164240020002070470020704756
S21400251470477047F7B50024094E0A4F0A4D56F81F
S214002524243003B93B6835F814200849009201208A
S214002534224601340CF0F0FE292CF0D103B0F0BD95
S214002544E41D00208C1E00202C410020A441030022
S21400255408B5FFF7DFFFBDE8084000F0F1B800005B
S21400256407B50020FEF720FBC2B2282A0DD8084B78
S21400257453F822300BB9074B1B680749012031F882
S2140025841210009105490CF0C7FE03B05DF804FB79
S214002594E41D00208C1E00202C410020A4410300D2
S2140025A4FFF7B8BF7047000038B50020FEF7FCFA06
S2140025B404460120FEF7F8FA0546054901200CF00A
S2140025C4ABFEA9B2E0B2BDE8384000F0D1B800BF17
S2140025D4AF410300F7B50024094E0A4F0A4D56F8DA
S2140025E4243003B93B6835F81420084900920120CA
S2140025F4224601340CF090FE292CF0D103B0F0BD35
S214002604E41D00208C1E0020DA400020A4410300B4
S21400261473B502AB03E906000446019D1CF09CFA60
S214002624064620461CF0A6FA9DF800008EB1202C23
S2140026340FD82B78012B37D84FF6FF75394903EBA3
S2140026444313234431F81320AA4202D0013221F85E
S21400265413204FF6FF72344B344933F8146031F8C4
S214002664145096421CBF721C23F8142004F0FD027A
S214002674092A31D19A8A898A02448A42B4BF9A8244
S214002684998233F81430AB4204D3AE4202D22046C9
S214002694FEF75FF90025264BEA5CA24228D00135F6
S2140026A4112DF9D102B070BD022BD2D14FF6FF71B5
S2140026B44FF6FF751B4B33F814208A421CBF0132B9
S2140026C423F8142004F1210233F81210A9421CBF87
S2140026D4013123F81210BCE71D2CD2D15A8F1118E1
S2140026E4A942BDBF02F1FF3212185A875D87C8E7B8
S2140026F418F041FC0F4B04461B78834203D8DD21B7
S2140027040D4800F0FDF94FF6FF710C4A04EB041473
S2140027142C4432F814308B42C4D0013322F81430DF
S214002724C0E700BF7E4100202C410020DA40002094
S2140027341B450300111D002097440300B8400020E9
S214002744522200210148FEF7FBBD00BF2C410020A9
S2140027545222FF210148FEF7F3BD00BFDA400020F5
S21400276408B5FFF7EDFFBDE80840FFF7F1BF00002E
S214002774014B23F810107047DA400020032310B5ED
S2140027840F4C4FF48062C4E904330E4B0E49E361E8
S2140027940023A16121660D49E01DC4E919120C4904
S2140027A4A3626362E3622367E366636722622FF0D1
S2140027B47DFF084920462FF079FF2023A37110BD22
S2140027C404420020682800202C45030068240020CA
S2140027D435450300394503002DE9F84F1F4B1646CF
S2140027E41A7881468A4698460AB9FFF7C7FF18271B
S2140027F407FB09873D6FD7F86CB05D452BD9BC6ED7
S214002804796E641BB44228BF344629445046224697
S2140028142FF039FFBB6E2544AB4208BF0025A24407
S214002824361BABEB050B5E4528BF5E4656B1182338
S21400283403FB0983596E3246294450462FF023FF82
S2140028443444354424B1182303FB0988C8F870506F
S2140028542046BDE8F88F0024E3E700BF04420020CA
S21400286410B50B46EFF311844FF0200181F3118865
S2140028741946FFF7B1FF84F3118810BD2DE9F84F10
S214002884144D9B462B788146884692460BB9FFF733
S21400289475FFEFF3118C4FF0200181F311880020AF
S2140028A418236F6903FB0054666E2EB1013087420D
S2140028B4F8DC4FF0FF3009E08742FADDC4E91898E7
S2140028C4C4F868A02667E666C4F874B08CF311886A
S2140028D4BDE8F88F04420020FFF750BF70B54FF0F4
S2140028E460441A4B00261A68194D42F001021A6019
S2140028F4DA680C2042F08072DA60164BC4F8B03FF7
S2140029040223C4F8006EC4F8806EC5F8F03003F0F5
S214002914A9FA114B00F5D52000F2FC40B0FBF3F009
S2140029240E4A0F4B01382861C4F8406E1A600D4BEE
S214002934C4F8803E4FF48073C5F80433D4F8003EE0
S21400294443F48073C4F8003E70BD00BFF0ED00E0B1
S214002954000004E055CEACC5F8590D00FF03004056
S214002964001000E00D00010010B501240E4B0020FD
S2140029741C6003F003FE234604220321002003F018
S21400298445FE20460FF0C4FFFFF7A8FF0FF0C1FF77
S214002994FFF7A2FF2346402204490548FFF76EFFCF
S2140029A4044B1860C00F10BD44D40340682C0020AC
S2140029B440450300901E0020024B1868003018BFE4
S2140029C401207047F0ED00E0D123054A0370137828
S2140029D44170090A8170591CC37011700420704735
S2140029E4A82C00202DE9F74F354E074633681C5CAB
S2140029F4032C63D9DFF8CC8017F0EAFE4FF6FF7A93
S214002A040025C1460534E4B20190D8F800204AB146
S214002A14AC4207D917F0DCFE019BC01A80B2B0F5B1
S214002A24FA7F05D9601B18BF012003B0BDE8F08FFC
S214002A34002D3DD0012D1DD14FF0020B3268D55D1F
S214002A444FF06042D2F8801ECB0711D51146D9F854
S214002A540C0040F08070C9F80C00D1F8000E40F469
S214002A648070C1F8000E086A0028F0D082F8205062
S214002A745D46CAE7E21E05F1010B95425FFA8BFB41
S214002A8402D15FFA8AF5DBE7A21E954202D1CAF3A9
S214002A940725D5E7621E95420ED0A91EC9B2384650
S214002AA41CF098FF51460546FEF75EFB8246C7E7D4
S214002AB45B254FF0010BC3E75D25C1E70120B4E7B2
S214002AC4C81C0020F0ED00E010B50B4B90B040227F
S214002AD469461868FFF7C4FE58B1C1B268461CF0D0
S214002AE403FF0446014612200FF0BEFB20461CF0EE
S214002AF49DFD10B010BD00BF901E002042DE704742
S214002B0438B504460D4600F001FD03F092FC294654
S214002B1420460FF075FB2B4622460549012008F097
S214002B249DFC29462046BDE83840FFF7E7BF00BFB6
S214002B34504503006D4B2DE9F0415A686C4CA26574
S214002B445A6AE2656B4AD2F800122166D2F8042269
S214002B5462669A6AA266DA6AE2661A6B22675A6B39
S214002B646267A26BDB6B12F0040FA367D4E90F5302
S214002B7418BF1D4617F010FE002285420346606506
S214002B8422655DD35C4A95425AD8AA696264E969AB
S214002B94A164B4F85810C1F30801062954D1574962
S214002BA48A4251D356498A424ED211884DF6426221
S214002BB4914249D140F201706268C4F89420A26838
S214002BC4C4F898204F4A5049934238BF13460A46E1
S214002BD48B423CD3D31AE3640023C4E91F33C4E90D
S214002BE42133C4E92333484E444FDFF814C1AE42C0
S214002BF433D8D4E91FC7D4E92165D4E923124FF0AA
S214002C04000E013BDBB2FF2B42D1BEF1000F05D014
S214002C14C4E91FC7C4E92165C4E92312B4F85830CF
S214002C24C3F30803052B57D03CD8032B47D0042BFB
S214002C3458D040F60722013B4B2B98BF104640E085
S214002C4400221D46C4E911224FF42060BAE71E682C
S214002C54B6F1CD3FBED10433BAE756F8042DBA42D6
S214002C64C5D36245C3D2D107C1D5002104EB010EFA
S214002C74DEF87CE09645BAD004311829F6D10BB9B3
S214002C84052301E0013BDBB204EB8301CA67AEE730
S214002C94E0464FF0010EBC4637462E460D4611461A
S214002CA44246AEE70C2B1AD03B2B0CD0062BC0D1D9
S214002CB440F60423B0F5206F08BF184601E040F63E
S214002CC40120BDE8F081114B9B6913F0020F40F21E
S214002CD4025318BF1846F4E740F60320F1E740F61F
S214002CE40520EEE740F60220EBE700BF00ED00E02B
S214002CF40000002000E100E0A01A00204C030000C1
S214002D04E82603009C000020C01A00200080014A28
S214002D1410B504F0E7F9044604F0DCF900220121BA
S214002D2401FA02F3234014D01B4B33F812301B4A2B
S214002D34062B13D040F207218B420DD118491948AF
S214002D440C68844208D14CF23C334B800B881380C9
S214002D5412E00132102AE3D1104AF8E74FF20F01CD
S214002D640F4B5888884214D11988B1F5406F10D299
S214002D7411804CF23C325A80084B1A8840F2017398
S214002D849A4201BF084B094AD2E90001C3E900018F
S214002D9410BD4FF4C061EBE764450300B42C00207B
S214002DA40000002007020FF0AC2C00209400002046
S214002DB4014B1888000A7047B42C0020014B188871
S214002DC4704700BFB42C00202DE9F04F4D4C05464B
S214002DD4A36BD4F850B05A0747BF0027B846D4F8B8
S214002DE44CB0D4F85480D4F840A05DBF464FD4F815
S214002DF43CA0DFF83C91DFF83C9113F0080F434BFE
S214002E04434A18BF1A46B7EB08061FBF6421730867
S214002E1401FB0B33B3FBF6F387B01CBF9BB20593E1
S214002E243C494B46CDE9017ACDF8008008BF0596AB
S214002E3401F0BEF8B3B2CDE900931FFA8BF2059BFE
S214002E443549284601F0B4F8A36B5B070AD49C3EC8
S214002E545E4507D1626D314B9A4203D2304928460B
S214002E6401F0A6F8BA4501D8C24504D24A462D490F
S214002E74284601F09DF8284608F0EAFA236E0BB9B6
S214002E84636EBBB32849284601F07DF80026012767
S214002E94DFF8A480DFF8A490226E07FA06F3134244
S214002EA407D058F8262013781BB14946284601F067
S214002EB46AF80136202EEFD100260127DFF8788045
S214002EC4DFF87890626E07FA06F3134209D008EB2F
S214002ED48603D3F8802013781BB14946284601F0B0
S214002EE452F801361D2EEDD1284607B0BDE8F04F46
S214002EF401F058B828460D4907B0BDE8F04F01F078
S214002F0457B800BF00000020C01A00206B4803001A
S214002F14724803007A480300A84803009C00002077
S214002F24E14803000D4903002B4903005A490300F6
S214002F3466480300C562030070490300707403000A
S214002F442DE9F8430446FFF739FF40F6012398427B
S214002F5439D010D840F2025398421DD040F2017383
S214002F64984224D040F20153984213D16549204632
S214002F7401F01EF822E040F6032398426CD03DD3BD
S214002F8440F60423984200F09C8040F605239842BD
S214002F9400F0B580BDE8F8835B49204601F008F8E8
S214002FA45A4B5B495A6C204601F002F806E0574A31
S214002FB45849D2E92523204600F0FAFF2046BDE80A
S214002FC4F84308F045BA514D5349204600F0F0FF47
S214002FD495F86C309F0703D55049204600F0E8FF6B
S214002FE495F86F305E0603D54D49204600F0E0FFA5
S214002FF495F96F30002BE1DA4A49B8E7434D4A4960
S214003004204600F0D5FF95F86830980704D06A6C1F
S2140030143F49204600F0CCFF95F96830002B04DACF
S2140030246A6F4249204600F0C3FF00260127DFF8F6
S2140030340881DFF81491AA6E07FA06F3134207D044
S21400304458F8262013781BB14946204600F0B0FFF6
S2140030540136082EEFD1B1E72C4D3549204600F055
S214003064A7FF2B496A6C204600F0A2FF95F869304A
S214003074590703D52F49204600F09AFF95F9693081
S214003084002B04DA6A6F2949204600F091FF0826CF
S214003094294FDFF8B480AB6EF340DA0707D557F84C
S2140030A4262013781BB14146204600F081FF0136E6
S2140030B4102EF0D195F86830002B7FF47FAF1F49AF
S2140030C455E7124D1E49204600F072FF6A6C1049FF
S2140030D4204600F06DFF1026174FDFF86C80AB6EAD
S2140030E4F340DB0707D557F8262013781BB1414673
S2140030F4204600F05DFF01361A2EF0D15EE7114936
S2140031044BE700BFF54503003246030000000020ED
S214003114624603007B46030095460300AD46030063
S214003124E74603001A470300564703007B4703009D
S2140031349F470300B647030084450300FC4703008B
S2140031442C48030045480300974703002DE9F84F31
S21400315406460025154C164FDFF85C80DFF85CA0A9
S21400316423785FFA85FB0BB9BDE8F88F57F8043B64
S21400317422461049304600F006FF227804F1010981
S21400318482B9627882B10BF0030103290CBF414671
S2140031945146304600F0F7FE304608F059F901353E
S2140031A44C46DDE74C46E8E74146F2E7644A03004E
S2140031B404000020EC450300AF27030079660300F3
S2140031C400F00CB800F00AB800F008B800F006B832
S2140031D400F004B800F002B800F000B872B61EF0B2
S2140031E4080F09D01EF0040F0DD0DFF850E0AEE84B
S2140031F4FF1F6FF002000CE0DFF840E0AEE8FF1FB0
S2140032046FF00E0005E0DFF834E0AEE8FF1F6FF065
S21400321406006946EFF309828EE8070086460848EA
S214003224084C854501D3A54501D384F30888FFF7E8
S21400323481FC84F3088817F08BFA00000400002051
S214003244A0110020C01A0020FFF7C6BF70477047C1
S2140032547047704700F07E63B3F17E6F70B5054625
S2140032640E46144616D105F075FA18B19A210D4883
S214003274FFF746FC22463146C5F30B0003F0EEFF8B
S214003284044605F073FA5CB19D21BDE8704005481C
S214003294FFF736BC520817F0F9F908B18F21F4E7A6
S2140032A470BD00BF8851030037B57F2A14BF15468A
S2140032B400254BF234629142044619D17F2241F232
S2140032C4020168460823FFF7EFFF082225496846EF
S2140032D4FEF73DF830B908237F2241F2F011684624
S2140032E4FFF7E2FF082269462046FDF7CDFF09E016
S2140032F441F2F01291421AD11B4901388A6CC96C0A
S2140033041D1F0BB903B030BD013B9D4200F8012FD1
S2140033144FEA1222F5D1002203349A42F2D0013247
S214003324042A04F8011F4FEA1121F6D1EAE701F452
S2140033347042B2F5805F07D1C1F30B0404F17E64DA
S2140033449AB203FB0541D0E701F46042B2F5005F90
S214003354D8D1C1F30B0405499AB2214403FB0511E5
S214003364C3E700BF025203000080E00F00E007003E
S21400337470B5054616461C46DBB14BF234639942DB
S21400338410D1082C28BF08247F2241F202012346CC
S214003394FFF78AFFA2B207492846FDF7D8FF40B9CF
S2140033A441F2F011234632462846BDE87040FFF746
S2140033B47BBF70BD025203002DE9F7430446E007C5
S2140033C40F46154603D5DD213448FFF799FBE90778
S2140033D403D5DE213148FFF793FB04F47043B3F5BD
S2140033E4805F3ED1C4F30B0404F17E646B1E2C4A4A
S2140033F423449342264603D9E3212848FFF780FB5B
S214003404DFF8989006EB050846453DD1A2070ED096
S2140034144FF6FF7337F8022B02A943EA0243A01EB5
S21400342441F8043D0422FFF715FF0234023DAB07C2
S2140034340ED0023D25F00103FB5A02A96FEA0343AE
S2140034446FEA1343042241F8043D6019FFF702FFB4
S21400345425B12A4639462046FFF7FCFE03B0BDE8F0
S214003464F08304F46043B3F5005F05D10D4BC4F359
S2140034740B041C442646C3E7EA210848FFF740FB32
S2140034846FF00F060024BBE716F8013BFF2BBBD0FA
S214003494F4214846FFF734FBB6E700BF8851030023
S2140034A4FF1FE00F00E00700FFF78ABE1FB5144AAF
S2140034B401AB10685168128903C31A8001238DF882
S2140034C404300D238DF80A3003230E4C08212320E4
S2140034D48DF80B3002F004FE01A9204604F0F5F83E
S2140034E44FF40061022342F21800074AC2F884111E
S2140034F42350516041F21C02A35004B010BD00BF1B
S2140035040A5203000080014A00E100E0014804F08A
S214003514CBB800BF0080014AA52803D10021024889
S21400352404F0B3B8704700BF0080014A024B5868E5
S21400353400F00100704700BF0080014A024A536A47
S214003544002BFCD1704700BF0080014A0020704762
S214003554002070477047000007B572B602F069FF96
S214003564894B8A495B6940228B6000230B764B7635
S2140035748B76F023CB760B774B778B77CA778022C4
S21400358481F8202081F82130E023602081F8223061
S2140035947F4B81F8232083F8002383F8012383F8E4
S2140035A4022383F8032383F8042383F8052383F88C
S2140035B4062383F8072383F8082383F8092383F86C
S2140035C40A2383F80B2383F80C2383F80D2383F84C
S2140035D40E2383F80F2383F8102383F8112383F82C
S2140035E4122383F8132383F8142383F8152383F80C
S2140035F4162383F8172383F8182383F8192383F8EC
S2140036041A2383F81B2383F81C2383F81D2383F8CB
S2140036141E2383F81F2383F8202383F82103202006
S21400362483F8222383F8232383F8242383F825238B
S21400363483F8262383F8272383F8282383F829236B
S21400364483F82A2383F82B0383F82C0383F82D238B
S21400365483F82E2383F82F2383F8302383F831232B
S21400366483F8322383F8332383F8342383F835230B
S21400367483F8362383F8372383F8382383F83923EB
S21400368483F83A2383F83B2383F83C23CB6823F45C
S214003694E0631B041B0C43F0BF6343F40133CB60AD
S2140036A44B6943F010034B614FF4E0234B6204F084
S2140036B401FCFFF72DFBEFF308834FF0CD31354ABD
S2140036C4043B93425DD2344A002192B23348FDF75C
S2140036D437FE62B6684603F0E9FD314B9B6DDB03AB
S2140036E418D4304A136823F4FF0323F4FE4343F448
S2140036F4BC1343F4A063136052F8043C23F47043F1
S21400370443F4404342F8043C52F8043C43F4E06378
S21400371442F8043C9DF80130012B0FD19DF800308F
S21400372463B94FF000531B681F4B1B681F4B1B6885
S2140037341F4B1B681F4B1B681F4B1B681F4AD2F886
S214003744803043F00303C2F8803002224FF0402357
S2140037541A6704F029FB01F0E3FA002300938DF8BE
S2140037640430012368468DF8033002F0FEFE00F0B4
S21400377427F917F03FF812480FF0D4F803B05DF8B5
S21400378404FB1960043B9CE75400000000ED00E0D5
S21400379400E100E0601100208C100000A000002072
S2140037A400C0004034C000400040002000800020DC
S2140037B400C00020000001200040012000800040DE
S2140037C4687E030040F2016016F0C2BFFEF7A0BE9A
S2140037D408B500210B20FEF799FEBDE80840FEF769
S2140037E498BE032000F078BA08B5FFF7E1FA044B58
S2140037F40B289ABF00B203EB8000184608BD00BF32
S2140038045A53030008B5FFF7D9FA044BC0F30F2246
S21400381453F82230C0B203EB800008BD24530300E3
S21400382410B5FFF7C5FA0446FFF7C8FAC0B228B9C0
S214003834012C24D164F07F04E4B216E0072CF9D8F6
S21400384401A353F824F000BF6F3800003938000095
S2140038546D380000733800007338000077380000B5
S2140038647B3800007F3800000924204610BD02245F
S214003874FBE70324F9E70B24F7E70624F5E70446F9
S214003884F3E700BF07282DE9F84F04460F462DD06E
S214003894082808BF022421460120FDF7A6F8FFF7F2
S2140038A445FE651ED5F1000848EB050800B3012C5B
S2140038B41ED1A520FFF730FE2646EFF3108901231C
S2140038C483F31088EFF3118A4FF0000B8BF3118803
S2140038D4354D404608F02AF8631EC5F800B0042BA0
S2140038E459D8DFE803F00E4D4D5155000324D2E7B6
S2140038F4FFF71CFE18B1FFF721FE0026DDE706469B
S214003904DBE72A4A136923F00403136130BF284A0D
S214003914D2F82434D2F8202413409BB2254A2B60D4
S214003924D2F80011480102D51168490106D4D2F82C
S2140039340011880105D51268910102D543F480333D
S2140039442B601C4BD3F80021520506D51B685B057B
S21400395442BF2B6843F400332B601EB10121164886
S21400396403F093FE404608F001F8CFB18AF31188BD
S21400397489F310882146BDE8F84F0020FDF735B8D6
S214003984012002F0C5FDC2E7012002F0D5FDBEE726
S21400399402F0D4FDBBE788210848FFF7B1F8B6E784
S2140039A487F31088E6E700BFC02C002000ED00E097
S2140039B400C0034000E100E00080014A8A5303008F
S2140039C442F22041044AD2F820341B0C1B04535004
S2140039D4024A1360704700BF00C00340BC2C00209E
S2140039E40021FFF74FBFFFF7FBBF00002DE9F04FA4
S2140039F489B00EF08BFF0746002840F0DD806F4E3E
S214003A046F4D3168286816F08DF80446002827D0D4
S214003A1433683C46D3E900019A69126890473368D4
S214003A2404A89B699B689847336802209B69DB68F7
S214003A349847326805985368E7B2B3FBF0F3BB4285
S214003A44916904F1010442D8CB6800209847336892
S214003A549B695B6898473168286816F063F80446E3
S214003A640026DFF88891002C53D1564B4FEA86087F
S214003A74F35C002B31D1A246534BF35C0193534BBA
S214003A8403EB080B019B5FFA8AF7BB42286853D8FE
S214003A944F4BF35C002B3CD04C4B019F9844FBB23D
S214003AA47E2B286835D8D8F8003003AA07EB030A1B
S214003AB4514602AB16F070FA48452AD0514628689B
S214003AC416F0B0FA013704460028E8D021E0126860
S214003AD40B6907FB00209847ABE73C4B03AA53F857
S214003AE42670286802AB394616F056FA484507D0C1
S214003AF478B9039B012B0CD03946286816F092FA45
S214003B04344B394653F8083028681A6816F06EF9AC
S214003B1404460136292EA6D1B4FA84F32E4A5B094C
S214003B2413702E4B9C4241D02DD8002C32D0013B32
S214003B349C423FD0C5242DE0DBF8003003AA1F4486
S214003B44394602AB16F028FA48450AD010B10AF1F5
S214003B54010A97E7039B8BB9214B029AF35C9A42BE
S214003B64F5D01F4B1B4A9B5D52F80820394628683F
S214003B7416F0AEF80028EAD0044689E739462868E5
S214003B8416F050FAEDE7174B9C4211D004339C42D2
S214003B94D0D1C1242B681B7C23B14FF48971124801
S214003BA4FEF7AEFF204609B0BDE8F08FC324F1E768
S214003BB4C424EFE7C224EDE7C624F3E7FC1E002086
S214003BC4F81E0020F82D03002A2D03004C2E0300B7
S214003BD4212E0300542D0300C42C002002E000F024
S214003BE4F02E030004E000F0065403000BE000F09F
S214003BF4282970B506460C4615461AD8144A127873
S214003C0422B3144A1068144A52F82110134A125D5B
S214003C143AB1324616F038F9C0B1BDE87040FDF747
S214003C24B2BA7F2D08BF00253246294416F09AF80A
S214003C34F2E7FF2903D9BDE87040FFF799BB40F2CD
S214003C444511BDE870400648FEF75ABF70BD00BF78
S214003C54C42C0020F81E00204C2E0300F82D030070
S214003C64065403002828F8B504460D46164619D807
S214003C741449097829B31449144F0868144951F8AB
S214003C8424103C5D3CB1126816F0B0F8C8B1BDE82B
S214003C94F840FDF778BA7F2D08BF0025294416F0B2
S214003CA417F8F3E7FF2805D91A463146BDE8F84069
S214003CB4FFF782BB4FF4BC71BDE8F8400548FEF739
S214003CC41FBFF8BDC42C0020F81E0020F82D0300EA
S214003CD44C2E03000654030008B5084B1B7863B14A
S214003CE4074B002253F82010064B186816F00CF900
S214003CF418B1BDE80840FDF746BA08BDC42C00203C
S214003D044C2E0300F81E002070B5164685180AB916
S214003D14304470BD01F00F030A2B34BF302437241F
S214003D24013A2344090905F8013DD2B2EFE7000041
S214003D34F0B5F9B100281CDA2D23B0F1004F13704A
S214003D4400D04042012115E0801B8642ECB205F10A
S214003D540105F9D904B927B101274D1C3034545450
S214003D64E9B20133092B09D1303050540131C8B2BD
S214003D74F0BD002100231F46DFF808C05CF823606E
S214003D840025E2E77C5403002DE9F04F4FF0000BCA
S214003D9495B002AC81468A4617461D465E46A04646
S214003DA43B7863B902ABE41AE4B22246194650469D
S214003DB4C847002840F093803444E0B290E0252BB6
S214003DC413D0BBF1000F14D12370013412AB9C4204
S214003DD46DD3A4EB0804E4B2224641465046C847D5
S214003DE400287CD12644F6B260E0BBF1000F00D177
S214003DF401373B78632B00F092801BD8392B09D807
S214003E04302B80F09E80002BCCD0252B51D04FF049
S214003E14000BDBE7582B00F08B80622BF7D14FF0BA
S214003E24000B2B6801936B680093009B9B4543D162
S214003E340835ECE7702B1ED017D8642B01D06C2BFA
S214003E44E5D16C2B05F1040B28686CD17B78752BB7
S214003E5414BF0121002101D0642B00D10137224672
S214003E64FFF766FF04445D46D1E7752BE9D0782B4F
S214003E745ED0732BCBD1A4EB0804E4B2224602A98D
S214003E84504605F1040B2D68C84740BB2644F6B2DD
S214003E94C4B22B5D0130002BFAD122462946504687
S214003EA4C847E0B95D4683462644F6B24446013721
S214003EB476E723700134AAE7019B204613F80B101B
S214003EC40222FFF721FF12AB984204460ED3A0EB62
S214003ED40804E4B2224641465046C84718B10020BA
S214003EE415B0BDE8F08F26444446F6B2009B013B6D
S214003EF45B4582BF20232370013412AB9C420BD354
S214003F04A4EB0804E4B2224641465046C8470028BB
S214003F14E5D126444446F6B20BF1010B85E72B683F
S214003F2404352370C6E7752B0CBF0021012196E7E4
S214003F34204602222978FFF7E7FE05F1040B044623
S214003F4491E77A7802F0DF02582A19D1322B07F16A
S214003F54010B09D10422204629882F1DFFF7D4FE21
S214003F643D4604465F4652E7342B09D12F1D2D6883
S214003F740422290C2046FFF7C7FE0422A9B2EDE767
S214003F844FF0010B22E70EB403B503AA52F8041B44
S214003F94019207F081FDC0B202B05DF804EB03B0F5
S214003FA4704700000149FFF7EEBF00BFAF270300CC
S214003FB40EB433B505AA52F8041B0546019207F061
S214003FC46BFD04462846FFF7EDFFE0B202B0BDE8FD
S214003FD4304003B0704708B507F05EFDC0B208BDB8
S214003FE42DE9F04F9B46584B85B01B78064689460C
S214003FF41546109F9DF844A0DDF85080002B00F075
S2140040049280072A00F291800E9B002B00F08D8090
S2140040140F9B002B00F08980129BB3F5006F00F312
S2140040248480012801D1002F7FD0484B03EB051371
S2140040341B7B002B7BD0464C1022002168462EF0BA
S2140040442DFB04EB45141022B9F1000F5CD1494650
S21400405420462EF023FBA37843F01003A370E378E6
S21400406443F03003E370BAF1000F03D1DBB243F040
S2140040740303E37036496A01129B885A013B63F3D3
S2140040840E100E9B01EB020C8852CCF808300F9BE6
S2140040949DF84C10CCF804309CF80330012E61F3E4
S2140040A48303CDF800B08CF8033042D113230CF10F
S2140040B4100ECCF80C309CE80F008EE80F006FF062
S2140040C40301DCF81C20B9F1010F61F39F02CCF860
S2140040D41C20CCF8147004D10F9BCCF80470CCF8D8
S2140040E41830002719492A018B1841F80280159ABE
S2140040F428465A609F605E732246694602F050FF67
S214004104384605B0BDE8F08F002120462EF0C6FAEA
S2140041141023A3700323E370BAF1000FAAD1DBB215
S21400412443F03003A5E70B48EBE70B48E9E70B48F9
S214004134E7E7B8F1000FD4D19CF8023068F3041313
S2140041448CF80230CDE700BF482E0020C82C002093
S214004154482D0020028000F0018000F0078000F067
S21400416438B5104B05461B78BBB1C0B102F069F9EF
S21400417400230D4901EB0312147B3CB92B60012389
S2140041841460137302F063F9204638BD0133082B1C
S214004194F0D102F05CF90548F7E70548F5E705486D
S2140041A4F3E700BF482E0020C82C0020048000F04F
S2140041B4028000F0018000F038B502F042F90023D6
S2140041C405460A4AD1180C7B5CB91033802BF9D10A
S2140041D402F098FE064B28461C7002F038F920467A
S2140041E438BD284602F033F90248F9E7C82C002007
S2140041F4482E0020058000F00D4B10B51B780446B1
S21400420493B1072812D802F01CF90A4B03EB0413E7
S2140042141A7B2AB100241C7302F019F9204610BD3B
S21400422402F015F90448FAE70448F8E70448F6E704
S214004234482E0020C82C0020068000F0028000F0E3
S214004244018000F0164B13B51868002301908DF812
S214004254043002F0F6F8134B1C7824B102F0F7F899
S214004264114802B010BD01221A7002F0F0F80F4B8C
S2140042741C731C7783F82C4083F83C4083F84C402E
S21400428483F85C4083F86C4083F87C4004230DEB91
S21400429403008DF8073002F059FE2046E1E700BF20
S2140042A4A0540300482E0020038000F0C82C0020F1
S2140042B410B588B00E9C009207940D9C0246069496
S2140042C49DF8304005940B9C04949DF82840039474
S2140042D40024CDE9013420460B462146FFF780FE34
S2140042E408B010BD10B588B00E9C009207940D9CC3
S2140042F4024606949DF8304005940B9C04949DF861
S214004304284003940024CDE9013420460B460121BD
S214004314FFF766FE08B010BD08B50A4B1B785BB104
S21400432407280BD8084B03EB00131B7B43B1002173
S21400433402F0FCFD002008BD0448FCE70448FAE748
S2140043440448F8E7482E0020C82C0020028000F01D
S214004354018000F0078000F008B50A4B1B785BB1BB
S21400436407280BD8084B03EB00131B7B43B1012132
S21400437402F0DCFD002008BD0448FCE70448FAE728
S2140043840448F8E7482E0020C82C0020028000F0DD
S214004394018000F0078000F008B50A4B1B7853B183
S2140043A407280AD8084B03EB00131B7B3BB102F02B
S2140043B447FE002008BD0548FCE70548FAE705481F
S2140043C4F8E700BF482E0020C82C0020028000F02A
S2140043D4018000F0078000F00D4B1B7893B107288E
S2140043E412D889B10B4B03EB00131B7B73B10A4B3A
S2140043F4DA6A012303FA00F010401ABF00200B709B
S2140044040870704705487047054870470548704768
S214004414482E0020C82C002000000440028000F033
S214004424018000F0078000F00B4B10B51B780C469B
S21400443463B107280CD859B1084B03EB00131B7B58
S21400444443B102F00FFE2060002010BD0448FCE7D4
S2140044540448FAE70448F8E7482E0020C82C002051
S214004464028000F0018000F0078000F02DE9F84398
S214004474174B1F6D5B6D1F4000D5FEE70126002518
S214004484144CDFF85480DFF85490374217D0236872
S214004494C8F800609BB1A16862680131A160284633
S2140044A49847637B012B0AD148B909EB4513197B5E
S2140044B41A7F60F3410160F3410219731A770135DC
S2140044C4082D4FEA460604F11004DED1BDE8F88351
S2140044D400000440C82C002050200440482D002032
S2140044E470B504460125084E04B970BD94FAA4F0CC
S2140044F4B0FA80F005FA00F324EA030456F82030F4
S214004504002BF1D09847EFE74C2E00204FF00072B6
S214004514044BC3F880211A604FF08062C3F88021F0
S2140045241A60704700E100E038B504460D4601F015
S21400453488FF034B43F82450BDE8384001F087BF9A
S2140045444C2E0020084BD3F82404D3F82024104023
S21400455442F2204220F42A5020F02A004004400C64
S2140045649850FFF7BDBF00BF00C00340084BD3F808
S2140045742404D3F82024104042F2204220F4AA4017
S21400458420F055000004000C9850FFF7A9BF00BFA8
S21400459400C00340104A30B5136841611546ABB9F4
S2140045A41060836011E0091B9C6841611A467CB167
S2140045B423465C698C42F6D9002CF4D052B1906044
S2140045C4836013B15A69511A596130BD0022F0E76D
S2140045D42346F4E72860F3E7A02E002010B500F089
S2140045E4AFFA094B094A196831B11368C41A4B6902
S2140045F4A34203D31B1B4B61106003E0C01A0023C5
S21400460410604B6110BD00BFA02E0020902E00202D
S214004614074B10B51B6802205C69064B1B681C44DC
S21400462400F0C2FA2046BDE8104000F091BA00BF80
S214004634A02E0020902E002070B59DF8145016462B
S21400464405710025049A8560BDF818500446C58097
S2140046540260C0E903360D4629B961610BB1114603
S214004664984796B1354601F0ECFE0646FFF7B6FFCE
S21400467429462046FFF78EFF054B1B68A34201D14F
S214004684FFF7C6FF304601F0E2FE002070BD00BF13
S214004694A02E002000210C4A13687BB183420AD165
S2140046A4836879B18B6083681BB15A6941690A448F
S2140046B45A610020704719469B68EEE70028EFD041
S2140046C4022070471360EEE7A02E002070B501F0BC
S2140046D4B8FE114D06462C78CCB9104B1C60104B16
S2140046E41C60104B1C8000F0F1F9012000F05CFA0D
S2140046F400F0A8FA0C4B0246186040F2E731234655
S2140047040A482DF0E9FD0A4B186001232B70304649
S21400471401F09DFE002070BD8C2E0020A02E0020EF
S214004724902E0020982E00209C2E002018FCFFFFC0
S214004734942E00202DE9F0410546F8B101F081FEE3
S2140047440F4F0646FFF74AFF2846D7F80080FFF7C4
S214004754A1FF044628B1304601F079FE2046BDE8A4
S214004764F081A8453B6803D123B1FFF751FFF2E778
S214004774002BF0D1022000F023FAECE72224EDE728
S214004784A02E0020F0B50D4685B016461F460446FA
S21400479480B1FFF7CFFFBDF82C30002202939DF8BE
S2140047A428302946CDE9007320463346FFF744FFF8
S2140047B405B0F0BD2220FBE738B50C46054698B197
S2140047C491B100230B7001F03CFE0121074B1B68DE
S2140047D40BB122781AB101F03AFE002038BD9D4292
S2140047E40CBF21709B68F3E72220F7E7A02E002079
S2140047F4F0B51F46002387B00D4616468DF81730D1
S2140048040446A0B10DF11701FFF7D6FF9DF8172057
S2140048147AB9BDF83430294602939DF830302046E4
S214004824CDE900733346FFF707FF07B0F0BD22203B
S214004834FBE70320F9E70000F8B50C460646C8B1C6
S214004844C1B101F0FEFD0546FFF7C8FE736923609B
S214004854134B1B68B3420FD023B9284601F0F7FD6B
S21400486403201CE0596922689B680A442260F1E729
S21400487400230FE0222012E0276800F061F9094EB9
S2140048843368C01A8742F3D900F05AF93368C01A5D
S21400489423681B1A2846236001F0D9FD0020F8BDC2
S2140048A4A02E0020902E002070B501F0CAFD06460A
S2140048B400F046F9094B05461C880120A4B200F016
S2140048C497F918B100F03CF905460134304601F07A
S2140048D4BEFD0022214642EA050070BD982E002047
S2140048E40A4B10B51B680C4683420CD3084B4FF496
S2140048F47A7219680023A0FB01012DF0EDFC01304B
S2140049042060002010BD2120FCE700BF942E00206C
S2140049149C2E0020104B10B51A684FF47A73A0FB37
S2140049240301A2B1531E134211D1B2FA82F2C2F1AC
S2140049341F02C2F12004A2F1200301FA04F420FAB3
S21400494402F2224321FA03F342EA030010BD0023D5
S2140049542DF0C2FCFAE700BF9C2E0020F8B51646E0
S2140049641BA3D3E900238B4208BF82422AD3174BEA
S2140049741A684FF47A73A0FB034503FB0155C2B1D2
S214004984531E13EA020014D1B2FA82F2C2F11F02D5
S214004994C2F12007A2F1200124FA02F305FA07F770
S2140049A43B4325FA01F10B4325FA02F2C6E900322D
S2140049B4F8BD0023204629462DF08EFCC6E90001EA
S2140049C40020F5E72120F3E7AFF300809C2E0020BB
S2140049D4EFA7C64B37894100C2072DE9F84F0446B6
S2140049E40BD5374A138801339BB21380FFF7F6FDC5
S2140049F4344B1B680BB1FFF70BFEA3075DD500F025
S214004A049FF8314E074635684FF0000A451B01F003
S214004A1418FD8046DFF8AC90D9F80040002C48D04A
S214004A246369AB4209D95D1B65613760FFF7F0FD2A
S214004A344046BDE8F84F01F00ABD23462A463760D3
S214004A445969914209D8187994F804C0521A8445D1
S214004A5488BF1C469B68002BF2D1404601F0F7FC49
S214004A64D4F81480C4F814A001F0EBFC8346204666
S214004A74FFF710FE584601F0EAFC23694BB101F03B
S214004A84E0FC834621692046FFF784FD584601F082
S214004A94DEFCE36813B121682046984700F050F81E
S214004AA44744ED1B0446054401F0CBFC27468046EC
S214004AB4B2E7022000F084F8BAE7BDE8F88F00BF3A
S214004AC4982E0020A02E0020902E00201FB5002433
S214004AD4184B18689A88029053F8060FADF80C2005
S214004AE41B79009002A88DF804308DF808408DF8E4
S214004AF40C4002F041FB694601208DF8004002F0AC
S214004B04FFFA4FF090431F219A6922F01F029A6120
S214004B14094A11609A6A12F00802FBD11A6201204F
S214004B2402F008FB4FF48062044BC3F880211A603D
S214004B3404B010BDA45403001420004800E100E0B3
S214004B444FF090439A6A1207FCD4186A7047000024
S214004B544FF09042936A1907FCD4136A116C526999
S214004B64120704D4CA1A022A01D899420ED1C21ACC
S214004B74012A98BF981CB0F1FF3F28BF01304FF0C0
S214004B84904318649A6942F008029A61054A1378B9
S214004B943BB14FF09041CB6B43F00203CB63002351
S214004BA413707047981E002082074FF0904200F062
S214004BB40103916948BF43F008030B4393617047B0
S214004BC4830700F001020AD50121084B42F00802CF
S214004BD419704FF09041CB6B23F00303CB634FF077
S214004BE490418B6923EA02038B617047981E00206C
S214004BF44FF0904301285B6904D0022805D1C3F323
S214004C04C000704703F001007047002070470000A2
S214004C1410B501F016FC4FF0904304465B691A0782
S214004C24074A03F0010003F00D0348BF40F00200FA
S214004C341360FFF7D1FE2046BDE8104001F007BC24
S214004C44142000481B2001F00DB900000022114674
S214004C542D48F0B503682D4D54592CB11E68AC1878
S214004C64002E3DD1234601210832282AF4D101B171
S214004C740360002214462649264E0B6895592DB12A
S214004C841F68B518002F32D12B4601240832282A73
S214004C94F4D104B10B6000680368002B2FD04FF0EA
S214004CA44022936F007923F0FF7323F4803343EAA2
S214004CB400439367184B4FF0004209681A600B686C
S214004CC4FBB14FF04022936F097923F4FF7323F06E
S214004CD401030B439367104B4FF080421A60F0BDFC
S214004CE41E792779B74284BF23460121BCE71F7982
S214004CF495F804C0BC453CBF2B460124C6E7074BC9
S214004D04D9E7064BE8E700BFA82E0020B82E0020FF
S214004D14AC2E0020E02E0020685000406860004062
S214004D2410B5012228240F4B00211A700E48224683
S214004D342DF0B4FC224600210C482DF0AFFC0C4BA1
S214004D440C4A13600C4A13604FF040430B4A13603E
S214004D54536020220A4BC3F880211A60FFF776FFBF
S214004D64002010BDA42E0020B82E0020E02E002027
S214004D74B02E0020A82E0020AC2E00206460004038
S214004D8400E100E04FF04022D2F88800D2F88830E4
S214004D94C0F38800C3F388039842F5D16FF4887390
S214004DA4184440B2704700004FF04022936E526E93
S214004DB410B5134013F0804211D0114B1B681C68C9
S214004DC42CB1002119605960FFF7DCFFA0474FF0B3
S214004DD480420C4B1A60BDE81040FFF737BF002B2B
S214004DE4F9DA094B1B681C682CB11A605A60FFF785
S214004DF4C9FF0121A047034B4FF00042EAE700BF7A
S214004E04AC2E002064600040A82E0020FFF7CCBF24
S214004E14012203685A619A69D207FCD541F2AC5262
S214004E24042103795B0103F1804303F57033995041
S214004E347047000038B141B1013AB2F5006F04483A
S214004E4438BF00207047034870470148704700BFCA
S214004E54037000F0027000F038B504460D4601F009
S214004E64F0FAA28892B222B92A6001F0F0FA064853
S214004E7438BD1422638802FB034308332B6001F019
S214004E84E6FA0020F4E700BF0B7000F038B50446DD
S214004E940D4601F0D6FAA3889BB223B92B6001F025
S214004EA4D6FA0C4838BD14226388E18802FB034313
S214004EB408332B6063885A1C92FBF1F301FB13231F
S214004EC49BB26380A388013B9BB2A38001F0BFFA28
S214004ED40020E7E70B7000F090F83130022B0BD17E
S214004EE43022437F90F821005A43044B9B5823FA00
S214004EF400F000F0010070470020704714C0034023
S214004F04002313B51C4A52F8234094F8211081421A
S214004F140ED00133042BF6D102B010BD0028FBD10D
S214004F249DF80730002BF7D0A068FFF7F5F9F3E7F4
S214004F3494F83130022BEFD12046FFF7CDFF637E85
S214004F442076022BE8D194F82E3003F0FF02002BD3
S214004F54E2D102A901F8012DA068FFF73DFA237EED
S214004F641BB194F82F30002BD8D00023A06884F807
S214004F742F30FFF7F1F9CFE7082F0020012230B5D4
S214004F8490F8324087B080F82C207CB9094D03682D
S214004F94CDE9024504904C682433CDE900240A6820
S214004FA44169C068FFF79EF907B030BD002380F85A
S214004FB42C30F9E76D580000012330B590F83240E4
S214004FC487B080F82D307CB9094D0268CDE90245DA
S214004FD404904C683C32CDE900340B680169806863
S214004FE4FFF766F907B030BD002380F82D30F9E7E7
S214004FF4F94F0000F7B5906A01A91446FFF72CFF95
S214005004144B984220D00025019B1D619D6001F041
S21400501418FA019A0746D66826B1D2E9002329462B
S2140050242046B04701A9A06AFFF730FFA06A83882C
S2140050349BB263B101A9FFF70FFF01992046FFF762
S214005044BBFF384601F003FA012003B0F0BD84F834
S2140050542D30F6E70B7000F0F8B5044617460D46FB
S21400506401F0EFF9A388E28806469A4205D80023A1
S2140050743B6001F0ECF91648F8BD1422238805F1CC
S214005084100C02FB034308332A4603CA6245186021
S2140050945960154603F10803F6D110681422186007
S2140050A42388E18802FB034308333B6023883046A9
S2140050B45A1C92FBF1F301FB13239BB22380A388B3
S2140050C401339BB2A38001F0C2F90020D4E700BFED
S2140050D40A7000F02DE9F3410D460446002800F05E
S2140050E4868001F0AEF9012D064637D1A36A9B8867
S2140050F49BB2002B39D0A068FFF74EF90023A06AB4
S21400510484F82D3083889BB2002B34D122689369AF
S2140051149B04FCD5023D012D1BD8E068FFF73CF943
S2140051240023606A84F82C3083889BB2002B41D11C
S21400513494F83130032B0CD042F2AC52042123797C
S2140051445B0103F1804303F5703399500222236810
S2140051545A61304601F07BF9002009E0022D48D15F
S214005164636A9B889BB2002BD4D101F070F9264861
S21400517402B0BDE8F08101A9FFF76EFE0199A068B0
S2140051840831FFF751F9214F019B1F61A06A8388FC
S2140051949BB2002BBAD001A9FFF778FE019BD3F887
S2140051A40C80B8F1000FF1D09B68002239462046E7
S2140051B4C047EBE76946FFF74FFE0099E068083101
S2140051C4FFF732F9114F009B1F61606A83889BB218
S2140051D4002BADD06946FFF759FE009BDD68002D15
S2140051E4F3D09B68002239462046A847EDE70848D6
S2140051F4BEE7032D8ED1A36A9B889BB2002B7FF457
S2140052047AAF636A73E700BF087000F0097000F0B5
S214005214027000F0036898697047436A9888C0B2C1
S21400522470472DE9F341984600230546406A0E462A
S21400523484881746A4B2CDE900333CB16946FFF72B
S2140052440BFE01A90446E868FFF7EEF8009969B179
S21400525464B94868019BC01A3860C8F800300B6807
S21400526433602B68986902B0BDE8F0810021C8F865
S214005274001039603160F4E7836A9888C0B27047DA
S2140052842DE9F341984600230546806A0E46848835
S2140052941746A4B2CDE900333CB16946FFF7DCFDFE
S2140052A401A90446A868FFF7BFF8009969B164B974
S2140052B44868019BC01A3860C8F800300B68336031
S2140052C42B68986902B0BDE8F0810021C8F8001088
S2140052D439603160F4E7007E70472DE9F0410446FA
S2140052E40F469046FFF7A6FD0546002839D115203F
S2140052F401F0CCF80646A26A93889BB213B194F8E0
S2140053042E308BB323689E6916F002060ED1042253
S2140053145A619A699207FCD541F2AC52102123795E
S2140053245B0103F1804303F570339950012384F83D
S214005334303094F8323033B9B8444745206818D131
S21400534483699B06FCD566B942F2AC5210212379D8
S2140053545B0103F1804303F57033995008222368F8
S2140053645A612846BDE8F081002EC5D0FFF77EF8C6
S214005374C1E717F8011B02F083F9DEE710B504460F
S21400538480B190F82E302BB9FFF7A6FD10B9A068AF
S214005394FEF7C2FF002094F82E300133DBB284F807
S2140053A42E3010BD0048FCE7027000F010B504462D
S2140053B4A0B190F82E309BB190F82E30012B05D179
S2140053C4FFF78AFD10B9A068FEF7C6FF002094F820
S2140053D42E30013BDBB284F82E3010BD0148FCE7CA
S2140053E40148FAE7027000F0057000F037B590F84F
S2140053F431500446022D1ED1012190F82220457E0C
S214005404837F01FA02F23020154925B900FB031305
S21400541442F2100105E0012D07D100FB031341F20F
S21400542410015A50002003B030BD247E00FB031345
S214005434002CF4D1ECE7012DF4D1037E73B91123CB
S2140054448DF80730FFF79AFF2A460DF1070120462C
S214005454FFF743FF2046FFF7A9FFE3E71323EFE731
S21400546400C00340F0B504468BB09E4F03AE0D4615
S2140054740FCF0FC697E8070086E807001CB99A4CBA
S21400548420460BB0F0BD0DB9984CF9E73822002140
S21400549420462DF003F99649964A0B78002B40F0E7
S2140054A4D3800120C2E90033C2E90233087042F80F
S2140054B423402B7D286884F831300023206084F84C
S2140054C432302B7B23718C4B984240F0CA802023C9
S2140054D484F82330894B23614FF4802300266361CC
S2140054E4D5E90723626216805680968084F82C607D
S2140054F4A3621E805E809E806B6803A90593EB8979
S21400550484F82D60ADF81C302B8A84F82F60ADF833
S2140055141A30AB7C8DF80C608DF81830EB7C8DF867
S2140055241E3005238DF8193002F02CF814212A7B3E
S214005534734B287A03EB4217C7F8AC15A97A2E32B8
S21400554440EA014C03EB4213C3F804C06A7AEB7AD0
S21400555442EA034CC7F8BCC5E17784F820306B7D7B
S214005564E07622776377AB7D042284F82130EB7DE6
S214005574A3772B7E84F82230012301F047F8012319
S214005584022294F82010207F01F040F894F831307D
S214005594022B7DD13346012294F82110607F01F05E
S2140055A435F83346042294F82210A07F01F02EF832
S2140055B4012394F82120607F1146CDE9003300F0E2
S2140055C4DFFF00F03EFF2E7D0746032E71D141F229
S2140055D4AC5202212B7B04205B0103F1804303F5CC
S2140055E47033995041F25C0229688850297EEA7D1E
S2140055F442EA014241F2B8515A50A97D6A7D42EA14
S214005604014241F2B4515A504FF0FF3242F248037D
S2140056142868C2502B7D032B0CBF0521042101F002
S2140056246BFF4FF440622B685A61FEF70BFE0021B5
S21400563404F10800FEF794FD014600284AD0314CD8
S214005644384600F004FF1BE7002352F82310002915
S2140056543FF42DAF8C423FF42AAF0133042BF4D130
S2140056640DE7294B984207D1212384F82330274B92
S21400567423614FF4A02331E7254B98427FF404AF0F
S214005684222384F82330234B23614FF4C02325E7D9
S214005694032B96D1334694F82110607F012200F044
S2140056A4B5FF3346042294F82210A07F00F0AEFF24
S2140056B487E7022EA8D194F821001749FEF734FF95
S2140056C4FEF724FF00236676A37623762046FFF7AC
S2140056D48DFE99E704F10C00FEF742FD044600280F
S2140056E4AED0ACE7B0540300027000F0037000F0D4
S2140056F4182F0020082F0020008005400200040018
S21400570400C003400E7000F000C005400200050013
S2140057140000064002000600054F000090F83130F5
S214005724032B05D00229417618BF0176FFF75EBE2B
S21400573400487047057000F013B50446002862D090
S2140057440321FFF7C7FC00212046FFF7E7FF0023ED
S214005754E17F1A46E07E00F059FF002394F82010FB
S2140057641A46207F00F052FF94F83130022B39D1CC
S214005774002394F821101A46607F00F047FF0023A8
S21400578494F822101A46A07F00F040FF002101235F
S21400579494F82120607FCDE90031114600F0F0FE38
S2140057A494F8323013B90A2223685A6194F83130D7
S2140057B4032B04D0002194F82100FEF7B5FEA06860
S2140057C4FEF71AFDE068FEF717FDFEF7F5FC00206D
S2140057D4636A188058809880A36A188058809880D6
S2140057E402B010BD032BDBD1002394F821101A4617
S2140057F4607F00F00BFF002394F822101A46A07F67
S21400580400F004FFCCE70148EAE700BF027000F0AE
S214005814F0B587B004461646FFF70CFB0546E8B914
S2140058240493104BCDE901166A4601A9606A0396F3
S2140058340593FFF711FC054680B994F82C306BB934
S2140058442046FFF7E5FA0099FFF798FB94F8313005
S214005854032B03D025762046FFF7C8FD284607B05D
S214005864F0BD00BF017000F073B5506A01A914467C
S214005874FFF7F2FA2F4B984230D094F83200019B8F
S214005884002839D12268916C11F4007129D02A4974
S2140058949860196142F248034FF40071D15000F049
S2140058A4D0FD01990646CD6835B14A688B68204616
S2140058B4D31A0A680969A84701A9606AFFF7E6FAD5
S2140058C4606A8588ADB2DDB101A9FFF7C5FA019912
S2140058D42046FFF753FB304600F0B9FD012002B026
S2140058E470BD906CC00507D51448996018614FF4D4
S2140058F4807142F24803D1E700221A619A60CEE72B
S214005904012320462376FFF771FD94F8313084F89E
S2140059142C50032BDFD042F2AC52042123795B01D6
S21400592403F1804303F570339950022223685A61C9
S214005934D1E700BF0B7000F00D7000F00C7000F0A3
S21400594490F8312010B5012A034610D102290ED052
S214005954827E8A4201D1002010BD997611B9FFF7E4
S21400596425FDF8E70129F6D1FFF708FDF3E701481E
S214005974F2E700BF057000F0F0B587B0044616469F
S214005984FFF758FA054600BB0493114BCDE9011600
S2140059946A4601A9A06A03960593FFF75DFB0546D0
S2140059A498B994F82D3083B900F04BFDA36A0646E7
S2140059B49B889BB233B100992046FFF7FDFA01237A
