S013000053575F5A425F56315F305F302E73333738
S214000000001B0020299D0100DD390000E1390000B9
S214000010A70B0000000000000000FFFF54000000D7
S21400002004180F00000000000000000000000000A0
S21400003000000000000000000000000000000000BB
S214000040000000000000000000000000A701000003
S20800005000000000A7
S214000054001B0020299D0100DD390000E139000065
S214000064A70A0A010002000004180FACA067A70143
S2140000740000000000000000000000000000000077
S2140000840000000000000000000000000000000067
S2140000940000000000000000FFFFFFFFFFFFFFFF5F
S2140000A4FFFFFFFF006007000000000000000000E4
S2140000B4FFFFFFFFFFFFFFFF8000000000000000BF
S2140000C40000000000000000000000000000000027
S2140000D40000000000000000FC4F0020FC4F002041
S2140000E4001B0020A49C0300F01C0300A0110020A9
S2100000F47C11002000E007000000000067
S214000200001B0020299D0100DD390000E1390000B7
S21400021085860000E5390000ED390000279D0100C5
S214000220279D0100279D0100279D0100279D0100B5
S214000230F1390000279D0100279D0100279D010040
S214000240643A0000643A0000643A0000643A000031
S214000250643A00002956000059630000643A000022
S214000260643A0000643A00002D54000005B1000016
S214000270643A0000643A0000643A0000643A000001
S214000280643A0000643A0000643A0000279D0100CA
S214000290643A0000894C0000643A0000643A0000AA
S2140002A0643A0000894D0000614D0000643A000089
S2140002B0643A0000643A0000643A0000F9760100EF
S2140002C08576010081760100C16D0100F57601009A
S2140002D089760100A97601008D760100279D010030
S2140002E03D770100643A0000643A0000C53C000017
S2140002F0643A0000643A0000643A0000279D01005A
S214000300643A0000643A0000643A0000643A000070
S214000310643A0000643A0000643A0000643A000060
S214000320643A0000643A0000643A0000643A000050
S208000330643A000026
S214000334F8B500BFF8BC08BC9E467047F8B500BFC9
S214000344F8BC08BC9E46704710B5054C237833B9F4
S214000354044B13B1044800E000BF0123237010BD12
S21400036408240020000000009493030008B5034B03
S2140003741BB10349034800E000BF08BD00000000AD
S2140003840C24002094930300154B002B08BF134B3A
S2140003949D46A3F5803A00218B460F461348144A1F
S2140003A4121A31F07FFC0F4B002B00D098470E4BEF
S2140003B4002B00D098470020002104000D000D48B3
S2140003C4002802D00C4800E000BF31F02DFC2000CD
S2140003D429000BF0BFF831F013FC00BF0000080042
S2140003E4001B00200000000000000000082400207D
S2140003F4FC4F002000000000000000001FB5012391
S2140004040022009306210DF10F030DF06AFA20B9BD
S2140004149DF80F3023B103F025FB05B05DF804FB0F
S21400042403F021FBF9E7000013B5044600900A4BDD
S2140004340A4A0B4901200EF03DFC5CB122460949EC
S21400044401200EF037FC0094074B084A04490120AB
S2140004540EF030FC02B010BDF01C0300F91C0300C3
S214000464FE1C0300121D0300DC3403003E1D0300C3
S214000474FFF7C4BF09B9FFF7C1BF704738B5C37BE0
S21400048405460BB1832038BDC47C2CB902F034FB7E
S21400049420B9EB7B002BF5D18120F4E72046F2E768
S2140004A438B5C37B05460BB1832038BDC47C6CB914
S2140004B4017D82898B1C9A420AD380680DF05BFF0B
S2140004C407F0A0FF30B9EB7B002BEDD18120ECE7E1
S2140004D48020EAE72046E8E7C37B10B504460BB164
S2140004E4832010BDC37C1BB1012B10D08120F8E7FC
S2140004F4017D82898B1C9A420CD380680DF03BFFE9
S21400050408F038F940B9E37B002BE9D1EEE708F0B0
S21400051449F9F7E78020E4E70020E2E7C37B10B55B
S21400052404460BB1832010BDC37C012B0BD003D330
S214000534022B0BD08120F6E709F09AFC48B9E37B3E
S214000544002BEFD1F6E709F0A3FCF7E709F0B0FCBF
S214000554F4E70020E7E7C37BF7B50446002B40F03A
S214000564D280C37C072B00F2D080DFE813F00800AB
S2140005743800590086009B00AA00B600C900037D17
S2140005848289591C8A42C0F0C2809DB2691C881CAC
S2140005948242C0F0BC80A068C75C0DF0ECFEEB1C89
S2140005A4A6895A1C964228BFA268014624BFD25C7C
S2140005B42B1D03F1010038BFFF2286422ABFA06824
S2140005C4FF23C35C384608F0D7FD002840F0A1801E
S2140005D4E37B002B14BF8320812003B0F0BD067D8F
S2140005E48589731C9D42C0F09280B7B2BA1C9542AE
S2140005F407F10103C0F08B808068C15C13460132AA
S214000604954224BFC25CFB1C03F1010738BFFF22DE
S214000614BD422CBFC35CFF23805D08F0C1FDD4E758
S214000624037D8289591C8A4271D39DB2A91C8A42D1
S21400063405F101076BD3881C824268D3A068C65CA8
S214000644C75D0DF098FE291DB4F80CC04B1C9C45E4
S21400065428BFA368024624BF5B5C691D01F1010044
S21400066438BFFF23844532BFFF21A068415C304673
S2140006740091394608F0A4FDA7E7027D8189501C45
S214000684814293B222BFA0680133805C03F1010269
S21400069438BFFF2091422ABFA268FF21D15C08F030
S2140006A4A1FD92E7017D8289CB1C9A422FD38068F4
S2140006B4455C01310DF05FFE0146284608F066FDF4
S2140006C483E7037D81899A1C914220D38268591C52
S2140006D4515CD05C08F06CFD77E7037D8289191DB8
S2140006E48A4214D3806899B2C55C4B1C0231C65C3E
S2140006F40DF041FE31460246284608F06AFD64E7DE
S21400070408F075FD61E7832067E7812065E78020B0
S21400071463E7002061E738B5C37B0446002B437DBE
S21400072414BF8325C325012B19D10368028A59886F
S21400073458790CF04FFB90B123685B88032B03D0E9
S214000744062B06D0284638BD2046BDE83840FFF7BD
S214000754A7BEE37B0BB18325F4E78125F2E7637D2F
S214000764002BEFD12368228A598858790CF029FB8C
S2140007740028E7D023685B88062B1BD007D8A3B1D4
S214000784032BDFD12046BDE83840FFF7A5BEB3F5FE
S214000794806FDED040F202429342DAD0082BD1D1E9
S2140007A42046BDE83840FFF7D6BE2046BDE83840B0
S2140007B4FFF764BE2046BDE83840FFF7AFBE70477B
S2140007C401207047012070470120704770470020C1
S2140007D470470020704700207047002070470020B4
S2140007E470470020704700207047012070470120A2
S2140007F47047B520704700207047002070470020DF
S21400080470470020704770470020704700207047EC
S21400081470478120704700207047842070477047D7
S21400082470477047012070470246024901200EF0C7
S21400083441BA00BF431D030070477047002070474D
S2140008447047002070470000034B1B681878012887
S21400085408BF0220704700BF1039002000207047F0
S21400086403460120024AC3E9032000221A70704797
S2140008740100FEFF704700207047002070470020EC
S214000884704700207047002070470020704770476C
S214000894B52070470020704700207047704700203E
S2140008A4704770477047B520704770477047704769
S2140008B400207047704770470023FF21084A1370D2
S2140008C482F8783082F8653082F8773082F87930AA
S2140008D482F87A1082F87B30024A1360704700BFB1
S2140008E424240020A0400020F8B50D468C680A6831
S2140008F406462849202003F052FF6B687BB9264938
S214000904202003F04CFF20200AF0E0F923492020A1
S21400091403F05AFFBDE8F84020200AF0D7B9002EAD
S214000924F1D01F4D1F4E204F013C14F8013F23B950
S2140009341A49202003F048FFE5E7752B18D0762BDC
S21400094418D0772B18D0732B18D0722B18D0712B85
S21400095418D0622B18D06E2B18D02A2B18D0134917
S214000964134A212B18BF1146202003F018FFDCE79A
S2140009742946F9E73146F7E73946F5E70D49F3E73F
S2140009840D49F1E70D49EFE70D49EDE70D49EBE7B2
S2140009940D49E9E7B1690300FE1D0300AF1D03001E
S2140009A4BC1D0300B01D0300C71D0300081E030082
S2140009B4051E0300D31D0300DD1D0300E81D030010
S2140009C4F31D0300FD1D0300021E0300F0B5002600
S2140009D4204A92F87B30184452FA80F090F865C0AA
S2140009E490F8665030461C4BA5EB0C051F78EDB20C
S2140009F4F4B2A54225D90CEB060313445B7811B177
S214000A040CB92D2B17D0782B1FD0582B05D108B135
S214000A1437240AE0013C012C14D9602B17D8402B4C
S214000A24F6D83A2B34BF302400241B1BDBB29F427B
S214000A3403D900FB07300136DAE70523002082F8E5
S214000A447930F0BD10270020F5E70028E2D05724BF
S214000A54EBE700BF24240020981C0020FFF72CBFDF
S214000A64034B93F8770093F87B30C01AC0B27047F4
S214000A74242400200021FFF7A9BF000010B50A4B6C
S214000A8493F87B20024453FA82F292F865201344CA
S214000A945C78A4F12D0359425941FFF797FF2D2C9A
S214000AA408BF404210BD00BF2424002030B50C4AC5
S214000AB492F87B300344C043DBB2C00F39B1D5187B
S214000AC495F8664095F86550641B241A0C7042FA33
S214000AD483F393F865301844024B184430BD00BFC6
S214000AE42424002025240020F7B515460E460DF1D3
S214000AF407011C46FFF7DAFF9DF807300746AB42AE
S214000B0488BF8DF807501CB19DF807402C1BE4B233
S214000B1422463046002100F079FB30199DF8072064
S214000B24394600F017FB9DF8070003B0F0BD38B552
S214000B340C4601230822FFF7D7FF04F10803621EC0
S214000B44043413F8011D12F8015FA3421D701170DE
S214000B54F7D138BD38B5054601460120FFF7C4FE77
S214000B64D5E901436CB91C46084D236863B1294690
S214000B74202003F014FE21460020FFF7B5FE0C34B7
S214000B84F3E71B786E2BEFD038BD00BF7435030037
S214000B9408B50449202003F002FEBDE808402020E2
S214000BA40AF094B8701D030038B5FFF7F1FF00246F
S214000BB4054D61190C34631953F80C3C03B938BD60
S214000BC40020FFF791FEF4E7F82A03002DE9F84F1A
S214000BD41F4B204D53F820201F49202003F0DFFD33
S214000BE42B681BB9BDE8F84FFFF7DEBF1B4FFFF7B6
S214000BF4CFFF0026B946DFF86CA097F87B30F4B236
S214000C04013B9C4204DB2868BDE8F84FFFF7A2BF0F
S214000C1447FA86F393F8658000234C44C84494F856
S214000C24662094F8651003F1010B521ADBB2D2B2B7
S214000C34934205D30A49202003F0B1FD0136DCE7D0
S214000C4443445A785146202003F0A9FD5B46E6E764
S214000C549C1C0020A04000206B1D030024240020C0
S214000C6475350300306E03002DE9F74F884C94F871
S214000C747730002B00F0A180864B671C1B7813F09E
S214000C84010F1FD00025844E14E0631993F86620E4
S214000C9493F865302020D21A44FA85F393F8651049
S214000CA4D2B239440AF00DF83146202003F077FD1D
S214000CB40135EDB294F87730AB42E6D87749202078
S214000CC403F06DFD002694F87730DFF8DCE101933D
S214000CD4734B4FF00008714645461EF8012B91F8F9
S214000CE401C007EB020AACEB020C5FFA8CFC186836
S214000CF4002852D00138D14619E02AB9002D4AD02E
S214000D044FF001080C33F2E719F8011BA1F1410B6F
S214000D14BBF1190F98BF2031A2F1410B98BFC9B29D
S214000D24BBF1190F9CBF2032D2B28A42EAD1A9EB9A
S214000D340A01614510F8012FDFD1002ADED11D46D5
S214000D44584B01361D6094F87B30F6B2013384F8B4
S214000D547B30D5E90123002A35D01B786E2B31D0A1
S214000D643F2B23D04FF000094FF0070BC84604234F
S214000D7494F87710AA68B14212F808702BD8AFB16D
S214000D84904498F801302A2B10D0212F1CBF03233F
S214000D9484F879300AE01D46B4E7B8F1000F01D1B3
S214000DA4002DCDD10223002584F8793094F87900FB
S214000DB4002869D168680CF0CDFF03B0BDE8F04F99
S214000DC4FFF77ABD1346019AB24282D803221D4623
S214000DD484F87920EAE7732F09D8712F0BD2212FD4
S214000DE41FD0622F3CD0002F4BD1032246E0A7F140
S214000DF47502022A45D8752F29D0762F2AD0732F4C
S214000E042BD0722F47F6FF7A18BF4FF0FF3A012116
S214000E1448460193FFF7DAFD5045019B01D984F853
S214000E247930AA68424452782A2A94F879201CBF5A
S214000E3408F101085FFA88F8002AB7D1212F1FBFEE
S214000E44013609F10109F6B25FFA89F990E74FF025
S214000E54FF0ADCE74FF6FF7AD9E74FF07F0AD6E7BA
S214000E6494F87B204A4454FA82F292F8652022448D
S214000E745278222AD5D07B2AD3D0052284F879202A
S214000E84CFE784F879B0CCE7FFF7A0FE95E700BF7C
S214000E9424240020A024002075350300AD1D030083
S214000EA4F82A0300A0400020892400202DE9F341FD
S214000EB406460D464FF000085C4C5D4F66B90DF1D2
S214000EC40701284609F0F8FE78B1262800F0A98024
S214000ED4012384F879304BE0002D00F0A28016F848
S214000EE4013B013D8DF80730EDB23A789DF80730A6
S214000EF40D2A3B7001D10A2BE0D00D2B0CD0A3F1A8
S214000F040A025142514122788846042AD6D8DFE89C
S214000F1402F0051D263C31000121F4E721B1FFF75C
S214000F24A3FE4FF00108C9E7202B63D0222B07D17C
S214000F340223237094F87820642A5DD10623C8E738
S214000F447B2B01D10323F4E70123F2E709B9202B15
S214000F54F0D194F87730112B3FD10323B9E7222B35
S214000F64F7D00029E6D005234FF0010884F879303D
S214000F7404232370B8F1000FA0D094F8790008B1C8
S214000F84FFF724FEFFF798FC98E77D2B94F87A0089
S214000F9403D1FF28DDD005239BE7602B13D8402B15
S214000FA413D8392B8CBF002230229A1AD2B20F2AB9
S214000FB410D8FF280BD0FF2302EB00128DF8072071
S214000FC484F87A30B6E75722EFE73722EDE784F85D
S214000FD47A2073E7202BDED170E70133DBB294F876
S214000FE4782084F87730234483F865200023237020
S214000FF4002994D1884661E72378012B09D19DF80E
S2140010040730A3F1410119299CBF2033DBB28DF8C8
S21400101407309DF80710A3180132597084F8782019
S2140010244CE7404602B0BDE8F08100BF242400200F
S214001034A124002049BA89B24840C0F303114140B4
S214001044080380B24840C3B280EA4310704719F0E0
S21400105455BE704770477047704770477047704773
S2140010647047704770477047704770470020704756
S21400107470477047002070477047704700207047DD
S21400108470477047704700207047704701207047CC
S2140010940120704770477047704770477047704725
S2140010A4704700002DE9F0470024204DDFF89C909F
S2140010B4DFF89CA05FFA84F840461DF0D9F9FF28B3
S2140010C406460CD122461A49287803F07DFB287878
S2140010D4013409F0FBFD142CECD1BDE8F087154B68
S2140010E447B213EA270338BF534659F82420124957
S2140010F4287803F069FB002FE9DA14B1B8F1030F7E
S21400110408D10E4B16F0010F0D49287818BF194662
S21400111403F05AFB0A2CDAD10A4B16F0010F0A49DF
S214001124287818BF194603F04FFBD0E7FD200020AF
S214001134251F0300AF1D03004D1F0300E81E030018
S214001144FE1E0300101F03001A1F0300941E030054
S214001154246A03008842F0B54FEA92031AD804467C
S2140011640D469BB29E00871904370434BC4205F131
S21400117404053AD1C3EB8333314402EB8303013EC7
S214001184304411FA83F3994220D011F8012B00F869
S214001194012FF8E7541E204421440D4604469BB212
S2140011A4A0EB8306043E043CB442A5F104050ED12C
S2140011B46FF003045C43C3EB833302EB83032144E5
S2140011C49BB201342044CB1A994209D1F0BD2F7941
S2140011D42771EF78E770AF78A7706F786770E2E7EB
S2140011E411F8012900F8012DEEE715F804CC04F8EF
S2140011F404CC15F803CC04F803CC15F802CC04F898
S21400120402CC15F801CC04F801CCAEE702449042B7
S21400121400D1704700F8011BF9E710B50138013911
S2140012240AB9104606E010F8014F11F8013F9C4237
S21400123401D0E01A10BD013A92B2F1E782B2074B30
S2140012444AB1000C1A8008BF4FF6CE22044B14BFD6
S21400125418801A8070474BF6EF62F2E76C1D002088
S2140012646E1D0020094B1888020448BF80F06200F7
S21400127442001A80064A1388190444BF83F4805334
S21400128483F00B0359001180584070476C1D0020F2
S2140012946E1D00200022034B1870034B1970034B7D
S2140012A41A707047AB240020AA240020AC24002027
S2140012B42DE9F04F234E85B0337807468846002B39
S2140012C43DD04FF6FB73204D98422C7803D952211B
S2140012D41E4802F021F81E4B4FF0000B9A46327857
S2140012E45FFA8BF94A45187811D9484402A9C0B266
S2140012F4019325F0ADFE082241460DEB0200FFF7F0
S2140013048CFF0BF1010B019B0028E8D14C462B788F
S214001314A34207D1631C3278DBB29A422B7004BF17
S21400132400232B709AF8003041461C44E4B2204651
S21400133425F0B6FF18B93946204625F057FE05B005
S214001344BDE8F08FAA240020AC240020422003002D
S214001354AB240020024B187800F07F00704700BFD3
S214001364AD240020034B18780130C0B2187000F08A
S2140013747F007047AD2400201FB5030A8DF80E3099
S2140013840323009303AB8DF80D0000F0BFF905B0FE
S2140013945DF804FB1FB58DF80F100421030A8DF8C1
S2140013A40E30009103AB8DF80D0000F0AFF905B0D8
S2140013B45DF804FB2DE9F043994689B0BDF840502A
S2140013C49DF84460074688460DF109001146082238
S2140013D4BDF84C40FFF7BEFE8DF81250012E4FEAC2
S2140013E415258DF811908DF813508DF8146017D0CC
S2140013F4032E1CD1082212990DF11500FFF7AAFE40
S2140014049DF850308DF81D3016230093BDF85420F7
S21400141402AB4146384600F079F909B0BDE8F083DE
S2140014248DF81540240A8DF816400F23EDE70120A9
S214001434F3E71FB50C46194602238DF80D200093DA
S2140014440A4603AB0146204600F060F904B010BD1E
S21400145470B586B0044616460DF10D0008221D46EA
S214001464FFF778FE0A232A460093342103AB20466E
S2140014748DF8156000F04AF906B070BD30B500244A
S21400148485B0ADF80A20021D92B2012A1D46ADF8B9
S2140014940840ADF80610ADF8044003D94FF6FF72C5
S2140014A4904207D1064A2B46127801A923F012FF70
S2140014B405B030BD014601AA204623F0D1FFF7E768
S2140014C4701D00202DE9F74F9846FF2A16BF474B9C
S2140014D400241B680E4618BF9C5C814618BF64082F
S2140014E4B8F1FF0F16BF414B00271B6815461CBFFB
S2140014F413F808707F08FFF735FF4FEA19238DF8B5
S21400150400008DF803600621360A68468DF80460EC
S2140015148DF801908DF802308DF805401DF060FDC1
S214001524FF28064604D11824204603B0BDE8F08FF1
S2140015344FEA440B0BF1070A0AEB4701C9B21DF048
S21400154403FD0028EFD10446A3451BD10BF1060189
S2140015543A4601F0FE0130465FFA8AF41DF0BBFD00
S2140015644FF0000A5FFA8AF5AF4223D83346BDF837
S214001574302006214846FFF781FF044630461DF01A
S214001584D1FBD1E7214628461DF0A0FDA11D024649
S214001594C9B230461DF09FFD611CC9B228461DF035
S2140015A495FDE11D0246C9B2304602341DF093FD96
S2140015B4E4B2C9E76D00EDB2294640461DF086FD4B
S2140015C42146024630461DF086FD691CC9B24046D7
S2140015D41DF07CFD611C0246C9B2304602341DF083
S2140015E47AFD0AF1010AE4B2BCE700BF081D002038
S2140015F42DE9F04188B00F4602A906460AF06AFFB4
S21400160400287CD0FFF7AEFE8DF810001DF004F91C
S2140016148DF811001DF000F9000A8DF8120008225A
S21400162439490DF11300FFF795FDBDF808300F2179
S2140016348DF81C301B0A8DF81D309DF80D3004A85B
S2140016448DF81B608DF81E301DF0CAFCFF2804467A
S21400165457D04FF000089DF80D305FFA88F2934299
S21400166408F101081DD801220DF10E0120461DF0D7
S214001674F9FC4FF000089DF80E305FFA88F29342AA
S21400168408F1010824D823463A4620210020FFF713
S214001694F5FE054620461DF045FB284608B0BDE885
S2140016A4F081002130460AF041FF05468DF8070018
S2140016B40DF10701012220461DF0D4FC2D0A01225B
S2140016C40DF1070120468DF807501DF0CBFCC2E74C
S2140016D4012130460AF02AFF05468DF807000DF171
S2140016E40701012220461DF0BDFC2D0A01220DF142
S2140016F4070120468DF807501DF0B4FCBBE7A32570
S214001704CBE71825C9E700BFA14E0020F8B51C4654
S2140017140E4617460546FFF725FE9DF8181020705E
S21400172420461DF05DFCFF2804460BD003463A46CF
S21400173428463146FFF7A2FE054620461DF0F2FA7B
S2140017442846F8BD1825FBE708B500F08DF9BDE876
S21400175408400EF047BB08B5FFF75AF80EF06CFBCE
S214001764BDE8084006F090BF704700F017BCFFF7CE
S21400177488B80020704738B504460D46FFF79AF837
S21400178429462046BDE8384009F020BFFFF77BB85D
S214001794FFF785B80222062101200EF0FBBF422285
S2140017A4062101200EF0F6BF4122062101200EF08C
S2140017B4F1BF0122062110460EF0ECBF402206219E
S2140017C401200EF0E7BF0022062101200EF0E2BF42
S2140017D44022032101200EF0DDBF01220321104622
S2140017E40EF0D8BF0022032101200EF0D3BF022240
S2140017F4032101200EF0CEBF0122002109200EF0A5
S214001804C9BF000013B501390446042952D8DFE8DD
S21400181401F00328425F6900A0B93F4901200DF09A
S21400182449FA0421204600F08FFF0121084600F003
S2140018343DFC012223461146104602B0BDE8104086
S21400184400F094BC354901200DF034FA042101203F
S21400185400F07AFF0121022002B0BDE8104000F03B
S21400186425BC78B92E4901200DF024FA2146012022
S21400187400F01CFC204600F015FF012123462246FA
S2140018840846DAE7274901200DF014FA012000F093
S21400189409FF0021DFE778B9234901200DF00AFA91
S2140018A4012006F0F1FD0322C8231146009301200F
S2140018B400F074FF02B010BD1C4901200DF0FAF9C7
S2140018C4012006F01BFDC823032200930721EEE740
S2140018D430B91749012002B0BDE810400DF0EAB94E
S2140018E41449F7E708B91449F4E7144901200DF040
S2140018F4E1F9C823022200930121002000F04EFFE4
S214001904032240F6B8310E4B0E481A7002B0BDE8FA
S21400191410401CF0EFBF00BFA4350300B035030031
S214001924BC350300C9350300D5350300E135030093
S214001934ED350300F93503000536030011360300C0
S214001944B9240020E040002013B504462D490120A8
S2140019540DF0B0F9042C53D8DFE804F0031C2C3146
S2140019644100294901200DF0A5F94FF4967303228E
S21400197400930521002000F011FF0123234A137071
S214001984234A13704FF47A71224802B0BDE810401F
S2140019941CF0B0BF02221E4B04211A704FF496733B
S2140019A403220093002000F0F9FE1B4901200DF0ED
S2140019B481F9E7E70024194B19491C70D2E7194945
S2140019C401200DF077F94FF4967303220093052156
S2140019D4002000F0E3FE02220D4B1A70D2E70B4BF8
S2140019E41B786BB14FF496730322009301210020F9
S2140019F400F0D4FE0322064B40F6B8311A70C3E753
S214001A0402B010BD1D36030032360300B824002091
S214001A14B9240020E040002045360300FC400020A6
S214001A24573603006C3603000B39042910D8DFE858
S214001A3401F00307090B0D00064901200DF03AB921
S214001A440549FAE70549F8E70549F6E70549F4E7DD
S214001A54704700BF773503008035030089350300DF
S214001A64923503009B35030008B5134901200DF099
S214001A7421F900F03BFE1149114800F033FC1148EF
S214001A8400F014F910481CF029FF00F059FD00F08E
S214001A9447FF00F07DFFF0EE000A9FED0C1AB0EE53
S214001AA4600A00F0C9FC0A481CF018FFBDE80840AC
S214001AB408481CF013BF00BFAD3603000918000029
S214001AC42D1A00004D190000E04000206F12833AE2
S214001AD4D8400020F440002037B500221E4B1F4C8F
S214001AE41A702378032B13D8DFE803F002141B22A2
S214001AF40AF024FC054648B9C823032200930121B2
S214001B0400F04CFE164805701CF0E8FE0223237015
S214001B1403B030BD0223237003B0BDE8304000F0AC
S214001B247DBA01200F4903B0BDE830400DF0C2B8BD
S214001B34022323700AF002FC40B100F006FB18F002
S214001B44C7FC03B0BDE830401FF052BF03B0BDE889
S214001B54304002F043BA00BFE0400020B924002021
S214001B64FC400020C7360300002310B5054C237044
S214001B7400F0A2F82046BDE8104042F210711CF0B6
S214001B84B9BE00BFFC4000200022164B10B51A70E8
S214001B9400F038FD144C154B0146186023681B1AD8
S214001BA4002BB8BF5B421E2B10DD2060032000F024
S214001BB496FA22680E4901200DF07CF82368B3F5E6
S214001BC4FA7F0AD90221012000F0BEFDBDE81040CC
S214001BD44EF6602103481CF08DBE012000F062FD25
S214001BE4F4E700BFD8400020B4240020B02400202E
S214001BF45E350300002370B50B4C237000F036FFEF
S214001C04064600F049FF05460146042000F082FA25
S214001C142B463246054901200DF04CF82046BDE817
S214001C24704003491CF066BEF44000208036030072
S214001C34C027090010B5084901200DF03BF8002321
S214001C44064C2370FFF70EFBC1B249002046BDE8E0
S214001C5410401CF04FBE00BFB7360300EC40002017
S214001C641FB501240022104B06211A70204600944A
S214001C740DF10F030BF035FE20B99DF80F1020462A
S214001C8400F014FA01230022009306210DF10F033D
S214001C9402200BF026FE20B99DF80F10022000F05B
S214001CA405FA04B010BD00BFEC400020014B1860DC
S214001CB4704700BFBC24002008B50AF03FFB30B9CB
S214001CC4BDE808404FF4FA6101481CF013BE08BD95
S214001CD414410020002208B5054B1A700AF02EFBAA
S214001CE428B907F007FF034A13680133136008BDD9
S214001CF414410020C024002038B505461F490120A1
S214001D040CF0D8FF902D15D11D4B1E4C186858B1F9
S214001D1407F030FF23682BB1022098471A490120A8
S214001D240CF0C8FF002038BD2368002BFAD0984773
S214001D341649F4E70AF002FB044698B9114B1B68EF
S214001D442BB104209847124901200CF0B3FF942DC0
S214001D54E8D1104901200CF0ADFF0A4B01201B68A6
S214001D649847DFE70328F2D10B4901200CF0A2FFC5
S214001D74044B20461B689847E9E700BFD2360300A9
S214001D84C0240020BC240020EE36030003370300E2
S214001D94163703003E3703002A3703004368588883
S214001DA448F20503C31A584258417047F8B5036809
S214001DB4C47C0546077D5A881D4901205E790CF0CF
S214001DC479FF8CBBAA89791C8A422FD3A868C55D83
S214001DD40CF0D1FA2A460346164901200CF06AFF95
S214001DE4012E09D14F2D09D9134930460CF062FF54
S214001DF40221204600F0A8FC2046F8BD272D05D970
S214001E040E4930460CF056FF3146F2E72DB10C4928
S214001E1430460CF04FFF0421EBE7304609490CF03E
S214001E2449FF284600F03EFC0024E5E70124E3E7EA
S214001E3450370300613703009D370300A7370300BC
S214001E44AF370300B83703002DE9FF4100250746E6
S214001E542C464FF6FF78EEB2304618F039F9404576
S214001E640DD06946304618F03BF99DF80130BB4268
S214001E7405D19DF80030012B04BF0134E4B20135CE
S214001E841E2DE8D1204604B0BDE8F0812DE9F341CB
S214001E940368C57C1F795C79B0F806800646CDE9F0
S214001EA4005823463A46384901200CF003FF2DB16A
S214001EB4012D3FD0002002B0BDE8F0813349012057
S214001EC40CF0F8FE367976B1022EF3D130490120B3
S214001ED40CF0F0FE2946284600F036FC2946012080
S214001EE400F032FCE6E7012C1AD1304600F0DAFBAB
S214001EF43146204600F0DAF82046FFF7A5FF2549CC
S214001F04024620460CF0D6FE2046FFF79DFF00282A
S214001F14D0D0434632462146384600F027F9C9E772
S214001F24022CC7D1012000F0BDFB3146204600F04C
S214001F34BDF8BFE7184928460CF0BCFE367946B112
S214001F44022EB7D1124928460CF0B4FE3146284674
S214001F54C6E7012C10D10421304600F0F5FB2046DC
S214001F64214600F0A3F82046FFF76EFF0028A1D014
S214001F74434622462146CFE7022C9BD1042128461D
S214001F8400F0E2FB2946D1E7C137030022380300FC
S214001F94393803002F38030043380300827B08B522
S214001FA42AB103685B88062B03D0082B04D00020D4
S214001FB408BDFFF76BFFFAE7FFF7F8FEF7E7000048
S214001FC430B51C4600230546104691B08DF80D30FA
S214001FD48DF80E309DF850308DF80C1022460146D0
S214001FE404A88DF80F3004342FF051FE03AB009391
S214001FF40194044B0122294610200BF01DFE11B05B
S21400200430BD00BFD433030008B501210BF09AFE9F
S214002014BDE80840002108460BF072BE70B58AB0D1
S21400202406AC26461F4B03F1080225461868596875
S214002034083303C593422C46F7D1012418681B794C
S21400204428602B71184B8DF80F4018681B79049084
S2140020548DF814300AF072F9022820D142250D2397
S2140020643246052100200095FFF7AAFF2046FFF719
S214002074CBFF052304AA042100200095FFF7A0FF48
S2140020842046FFF7C1FF2023002000930DF10F0226
S21400209423462146FFF794FF2046FFF7B5FF0AB014
S2140020A470BD00BF4F3803005C3803007FB51026B0
S2140020B4054604AC04F8011D2246012300210096BF
S2140020C40620FFF77DFF2846FFF79EFF009623466F
S2140020D40022062128460BF0B3FB04B070BD7FB582
S2140020E42326054604AC44F8041D22460423002196
S2140020F400964FF48060FFF763FF2846FFF784FFDF
S2140021040096234600224FF4806128460BF098FB85
S21400211404B070BD7FB52326054604AC44F8041D00
S214002124224604230021009640F20240FFF748FFAF
S2140021342846FFF769FF00962346002240F2024134
S21400214428460BF07DFB04B070BD1FB502230020AB
S21400215400934FF48A5203AB48F234018DF80D0015
S214002164FFF7D4FA05B05DF804FB00002DE9F04F44
S2140021748246894615469B460026DFF8C48085B00D
S214002184F4B26946204617F0ABFF0746204617F020
S2140021949FFF044667B99DF801204A450BD19DF878
S2140021A40430534507D1584505D101361E2EE7D1D4
S2140021B405B0BDE8F08F4FF6FF739C42F5D0231DA3
S2140021C49BB2012BF1D94A45EFD1BDF80270062F18
S2140021D4EBD1012D19D1184928460CF06BFD434666
S2140021E42A46394628460BF027FD9DF804109DF82C
S2140021F401000BF0A7FD214600200BF081FD2946C7
S2140022049DF80100FFF752FFCFE70C4901200CF0C0
S21400221451FD43460022394601200BF00DFD9DF882
S21400222404109DF801000BF08DFD214600200BF0F4
S21400223467FD0021E4E700BF613803007838030037
S214002244AF1D0300F8B5234C636883422FD063693F
S21400225498422ED10125EDB22D0163195F68302313
S214002264625D1D4853430022164618440368FB402B
S21400227403F001030168F94001F0010C63451AD12B
S2140022840132052AF6D1621982F808C0B3B9537A26
S21400229401335372137B13B910481CF01FFB002341
S2140022A401222C44A37263732273E372F8BD0025E3
S2140022B4D1E7FF25D0E700226346DBE70123084881
S2140022C4D372067016734FF4FA71BDE8F8401CF02A
S2140022D411BB00BF741D002014C003401C41002025
S2140022E4244100202DE9F74307460E46012502F057
S2140022F419FD104CDFF8489004F120080023012251
S2140023046168207804F08EFD4946207902F018FDB5
S214002314626814F8100BCDE900550123114604F049
S2140023243BFD4445EAD1044B1F60044B1E6003B0DA
S214002334BDE8F083741D0020C4240020C8240020B7
S214002344492200002DE9F84300241A4B4FF00508F3
S2140023541C704FF001092346174D184FEE7826B32C
S2140023646B780133DBB2042B84BF00222A703A68F0
S2140023746B7088BF85F804905AB1B3FBF8F101EB93
S21400238481001B1A13F0FF0F03D10A31C9B220468D
S2140023949047103534B156B1BDE8F843C821054816
S2140023A41CF0A8BA01243346D8E71E46F1E7BDE878
S2140023B4F88300BF1C4100207D1D0020C42400209B
S2140023C42DE9F0410025A846174B184C184E194F16
S2140023D41D70E37AABB133683BB1627BE8B2B2B945
S2140023E4617A0A2928BF1121984784F80A8084F85C
S2140023F4098084F80C8084F80B8084F8088084F8BC
S2140024040D8010340DB1BDE8F0810125E1E7A17A15
S2140024143B681D299FBF0522B1FBF2F10A31C9B200
S21400242488BF1121E0E700BF24410020741D00206E
S214002434C8240020C4240020044B83ED000A044B67
S214002444C3ED000A034B83ED001A704710410020C9
S214002454D4400020E84000202DE9F8432B4D2C4BB7
S2140024642DED048BD3ED007AD5ED008A78EEA77AAD
S214002474284C88EEA79AD4ED007A30EE670AB0EEC0
S214002484678AA9EE008A77EEC87AF0EEE77A224BDE
S21400249417EE900A83ED009A204B83ED008A2EF007
S2140024A49FFE1F4B064618680F462EF099FE0246FE
S2140024B40B46304639462EF0EBFE064619EE100A59
S2140024C40F462EF08DFE02460B46002015492EF0D0
S2140024D427FD804618EE900A89462EF081FE0246B5
S2140024E40B46404649462EF0D3FE02460B4630467F
S2140024F439462EF017FD2FF0A3F9B0EE480A84ED06
S214002504008ABDEC048B2860BDE8F883D440002024
S214002514104100200C410020084100200441002006
S214002524E84000200000F03F07EE900A08B5B8EE39
S214002534670AFFF791FFFCEEC07A17EE900A08BD13
S214002544F0B52B4E8FB008AD00240FCE03270FC571
S21400255496E80300012685E80300264DCDE90344EA
S2140025642846CDE9054407948DF80E708DF808606A
S2140025748DF809408DF80A408DF80B4004F0BEFE35
S2140025840221052004F0B8F9022322461A492846F7
S2140025948DF8173004F028FF23468DF819000090B4
S2140025A4224642F2107128468DF8237004F034FF58
S2140025B404238DF82130A5238DF8250008AA05A943
S2140025C428468DF809308DF80E408DF8086004F022
S2140025D447FF02AA03A9284604F050FE074AD2F889
S2140025E4283343F48033C2F828330FB0F0BD00BF5D
S2140025F4903803000040004A40420F0000C00340E9
S2140026040000000007B500221E4B1A7001221E4B64
S214002614DA605A6902F4A072B2F5807FF9D11A49D9
S214002624684605F073F80098184B1860FFF77CFFAF
S214002634174B184A1860184B03FB0023B3FBF0F043
S214002644164B186018682EF0A9FD9FED0A1B41EC86
S214002654100B2CF087F809A3D3E9002351EC100BD8
S2140026642EF016FE2FF0C4F80D4B1860186803B051
S2140026745DF804FB666666666666F6BF00000000E4
S214002684D8227E41304100200040004AD424002055
S214002694CC240020408AF701F0D8FFFF2C4100200C
S2140026A4D02400204823584301230E4970B5302512
S2140026B40A18085C51680C4C03FA01F641F2100142
S2140026C405FB00404650107ED66905FB004003FA21
S2140026D406F6465092F83000526B934005FB0042D3
S2140026E4535070BD941D002000C0034070B5124DB9
S2140026F400242E462919285D00230422496818342C
S21400270404F090FB482CF5D100243019C16C00234A
S214002714042290F84800183404F084FB482CF4D1C2
S2140027240020FFF7BFFF0120FFF7BCFF034B044A5E
S2140027341A60044A5A6070BD941D00207841002037
S21400274470410020384100204823124A2DE9F04108
S21400275403FB002001270022302641F2100C42F22F
S214002764100E0D4D0378446806FB035341FA02F835
S21400277418F0010F07FA04F402F1010214BF43F83B
S2140027840E4043F80C40032A00F11800EAD1BDE8D5
S214002794F08100BF941D002000C0034030B418240C
S2140027A4084D04FB00540125E360029BAA40236104
S2140027B4054B22752572617253F8200030BC1CF05C
S2140027C48DB800BF404100207841002018222DE932
S2140027D4F047404D044602FB0052137D3E49002B51
S2140027E459D013F0010F4FF0480332D003FB001307
S2140027F44FF0010E0021302741F2100842F2100972
S21400280492F809C0354E1A78586807FB02624CFAEB
S21400281401FA1AF0010F0EFA00F001F1010114BFDB
S21400282442F8090042F80800032903F11803EAD124
S214002834182303FB0453D968294B53F824001CF0CF
S21400284459F8182303FB0454237D013B2375BDE884
S214002854F0874343C818CE5C01234FF0300C416820
S2140028641E4F03FA01FE41F210010CFB067646F8F1
S21400287401E090F818E0C6690CFB0E7E03FA06F633
S2140028844EF8016090F83060406B83400CFB067095
S21400289443501169D0E7137248235C430123302563
S2140028A40A19085D51680D4C03FA01F641F210014D
S2140028B405FB00404650107ED66905FB004003FA2F
S2140028C406F6465092F83000526B934005FB0042E1
S2140028D45350BCE740410020941D002000C0034034
S2140028E4784100200020044B1870044B1B7A012BFF
S2140028F401D1FFF76BBF70477041002040410020B4
S2140029040022054B1A70054B93F82000012801D1CC
S214002914FFF75CBF704700BF3841002040410020ED
S21400292430B585B06C46164B164D0FCB84E80F00B9
S21400293401230B221946184604F074FA01230B22CD
S2140029441846002104F06EFA0F4B1048D3F8A01472
S214002954014041F00111C3F8A014D3F89C24214689
S214002964024042F00102C3F89C2403222846C3F81E
S214002974982404F0DFFA1023AB6005B030BD00BF26
S214002984A83803000000014A00C00340FCFFF0FF23
S2140029944CF6FC1230B5184B89B0039308AB23F8F9
S2140029A41C2D04930223ADF8143002AB06930323C4
S2140029B403A91248ADF81C3004F0EAFB04460F4D98
S2140029C4012C13D022460E4901200CF073F99DF811
S2140029D408200CB9142A03D00A4901200CF06AF91D
S2140029E4094901200CF066F909B030BD284604F008
S2140029F4C3FA0446E4E700BF800004000000014A6E
S214002A04B8380300C8380300EF380300F0B5154B98
S214002A1487B000AF7B6007F1180303F8181DBB608E
S214002A240123BB810223073202F4FC72ADEB020DD4
S214002A340546391D0C48C7F810D0BB826C4604F016
S214002A44A7FB094E012808D00120227863781C379A
S214002A5403EB02232B60BD46F0BD304604F08CFA2F
S214002A64F0E700BF800004000000014A07B5022218
S214002A74E52101A8FFF7CAFF50B143F2D403019A37
S214002A84534364221B0CA3F51673B3FBF2F30193B2
S214002A94019803B05DF804FB07B50222E02101A803
S214002AA4FFF7B4FF58B144F2A443019A5343642297
S214002AB41B0CA3F592530D3BB3FBF2F30193019861
S214002AC403B05DF804FB002307B5CDE9003301230A
S214002AD469464FF0FF308DF802300FF06BFD003082
S214002AE418BF012003B05DF804FB012070470120E5
S214002AF4704701207047000010B5084C23681B6817
S214002B0458790AF08CFB23681B685879FDF788FE11
S214002B1400200DF025FB012010BD00BF044D002051
S214002B242DE9F84F80460D4614469946164E06F192
S214002B34010A0DB9BDE8F88F102D4FF00D02494675
S214002B4450462F4628BF1027FEF704FB0123337098
S214002B5400230D48F473B37324F03AFC4246013460
S214002B640A495FFA87FBE4B212F8013B11F8010F39
S214002B74434002F8013CA2EB0803DBB25B45F3D307
S214002B84ED1BADB29046D4E7DC240020DB24002005
S214002B942DE9F04F4FF00209364D85B003930F9B95
S214002BA4174601900D220E460146681CBDF8388073
S214002BB40293FEF7CFFA49234C46AA462B702846C2
S214002BC44FEA1823AB7385F80F8024F001FC2B78AA
S214002BD483EA17232B706B787B406B704FF0000BE7
S214002BE421E0C4F1100CA7EB0B031FFA8CFC9BB27C
S214002BF4634528BF63463046A11B00EB010C5FFA11
S214002C048CF2A0EB060C1FFA8CFC9C451BD31C44D0
S214002C14E4B29B44102C1E441FFA8BFB03D12846B7
S214002C2424F0D6FB0024BB45DBD314B1504624F075
S214002C34CFFBB9F1010F4FF00004039E47460BD0BB
S214002C444FF00109CAE710F801CB1AF802E08CEA43
S214002C540E0C0AF802C0D0E7029804220549FEF7D3
S214002C6479FA22460421019B029805B0BDE8F04F8C
S214002C74FFF756BFDC240020F7B5099FBDF82040B7
S214002C840646CDE900471D46FFF782FF2CB13346C2
S214002C94012221462846FFF743FF002003B0F0BD7B
S214002CA42DE9F7431E46054688469146BDF828702A
S214002CB40D4C0346394630460122FFF731FF3346B2
S214002CC44A4641462846CDE90074FFF761FF0422D0
S214002CD421460B98FEF7A1FA002814BF7E20002098
S214002CE403B0BDE8F08300BFD82400202DE9F341EB
S214002CF40C4615461E468046084F99182144384609
S214002D040422FEF727FACDE9006763192A4621460E
S214002D144046FFF7C5FF02B0BDE8F081EC24002072
S214002D24002070470020704770477047F7B50024AE
S214002D34094E0A4F0A4D56F8243003B93B6835F855
S214002D441420084900920120224601340BF0B2FFF9
S214002D54292CF0D103B0F0BD241E0020CC1E002088
S214002D64F44100200839030008B5FFF7DFFFBDE88B
S214002D74084000F0F1B8000007B50020FDF77AFE21
S214002D84C2B2282A0DD8084B53F822300BB9074B89
S214002D941B680749012031F81210009105490BF011
S214002DA489FF03B05DF804FB241E0020CC1E00201F
S214002DB4F441002008390300FFF7B8BF704700004D
S214002DC438B50020FDF756FE04460120FDF752FEF6
S214002DD40546054901200BF06DFFA9B2E0B2BDE837
S214002DE4384000F0D1B800BF13390300F7B500240B
S214002DF4094E0A4F0A4D56F8243003B93B6835F895
S214002E041420084900920120224601340BF052FF98
S214002E14292CF0D103B0F0BD241E0020CC1E0020C7
S214002E24A24100200839030073B502AB03E906008B
S214002E340446019D1BF00CFA064620461BF016FAC3
S214002E449DF800008EB1202C0FD82B78012B37D894
S214002E544FF6FF75394903EB4313234431F8132027
S214002E64AA4202D0013221F813204FF6FF72344BE7
S214002E74344933F8146031F8145096421CBF721C5F
S214002E8423F8142004F0FD02092A31D19A8A898A8B
S214002E9402448A42B4BF9A82998233F81430AB4211
S214002EA404D3AE4202D22046FDF7BBFC0025264BD7
S214002EB4EA5CA24228D00135112DF9D102B070BDCA
S214002EC4022BD2D14FF6FF714FF6FF751B4B33F82A
S214002ED414208A421CBF013223F8142004F1210274
S214002EE433F81210A9421CBF013123F81210BCE7B4
S214002EF41D2CD2D15A8F1118A942BDBF02F1FF3240
S214002F0412185A875D87C8E717F0B3FB0F4B0446C1
S214002F141B78834203D8DD210D4800F0FDF94FF6F7
S214002F24FF710C4A04EB04142C4432F814308B4220
S214002F34C4D0013322F81430C0E700BF4642002054
S214002F44F4410020A24100207F3C0300511D0020D4
S214002F54FB3B030080410020522200210148FEF77B
S214002F6455B900BFF44100205222FF210148FEF764
S214002F744DB900BFA241002008B5FFF7EDFFBDE83C
S214002F840840FFF7F1BF0000014B23F8101070470C
S214002F94A2410020032310B50F4C4FF48062C4E90D
S214002FA404330E4B0E49E3610023A16121660D49EB
S214002FB4E01DC4E919120C49A3626362E362236745
S214002FC4E366636722622EF075FE084920462EF0FB
S214002FD471FE2023A37110BDCC420020F0280020EF
S214002FE4903C0300F0240020993C03009D3C030021
S214002FF42DE9F84F1F4B16461A7881468A4698469E
S2140030040AB9FFF7C7FF182707FB09873D6FD7F8EC
S2140030146CB05D452BD9BC6E796E641BB44228BF78
S21400302434462944504622462EF031FEBB6E2544D3
S214003034AB4208BF0025A244361BABEB050B5E452E
S21400304428BF5E4656B1182303FB0983596E3246E1
S214003054294450462EF01BFE3444354424B118232C
S21400306403FB0988C8F870502046BDE8F88F002492
S214003074E3E700BFCC42002010B50B46EFF3118403
S2140030844FF0200181F311881946FFF7B1FF84F34E
S214003094118810BD2DE9F84F144D9B462B788146B8
S2140030A4884692460BB9FFF775FFEFF3118C4FF085
S2140030B4200181F31188002018236F6903FB005454
S2140030C4666E2EB101308742F8DC4FF0FF3009E01F
S2140030D48742FADDC4E91898C4F868A02667E6664D
S2140030E4C4F874B08CF31188BDE8F88FCC42002085
S2140030F4FFF750BF70B54FF060441A4B00261A68AD
S214003104194D42F001021A60DA680C2042F080720F
S214003114DA60164BC4F8B03F0223C4F8006EC4F855
S214003124806EC5F8F03003F0A9FA114B00F5D520EF
S21400313400F2FC40B0FBF3F00E4A0F4B0138286156
S214003144C4F8406E1A600D4BC4F8803E4FF480738A
S214003154C5F80433D4F8003E43F48073C4F8003E44
S21400316470BD00BFF0ED00E0000004E055CEACC535
S214003174F8590D00FF030040001000E00D000100A8
S21400318410B501240E4B00201C6003F003FE2346FA
S21400319404220321002003F045FE20460EF01AFF09
S2140031A4FFF7A8FF0EF017FFFFF7A2FF2346402203
S2140031B404490548FFF76EFF044B1860C00F10BDA6
S2140031C444D40340F02C0020A43C0300D01E00206E
S2140031D4024B1868003018BF01207047F0ED00E07D
S2140031E4D123054A037013784170090A8170591C6B
S2140031F4C370117004207047302D00202DE9F74F5E
S214003204354E074633681C5C032C63D9DFF8CC8044
S21400321416F040FE4FF6FF7A0025C1460534E4B2A8
S2140032240190D8F800204AB1AC4207D916F032FE15
S214003234019BC01A80B2B0F5FA7F05D9601B18BF8F
S214003244012003B0BDE8F08F002D3DD0012D1DD127
S2140032544FF0020B3268D55D4FF06042D2F8801E04
S214003264CB0711D51146D9F80C0040F08070C9F888
S2140032740C00D1F8000E40F48070C1F8000E086A05
S2140032840028F0D082F820505D46CAE7E21E05F119
S214003294010B95425FFA8BFB02D15FFA8AF5DBE7F6
S2140032A4A21E954202D1CAF30725D5E7621E9542AF
S2140032B40ED0A91EC9B238461BF008FF5146054673
S2140032C4FDF7B8FE8246C7E75B254FF0010BC3E760
S2140032D45D25C1E70120B4E7081D0020F0ED00E0FD
S2140032E410B50B4B90B0402269461868FFF7C4FE31
S2140032F458B1C1B268461BF073FE0446014612205C
S2140033040EF014FB20461BF00DFD10B010BD00BFE0
S214003314D01E002042DE704738B504460D4600F045
S21400332401FD03F092FC294620460EF0CBFA2B460C
S21400333422460549012007F0CFFC29462046BDE871
S2140033443840FFF7E7BF00BFB43C03006D4B2DE9E0
S214003354F0415A686C4CA2655A6AE2656B4AD2F828
S21400336400122166D2F8042262669A6AA266DA6AB3
S214003374E2661A6B22675A6B6267A26BDB6B12F00B
S214003384040FA367D4E90F5318BF1D4616F066FD55
S214003394002285420346606522655DD35C4A9542F9
S2140033A45AD8AA696264E969A164B4F85810C1F3EA
S2140033B40801062954D157498A4251D356498A42AC
S2140033C44ED211884DF64262914249D140F20170C4
S2140033D46268C4F89420A268C4F898204F4A5049FA
S2140033E4934238BF13460A468B423CD3D31AE3644F
S2140033F40023C4E91F33C4E92133C4E92333484E08
S214003404444FDFF814C1AE4233D8D4E91FC7D4E919
S2140034142165D4E923124FF0000E013BDBB2FF2BEB
S21400342442D1BEF1000F05D0C4E91FC7C4E9216527
S214003434C4E92312B4F85830C3F30803052B57D055
S2140034443CD8032B47D0042B58D040F60722013B28
S2140034544B2B98BF104640E000221D46C4E91122BB
S2140034644FF42060BAE71E68B6F1CD3FBED10433F0
S214003474BAE756F8042DBA42C5D36245C3D2D1077B
S214003484C1D5002104EB010EDEF87CE09645BAD0E7
S21400349404311829F6D10BB9052301E0013BDBB250
S2140034A404EB8301CA67AEE7E0464FF0010EBC4664
S2140034B437462E460D4611464246AEE70C2B1AD02A
S2140034C43B2B0CD0062BC0D140F60423B0F5206F5E
S2140034D408BF184601E040F60120BDE8F081114B14
S2140034E49B6913F0020F40F2025318BF1846F4E724
S2140034F440F60320F1E740F60520EEE740F602200A
S214003504EBE700BF00ED00E00000002000E100E073
S214003514E01A00204C030000F01C03009C0000206E
S214003524001B00200080014A10B504F0E7F90446A9
S21400353404F0DCF90022012101FA02F3234014D03E
S2140035441B4B33F812301B4A062B13D040F20721CC
S2140035548B420DD1184919480C68844208D14CF2A4
S2140035643C334B800B88138012E00132102AE3D1DF
S214003574104AF8E74FF20F010F4B5888884214D1CF
S2140035841988B1F5406F10D211804CF23C325A8043
S214003594084B1A8840F201739A4201BF084B094A45
S2140035A4D2E90001C3E9000110BD4FF4C061EBE7A6
S2140035B4C83C03003C2D00200000002007020FF04A
S2140035C4342D002094000020014B1888000A704710
S2140035D43C2D0020014B1888704700BF3C2D00206E
S2140035E42DE9F04F4D4C0546A36BD4F850B05A075E
S2140035F447BF0027B846D4F84CB0D4F85480D4F863
S21400360440A05DBF464FD4F83CA0DFF83C91DFF8FD
S2140036143C9113F0080F434B434A18BF1A46B7EBC6
S21400362408061FBF6421730801FB0B33B3FBF6F3D4
S21400363487B01CBF9BB205933C494B46CDE9017A43
S214003644CDF8008008BF059601F0BEF8B3B2CDE908
S21400365400931FFA8BF2059B3549284601F0B4F80F
S214003664A36B5B070AD49C3E5E4507D1626D314B63
S2140036749A4203D23049284601F0A6F8BA4501D842
S214003684C24504D24A462D49284601F09DF82846EC
S21400369407F01CFB236E0BB9636EBBB328492846A0
S2140036A401F07DF800260127DFF8A480DFF8A49057
S2140036B4226E07FA06F3134207D058F8262013782A
S2140036C41BB14946284601F06AF80136202EEFD190
S2140036D400260127DFF87880DFF87890626E07FA14
S2140036E406F3134209D008EB8603D3F88020137838
S2140036F41BB14946284601F052F801361D2EEDD17D
S214003704284607B0BDE8F04F01F058B828460D49E2
S21400371407B0BDE8F04F01F057B800BF0000002026
S214003724001B0020CF3F0300D63F0300DE3F03000C
S2140037340C4003009C000020454003007140030039
S2140037448F400300BE400300CA3F030055580300E1
S214003754D4400300B06903002DE9F8430446FFF79C
S21400376439FF40F60123984239D010D840F202536C
S21400377498421DD040F20173984224D040F201537F
S214003784984213D16549204601F01EF822E040F61F
S214003794032398426CD03DD340F60423984200F0AD
S2140037A49C8040F60523984200F0B580BDE8F88377
S2140037B45B49204601F008F85A4B5B495A6C204690
S2140037C401F002F806E0574A5849D2E92523204674
S2140037D400F0FAFF2046BDE8F84307F077BA514DEB
S2140037E45349204600F0F0FF95F86C309F0703D548
S2140037F45049204600F0E8FF95F86F305E0603D582
S2140038044D49204600F0E0FF95F96F30002BE1DAD1
S2140038144A49B8E7434D4A49204600F0D5FF95F893
S2140038246830980704D06A6C3F49204600F0CCFF05
S21400383495F96830002B04DA6A6F4249204600F096
S214003844C3FF00260127DFF80881DFF81491AA6E6B
S21400385407FA06F3134207D058F8262013781BB14C
S2140038644946204600F0B0FF0136082EEFD1B1E7F6
S2140038742C4D3549204600F0A7FF2B496A6C20469C
S21400388400F0A2FF95F86930590703D52F49204662
S21400389400F09AFF95F96930002B04DA6A6F29491B
S2140038A4204600F091FF0826294FDFF8B480AB6E5F
S2140038B4F340DA0707D557F8262013781BB141469C
S2140038C4204600F081FF0136102EF0D195F86830BE
S2140038D4002B7FF47FAF1F4955E7124D1E49204643
S2140038E400F072FF6A6C1049204600F06DFF102647
S2140038F4174FDFF86C80AB6EF340DB0707D557F83D
S214003904262013781BB14146204600F05DFF0136A1
S2140039141A2EF0D15EE711494BE700BF593D03006C
S214003924963D030000000020C63D0300DF3D030073
S214003934F93D0300113E03004B3E03007E3E0300A8
S214003944BA3E0300DF3E0300033F03001A3F0300B2
S214003954E83C0300603F0300903F0300A93F0300D8
S214003964FB3E03002DE9F84F06460025154C164F7E
S214003974DFF85C80DFF85CA023785FFA85FB0BB980
S214003984BDE8F88F57F8043B22461049304600F04D
S21400399406FF227804F1010982B9627882B10BF03D
S2140039A4030103290CBF41465146304600F0F7FE9A
S2140039B4304607F08BF901354C46DDE74C46E8E720
S2140039C44146F2E7C841030004000020503D0300CE
S2140039D4AD1D0300DA5C030000F00CB800F00AB872
S2140039E400F008B800F006B800F004B800F002B81A
S2140039F400F000B872B61EF0080F09D01EF0040FCF
S214003A040DD0DFF850E0AEE8FF1F6FF002000CE0C8
S214003A14DFF840E0AEE8FF1F6FF00E0005E0DFF8C9
S214003A2434E0AEE8FF1F6FF006006946EFF3098244
S214003A348EE8070086460848084C854501D3A54508
S214003A4401D384F30888FFF781FC84F3088816F012
S214003A54E1F9000004000020E0110020001B002013
S214003A64FFF7C6BF704770477047704700F07E6325
S214003A74B3F17E6F70B505460E46144616D105F0B2
S214003A8479FC18B19A210D48FFF746FC22463146C8
S214003A94C5F30B0003F0EEFF044605F077FC5CB1BB
S214003AA49D21BDE870400548FFF736BC520816F065
S214003AB44FF908B18F21F4E770BD00BFEC4803004E
S214003AC437B57F2A14BF154600254BF2346291425F
S214003AD4044619D17F2241F2020168460823FFF703
S214003AE4EFFF082225496846FDF797FB30B90823FF
S214003AF47F2241F2F0116846FFF7E2FF082269468A
S214003B042046FDF727FB09E041F2F01291421AD154
S214003B141B4901388A6CC96C1D1F0BB903B030BD34
S214003B24013B9D4200F8012F4FEA1222F5D10022F4
S214003B3403349A42F2D00132042A04F8011F4FEAF1
S214003B441121F6D1EAE701F47042B2F5805F07D19D
S214003B54C1F30B0404F17E649AB203FB0541D0E77B
S214003B6401F46042B2F5005FD8D1C1F30B040549F5
S214003B749AB2214403FB0511C3E700BF664903005C
S214003B840080E00F00E0070070B5054616461C46A8
S214003B94DBB14BF23463994210D1082C28BF0824B9
S214003BA47F2241F202012346FFF78AFFA2B20749A9
S214003BB42846FDF732FB40B941F2F011234632465F
S214003BC42846BDE87040FFF77BBF70BD664903001A
S214003BD42DE9F7430446E0070F46154603D5DD21D5
S214003BE43448FFF799FBE90703D5DE213148FFF790
S214003BF493FB04F47043B3F5805F3ED1C4F30B0427
S214003C0404F17E646B1E2C4A23449342264603D951
S214003C14E3212848FFF780FBDFF8989006EB0508B9
S214003C2446453DD1A2070ED04FF6FF7337F8022B58
S214003C3402A943EA0243A01E41F8043D0422FFF70A
S214003C4415FF0234023DAB070ED0023D25F00103FA
S214003C54FB5A02A96FEA03436FEA1343042241F8AE
S214003C64043D6019FFF702FF25B12A46394620466F
S214003C74FFF7FCFE03B0BDE8F08304F46043B3F53D
S214003C84005F05D10D4BC4F30B041C442646C3E762
S214003C94EA210848FFF740FB6FF00F060024BBE755
S214003CA416F8013BFF2BBBD0F4214846FFF734FB44
S214003CB4B6E700BFEC480300FF1FE00F00E0070074
S214003CC4FFF78ABE1FB5144A01AB10685168128903
S214003CD403C31A8001238DF804300D238DF80A30AF
S214003CE403230E4C082123208DF80B3002F004FE2B
S214003CF401A9204604F0F5F84FF40061022342F2CD
S214003D041800074AC2F884112350516041F21C027D
S214003D14A35004B010BD00BF6E4903000080014AE2
S214003D2400E100E0014804F0CBB800BF0080014A7F
S214003D34A52803D10021024804F0B3B8704700BF99
S214003D440080014A024B586800F00100704700BF2B
S214003D540080014A024A536A002BFCD1704700BF18
S214003D640080014A0020704700207047704700001A
S214003D7407B572B602F069FF894B8A495B6940222F
S214003D848B6000230B764B768B76F023CB760B7703
S214003D944B778B77CA77802281F8202081F82130F0
S214003DA4E023602081F822307F4B81F8232083F8BB
S214003DB4002383F8012383F8022383F8032383F87C
S214003DC4042383F8052383F8062383F8072383F85C
S214003DD4082383F8092383F80A2383F80B2383F83C
S214003DE40C2383F80D2383F80E2383F80F2383F81C
S214003DF4102383F8112383F8122383F8132383F8FC
S214003E04142383F8152383F8162383F8172383F8DB
S214003E14182383F8192383F81A2383F81B2383F8BB
S214003E241C2383F81D2383F81E2383F81F2383F89B
S214003E34202383F82103202083F8222383F82323D6
S214003E4483F8242383F8252383F8262383F827235B
S214003E5483F8282383F8292383F82A2383F82B035B
S214003E6483F82C0383F82D2383F82E2383F82F233B
S214003E7483F8302383F8312383F8322383F83323FB
S214003E8483F8342383F8352383F8362383F83723DB
S214003E9483F8382383F8392383F83A2383F83B23BB
S214003EA483F83C23CB6823F4E0631B041B0C43F029
S214003EB4BF6343F40133CB604B6943F010034B619B
S214003EC44FF4E0234B6204F08BFBFFF72DFBEFF37C
S214003ED408834FF0CD31354A043B93425DD2344AD1
S214003EE4002192B23348FDF791F962B6684603F0B2
S214003EF4E9FD314B9B6DDB0318D4304A136823F479
S214003F04FF0323F4FE4343F4BC1343F4A06313609B
S214003F1452F8043C23F4704343F4404342F8043C10
S214003F2452F8043C43F4E06342F8043C9DF8013044
S214003F34012B0FD19DF8003063B94FF000531B6876
S214003F441F4B1B681F4B1B681F4B1B681F4B1B68B4
S214003F541F4B1B681F4AD2F8803043F00303C2F895
S214003F64803002224FF040231A6704F0B3FA01F0BF
S214003F74E3FA002300938DF80430012368468DF895
S214003F84033002F0FEFE00F027F915F095FF124804
S214003F940EF02AF803B05DF804FB1960043B9CE7B6
S214003FA45400000000ED00E000E100E0A011002055
S214003FB4DC100000A000002000C0004034C0004018
S214003FC4004000200080002000C0002000000120E7
S214003FD40040012000800040FC71030040F20160B4
S214003FE415F018BFFEF7A0BE08B500210B20FEF79B
S214003FF499FEBDE80840FEF798BE032000F078BAA4
S21400400408B5FFF7E1FA044B0B289ABF00B203EB9E
S2140040148000184608BD00BFBE4A030008B5FFF777
S214004024D9FA044BC0F30F2253F82230C0B203EB84
S214004034800008BD884A030010B5FFF7C5FA044699
S214004044FFF7C8FAC0B228B9012C24D164F07F0463
S214004054E4B216E0072CF9D801A353F824F000BF05
S2140040648740000051400000854000008B4000005F
S2140040748B4000008F4000009340000097400000F3
S2140040840924204610BD0224FBE70324F9E70B2489
S214004094F7E70624F5E70446F3E700BF07282DE90B
S2140040A4F84F04460F462DD0082808BF02242146A0
S2140040B40120FCF700FCFFF745FE651ED5F100085D
S2140040C448EB050800B3012C1ED1A520FFF730FEEF
S2140040D42646EFF31089012383F31088EFF3118A41
S2140040E44FF0000B8BF31188354D404607F05CF813
S2140040F4631EC5F800B0042B59D8DFE803F00E4D54
S2140041044D5155000324D2E7FFF71CFE18B1FFF704
S21400411421FE0026DDE70646DBE72A4A136923F07C
S2140041240403136130BF284AD2F82434D2F820247A
S21400413413409BB2254A2B60D2F80011480102D5E1
S2140041441168490106D4D2F80011880105D5126811
S214004154910102D543F480332B601C4BD3F8002125
S214004164520506D51B685B0542BF2B6843F4003333
S2140041742B601EB10121164803F093FE404607F05B
S21400418433F8CFB18AF3118889F310882146BDE845
S214004194F84F0020FCF78FBB012002F0C5FDC2E7F4
S2140041A4012002F0D5FDBEE702F0D4FDBBE788216E
S2140041B40848FFF7B1F8B6E787F31088E6E700BFCC
S2140041C4482D002000ED00E000C0034000E100E0C0
S2140041D40080014AEE4A030042F22041044AD2F823
S2140041E420341B0C1B045350024A1360704700BF54
S2140041F400C00340442D00200021FFF74FBFFFF707
S214004204FBBF00002DE9F04F89B00DF0E1FE074634
S214004214002840F0DD806F4E6F4D3168286814F03A
S214004224E3FF0446002827D033683C46D3E9000160
S2140042349A6912689047336804A89B699B689847F4
S214004244336802209B69DB68984732680598536890
S214004254E7B2B3FBF0F3BB42916904F1010442D820
S214004264CB680020984733689B695B689847316839
S214004274286814F0B9FF04460026DFF88891002C5D
S21400428453D1564B4FEA8608F35C002B31D1A24635
S214004294534BF35C0193534B03EB080B019B5FFA00
S2140042A48AF7BB42286853D84F4BF35C002B3CD0AC
S2140042B44C4B019F9844FBB27E2B286835D8D8F81F
S2140042C4003003AA07EB030A514602AB15F0C6F901
S2140042D448452AD05146286815F006FA01370446A0
S2140042E40028E8D021E012680B6907FB00209847F5
S2140042F4ABE73C4B03AA53F82670286802AB394652
S21400430415F0ACF9484507D078B9039B012B0CD0BF
S2140043143946286815F0E8F9344B394653F808301E
S21400432428681A6815F0C4F804460136272EA6D164
S214004334B4FA84F32E4A5B0913702E4B9C4241D088
S2140043442DD8002C32D0013B9C423FD0C5242DE012
S214004354DBF8003003AA1F44394602AB15F07EF999
S21400436448450AD010B10AF1010A97E7039B8BB9B6
S214004374214B029AF35C9A42F5D01F4B1B4A9B5D75
S21400438452F808203946286815F004F80028EAD0C0
S214004394044689E73946286815F0A6F9EDE7174B71
S2140043A49C4211D004339C42D0D1C1242B681B7C80
S2140043B423B14FF489711248FEF7AEFF204609B0C8
S2140043C4BDE8F08FC324F1E7C424EFE7C224EDE789
S2140043D4C624F3E7201F00201C1F0020D823030058
S2140043E41423030028240300FF2303003C230300B4
S2140043F44C2D002002E000F0C424030004E000F08A
S2140044046A4B03000BE000F0262970B506460C46FE
S21400441415461AD8144A127822B3144A1068144A55
S21400442452F82110134A125D3AB1324615F08EF84E
S214004434C0B1BDE87040FCF70CBE7F2D08BF002558
S2140044443246294414F0F0FFF2E7FF2903D9BDE809
S2140044547040FFF799BB40F24511BDE8704006482E
S214004464FEF75ABF70BD00BF4C2D00201C1F002055
S21400447428240300D82303006A4B03002628F8B533
S21400448404460D46164619D81449097829B3144922
S214004494144F0868144951F824103C5D3CB1126866
S2140044A415F006F8C8B1BDE8F840FCF7D2BD7F2D7C
S2140044B408BF0025294414F06DFFF3E7FF2805D94B
S2140044C41A463146BDE8F840FFF782BB4FF4BC718C
S2140044D4BDE8F8400548FEF71FBFF8BD4C2D002088
S2140044E41C1F0020D8230300282403006A4B030063
S2140044F408B5084B1B7863B1074B002253F820100D
S214004504064B186815F062F818B1BDE80840FCF7C9
S214004514A0BD08BD4C2D0020282403001C1F00202D
S21400452470B5164685180AB9304470BD01F00F03FD
S2140045340A2B34BF30243724013A2344090905F8EA
S214004544013DD2B2EFE70000F0B5F9B100281CDA5D
S2140045542D23B0F1004F137000D04042012115E026
S214004564801B8642ECB205F10105F9D904B927B1DE
S21400457401274D1C30345454E9B20133092B09D1B8
S214004584303050540131C8B2F0BD002100231F461C
S214004594DFF808C05CF823600025E2E7E04B030080
S2140045A42DE9F04F4FF0000B95B002AC81468A46D9
S2140045B417461D465E46A0463B7863B902ABE41A2E
S2140045C4E4B2224619465046C847002840F0938075
S2140045D43444E0B290E0252B13D0BBF1000F14D185
S2140045E42370013412AB9C426DD3A4EB0804E4B2EE
S2140045F4224641465046C84700287CD12644F6B297
S21400460460E0BBF1000F00D101373B78632B00F06C
S21400461492801BD8392B09D8302B80F09E80002B33
S214004624CCD0252B51D04FF0000BDBE7582B00F0F5
S2140046348B80622BF7D14FF0000B2B6801936B68CD
S2140046440093009B9B4543D10835ECE7702B1ED0A6
S21400465417D8642B01D06C2BE5D16C2B05F1040B19
S21400466428686CD17B78752B14BF0121002101D0FA
S214004674642B00D101372246FFF766FF04445D46EB
S214004684D1E7752BE9D0782B5ED0732BCBD1A4EB76
S2140046940804E4B2224602A9504605F1040B2D682C
S2140046A4C84740BB2644F6B2C4B22B5D0130002B8B
S2140046B4FAD1224629465046C847E0B95D468346A5
S2140046C42644F6B24446013776E723700134AAE757
S2140046D4019B204613F80B100222FFF721FF12ABB2
S2140046E4984204460ED3A0EB0804E4B222464146A0
S2140046F45046C84718B1002015B0BDE8F08F2644D0
S2140047044446F6B2009B013B5B4582BF20232370E0
S214004714013412AB9C420BD3A4EB0804E4B2224649
S21400472441465046C8470028E5D126444446F6B2DA
S2140047340BF1010B85E72B6804352370C6E7752B50
S2140047440CBF0021012196E7204602222978FFF7B4
S214004754E7FE05F1040B044691E77A7802F0DF02DF
S214004764582A19D1322B07F1010B09D1042220460D
S21400477429882F1DFFF7D4FE3D4604465F4652E7C0
S214004784342B09D12F1D2D680422290C2046FFF74F
S214004794C7FE0422A9B2EDE74FF0010B22E70EB4E0
S2140047A403B503AA52F8041B019206F0B3FDC0B287
S2140047B402B05DF804EB03B0704700000149FFF750
S2140047C4EEBF00BFAD1D03000EB433B505AA52F804
S2140047D4041B0546019206F09DFD04462846FFF795
S2140047E4EDFFE0B202B0BDE8304003B0704708B554
S2140047F406F090FDC0B208BD2DE9F04F9B46584B1D
S21400480485B01B78064689461546109F9DF844A039
S214004814DDF85080002B00F09280072A00F2918089
S2140048240E9B002B00F08D800F9B002B00F08980E0
S214004834129BB3F5006F00F38480012801D1002F8A
S2140048447FD0484B03EB05131B7B002B7BD0464CD9
S2140048541022002168462DF025FA04EB4514102298
S214004864B9F1000F5CD1494620462DF01BFAA37817
S21400487443F01003A370E37843F03003E370BAF117
S214004884000F03D1DBB243F00303E37036496A0139
S214004894129B885A013B63F30E100E9B01EB020C2D
S2140048A48852CCF808300F9B9DF84C10CCF8043096
S2140048B49CF80330012E61F38303CDF800B08CF826
S2140048C4033042D113230CF1100ECCF80C309CE8C4
S2140048D40F008EE80F006FF00301DCF81C20B9F11E
S2140048E4010F61F39F02CCF81C20CCF8147004D19D
S2140048F40F9BCCF80470CCF81830002719492A010D
S2140049048B1841F80280159A28465A609F605E7399
S2140049142246694602F050FF384605B0BDE8F08FDF
S214004924002120462DF0BEF91023A3700323E37064
S214004934BAF1000FAAD1DBB243F03003A5E70B4867
S214004944EBE70B48E9E70B48E7E7B8F1000FD4D1EB
S2140049549CF8023068F304138CF80230CDE700BFED
S214004964D02E0020502D0020D02D0020028000F0F4
S214004974018000F0078000F038B5104B05461B7820
S214004984BBB1C0B102F069F900230D4901EB031273
S214004994147B3CB92B6001231460137302F063F993
S2140049A4204638BD0133082BF0D102F05CF90548E7
S2140049B4F7E70548F5E70548F3E700BFD02E0020E3
S2140049C4502D0020048000F0028000F0018000F0EA
S2140049D438B502F042F9002305460A4AD1180C7B82
S2140049E45CB91033802BF9D102F098FE064B2846AA
S2140049F41C7002F038F9204638BD284602F033F918
S214004A040248F9E7502D0020D02E0020058000F043
S214004A140D4B10B51B78044693B1072812D802F044
S214004A241CF90A4B03EB04131A7B2AB100241C73EB
S214004A3402F019F9204610BD02F015F90448FAE709
S214004A440448F8E70448F6E7D02E0020502D00204E
S214004A54068000F0028000F0018000F0164B13B5CB
S214004A641868002301908DF8043002F0F6F8134B12
S214004A741C7824B102F0F7F8114802B010BD0122E8
S214004A841A7002F0F0F80F4B1C731C7783F82C4056
S214004A9483F83C4083F84C4083F85C4083F86C40D1
S214004AA483F87C4004230DEB03008DF8073002F0F6
S214004AB459FE2046E1E700BF044C0300D02E002038
S214004AC4038000F0502D002010B588B00E9C009294
S214004AD407940D9C024606949DF8304005940B9C62
S214004AE404949DF8284003940024CDE9013420461C
S214004AF40B462146FFF780FE08B010BD10B588B0FF
S214004B040E9C009207940D9C024606949DF8304035
S214004B1405940B9C04949DF8284003940024CDE946
S214004B24013420460B460121FFF766FE08B010BD8F
S214004B3408B50A4B1B785BB107280BD8084B03EB68
S214004B4400131B7B43B1002102F0FCFD002008BDCE
S214004B540448FCE70448FAE70448F8E7D02E0020A7
S214004B64502D0020028000F0018000F0078000F045
S214004B7408B50A4B1B785BB107280BD8084B03EB28
S214004B8400131B7B43B1012102F0DCFD002008BDAD
S214004B940448FCE70448FAE70448F8E7D02E002067
S214004BA4502D0020028000F0018000F0078000F005
S214004BB408B50A4B1B7853B107280AD8084B03EBF1
S214004BC400131B7B3BB102F047FE002008BD0548DE
S214004BD4FCE70548FAE70548F8E700BFD02E0020B2
S214004BE4502D0020028000F0018000F0078000F0C5
S214004BF40D4B1B7893B1072812D889B10B4B03EBE6
S214004C0400131B7B73B10A4BDA6A012303FA00F024
S214004C1410401ABF00200B70087070470548704794
S214004C240548704705487047D02E0020502D0020B8
S214004C3400000440028000F0018000F0078000F0CD
S214004C440B4B10B51B780C4663B107280CD859B12A
S214004C54084B03EB00131B7B43B102F00FFE2060EE
S214004C64002010BD0448FCE70448FAE70448F8E7C7
S214004C74D02E0020502D0020028000F0018000F08D
S214004C84078000F02DE9F843174B1F6D5B6D1F403E
S214004C9400D5FEE701260025144CDFF85480DFF823
S214004CA45490374217D02368C8F800609BB1A168B7
S214004CB462680131A16028469847637B012B0AD1BC
S214004CC448B909EB4513197B1A7F60F3410160F379
S214004CD4410219731A770135082D4FEA460604F186
S214004CE41004DED1BDE8F88300000440502D0020F7
S214004CF450200440D02D002070B504460125084EEF
S214004D0404B970BD94FAA4F0B0FA80F005FA00F382
S214004D1424EA030456F82030002BF1D09847EFE736
S214004D24D42E00204FF00072044BC3F880211A6082
S214004D344FF08062C3F880211A60704700E100E0FB
S214004D4438B504460D4601F088FF034B43F824505B
S214004D54BDE8384001F087BFD42E0020084BD3F8B6
S214004D642404D3F82024104042F2204220F42A508F
S214004D7420F02A004004400C9850FFF7BDBF00BF47
S214004D8400C00340084BD3F82404D3F82024104072
S214004D9442F2204220F4AA4020F055000004000C01
S214004DA49850FFF7A9BF00BF00C00340104A30B5B3
S214004DB4136841611546ABB91060836011E0091BA6
S214004DC49C6841611A467CB123465C698C42F6D9DC
S214004DD4002CF4D052B19060836013B15A69511A12
S214004DE4596130BD0022F0E72346F4E72860F3E774
S214004DF4282F002010B500F0AFFA094B094A1968AD
S214004E0431B11368C41A4B69A34203D31B1B4B610D
S214004E14106003E0C01A002310604B6110BD00BF91
S214004E24282F0020182F0020074B10B51B680220DF
S214004E345C69064B1B681C4400F0C2FA2046BDE8B9
S214004E44104000F091BA00BF282F0020182F002031
S214004E5470B59DF81450164605710025049A8560B1
S214004E64BDF818500446C5800260C0E903360D46F6
S214004E7429B961610BB11146984796B1354601F0E0
S214004E84ECFE0646FFF7B6FF29462046FFF78EFFE0
S214004E94054B1B68A34201D1FFF7C6FF304601F05D
S214004EA4E2FE002070BD00BF282F002000210C4A1F
S214004EB413687BB183420AD1836879B18B608368B7
S214004EC41BB15A6941690A445A6100207047194661
S214004ED49B68EEE70028EFD0022070471360EEE7E9
S214004EE4282F002070B501F0B8FE114D06462C7828
S214004EF4CCB9104B1C60104B1C60104B1C8000F08F
S214004F04F1F9012000F05CFA00F0A8FA0C4B024616
S214004F14186040F2E73123460A482CF0E1FC0A4BBD
S214004F24186001232B70304601F09DFE002070BDF2
S214004F34142F0020282F0020182F0020202F0020B8
S214004F44242F002018FCFFFF1C2F00202DE9F04121
S214004F540546F8B101F081FE0F4F0646FFF74AFFFB
S214004F642846D7F80080FFF7A1FF044628B130464C
S214004F7401F079FE2046BDE8F081A8453B6803D1E0
S214004F8423B1FFF751FFF2E7002BF0D1022000F027
S214004F9423FAECE72224EDE7282F0020F0B50D468F
S214004FA485B016461F46044680B1FFF7CFFFBDF80E
S214004FB42C30002202939DF828302946CDE9007350
S214004FC420463346FFF744FF05B0F0BD2220FBE73A
S214004FD438B50C46054698B191B100230B7001F024
S214004FE43CFE0121074B1B680BB122781AB101F075
S214004FF43AFE002038BD9D420CBF21709B68F3E743
S2140050042220F7E7282F0020F0B51F46002387B09C
S2140050140D4616468DF817300446A0B10DF117015B
S214005024FFF7D6FF9DF817207AB9BDF83430294625
S21400503402939DF830302046CDE900733346FFF7DF
S21400504407FF07B0F0BD2220FBE70320F9E70000C6
S214005054F8B50C460646C8B1C1B101F0FEFD0546DA
S214005064FFF7C8FE73692360134B1B68B3420FD067
S21400507423B9284601F0F7FD03201CE0596922688D
S2140050849B680A442260F1E700230FE0222012E026
S214005094276800F061F9094E3368C01A8742F3D9CD
S2140050A400F05AF93368C01A23681B1A284623608E
S2140050B401F0D9FD0020F8BD282F0020182F00206D
S2140050C470B501F0CAFD064600F046F9094B0546E0
S2140050D41C880120A4B200F097F918B100F03CF93E
S2140050E405460134304601F0BEFD0022214642EA60
S2140050F4050070BD202F00200A4B10B51B680C4617
S21400510483420CD3084B4FF47A7219680023A0FB31
S21400511401012CF0E5FB01302060002010BD2120A9
S214005124FCE700BF1C2F0020242F0020104B10B5D6
S2140051341A684FF47A73A0FB0301A2B1531E1342FC
S21400514411D1B2FA82F2C2F11F02C2F12004A2F116
S214005154200301FA04F420FA02F2224321FA03F3AC
S21400516442EA030010BD00232CF0BAFBFAE700BFA6
S214005174242F0020F8B516461BA3D3E900238B4240
S21400518408BF82422AD3174B1A684FF47A73A0FBDF
S214005194034503FB0155C2B1531E13EA020014D1A2
S2140051A4B2FA82F2C2F11F02C2F12007A2F1200174
S2140051B424FA02F305FA07F73B4325FA01F10B43F9
S2140051C425FA02F2C6E90032F8BD00232046294635
S2140051D42CF086FBC6E900010020F5E72120F3E762
S2140051E4AFF30080242F0020EFA7C64B3789410079
S2140051F4C2072DE9F84F04460BD5374A1388013306
S2140052049BB21380FFF7F6FD344B1B680BB1FFF718
S2140052140BFEA3075DD500F09FF8314E07463568B0
S2140052244FF0000A451B01F018FD8046DFF8AC90ED
S214005234D9F80040002C48D06369AB4209D95D1BFD
S21400524465613760FFF7F0FD4046BDE8F84F01F0B2
S2140052540ABD23462A4637605969914209D8187907
S21400526494F804C0521A844588BF1C469B68002BD9
S214005274F2D1404601F0F7FCD4F81480C4F814A028
S21400528401F0EBFC83462046FFF710FE584601F07B
S214005294EAFC23694BB101F0E0FC83462169204611
S2140052A4FFF784FD584601F0DEFCE36813B121687D
S2140052B42046984700F050F84744ED1B0446054442
S2140052C401F0CBFC27468046B2E7022000F084F8C3
S2140052D4BAE7BDE8F88F00BF202F0020282F002053
S2140052E4182F00201FB50024184B18689A880290BF
S2140052F453F8060FADF80C201B79009002A88DF821
S21400530404308DF808408DF80C4002F041FB6946E5
S21400531401208DF8004002F0FFFA4FF090431F2161
S2140053249A6922F01F029A61094A11609A6A12F079
S2140053340802FBD11A62012002F008FB4FF48062D7
S214005344044BC3F880211A6004B010BD084C030057
S2140053541420004800E100E04FF090439A6A1207D8
S214005364FCD4186A704700004FF09042936A1907FD
S214005374FCD4136A116C5269120704D4CA1A022A9E
S21400538401D899420ED1C21A012A98BF981CB0F1CE
S214005394FF3F28BF01304FF0904318649A6942F0EB
S2140053A408029A61054A13783BB14FF09041CB6BE3
S2140053B443F00203CB63002313707047D81E00200B
S2140053C482074FF0904200F00103916948BF43F012
S2140053D408030B4393617047830700F001020AD564
S2140053E40121084B42F0080219704FF09041CB6B34
S2140053F423F00303CB634FF090418B6923EA020347
S2140054048B617047D81E00204FF0904301285B69DB
S21400541404D0022805D1C3F3C000704703F001008E
S214005424704700207047000010B501F016FC4FF0DE
S214005434904304465B691A07074A03F0010003F029
S2140054440D0348BF40F002001360FFF7D1FE20466C
S214005454BDE8104001F007BC142000481B2001F0F2
S2140054640DB90000002211462D48F0B503682D4DF5
S21400547454592CB11E68AC18002E3DD12346012188
S2140054840832282AF4D101B10360002214462649C2
S214005494264E0B6895592DB11F68B518002F32D1CA
S2140054A42B4601240832282AF4D104B10B60006884
S2140054B40368002B2FD04FF04022936F007923F01F
S2140054C4FF7323F4803343EA00439367184B4FF08B
S2140054D4004209681A600B68FBB14FF04022936FD4
S2140054E4097923F4FF7323F001030B439367104BEE
S2140054F44FF080421A60F0BD1E792779B74284BF08
S21400550423460121BCE71F7995F804C0BC453CBF7F
S2140055142B460124C6E7074BD9E7064BE8E700BF4E
S214005524302F0020402F0020342F0020682F00202A
S214005534685000406860004010B5012228240F4BD4
S21400554400211A700E4822462CF0ACFB224600219D
S2140055540C482CF0A7FB0C4B0C4A13600C4A136047
S2140055644FF040430B4A1360536020220A4BC3F8A3
S21400557480211A60FFF776FF002010BD2C2F002034
S214005584402F0020682F0020382F0020302F0020C6
S214005594342F00206460004000E100E04FF0402219
S2140055A4D2F88800D2F88830C0F38800C3F38803A2
S2140055B49842F5D16FF48873184440B270470000DF
S2140055C44FF04022936E526E10B5134013F0804293
S2140055D411D0114B1B681C682CB10021196059604E
S2140055E4FFF7DCFFA0474FF080420C4B1A60BDE883
S2140055F41040FFF737BF002BF9DA094B1B681C680D
S2140056042CB11A605A60FFF7C9FF0121A047034B6B
S2140056144FF00042EAE700BF342F002064600040E9
S214005624302F0020FFF7CCBF012203685A619A6925
S214005634D207FCD541F2AC52042103795B0103F195
S214005644804303F5703399507047000038B141B178
S214005654013AB2F5006F044838BF0020704703488B
S21400566470470148704700BF037000F0027000F0F6
S21400567438B504460D4601F0F0FAA28892B222B973
S2140056842A6001F0F0FA064838BD1422638802FB4B
S214005694034308332B6001F0E6FA0020F4E700BF6A
S2140056A40B7000F038B504460D4601F0D6FAA38810
S2140056B49BB223B92B6001F0D6FA0C4838BD1422ED
S2140056C46388E18802FB034308332B6063885A1C13
S2140056D492FBF1F301FB13239BB26380A388013B87
S2140056E49BB2A38001F0BFFA0020E7E70B7000F03E
S2140056F490F83130022B0BD13022437F90F82100F2
S2140057045A43044B9B5823FA00F000F001007047FC
S2140057140020704714C00340002313B51C4A52F8F7
S214005724234094F8211081420ED00133042BF6D185
S21400573402B010BD0028FBD19DF80730002BF7D02F
S214005744A068FFF7F5F9F3E794F83130022BEFD1B0
S2140057542046FFF7CDFF637E2076022BE8D194F82F
S2140057642E3003F0FF02002BE2D102A901F8012D2E
S214005774A068FFF73DFA237E1BB194F82F30002B68
S214005784D8D00023A06884F82F30FFF7F1F9CFE7CC
S214005794902F0020012230B590F8324087B080F870
S2140057A42C207CB9094D0368CDE9024504904C6869
S2140057B42433CDE900240A684169C068FFF79EF9DE
S2140057C407B030BD002380F82C30F9E78560000070
S2140057D4012330B590F8324087B080F82D307CB97C
S2140057E4094D0268CDE9024504904C683C32CDE987
S2140057F400340B6801698068FFF766F907B030BDAE
S214005804002380F82D30F9E711580000F7B5906AA8
S21400581401A91446FFF72CFF144B984220D000250C
S214005824019B1D619D6001F018FA019A0746D6682F
S21400583426B1D2E9002329462046B04701A9A06A2A
S214005844FFF730FFA06A83889BB263B101A9FFF714
S2140058540FFF01992046FFF7BBFF384601F003FA15
S214005864012003B0F0BD84F82D30F6E70B7000F08D
S214005874F8B5044617460D4601F0EFF9A388E2880A
S21400588406469A4205D800233B6001F0ECF9164818
S214005894F8BD1422238805F1100C02FB03430833D9
S2140058A42A4603CA624518605960154603F1080380
S2140058B4F6D11068142218602388E18802FB03439B
S2140058C408333B60238830465A1C92FBF1F301FBF5
S2140058D413239BB22380A38801339BB2A38001F0D9
S2140058E4C2F90020D4E700BF0A7000F02DE9F341A6
S2140058F40D460446002800F0868001F0AEF9012D1E
S214005904064637D1A36A9B889BB2002B39D0A06881
S214005914FFF74EF90023A06A84F82D3083889BB2E3
S214005924002B34D1226893699B04FCD5023D012DDB
S2140059341BD8E068FFF73CF90023606A84F82C3033
S21400594483889BB2002B41D194F83130032B0CD0C2
S21400595442F2AC52042123795B0103F1804303F540
S21400596470339950022223685A61304601F07BF95D
S214005974002009E0022D48D1636A9B889BB2002B65
S214005984D4D101F070F9264802B0BDE8F08101A92F
S214005994FFF76EFE0199A0680831FFF751F9214F11
S2140059A4019B1F61A06A83889BB2002BBAD001A911
S2140059B4FFF778FE019BD3F80C80B8F1000FF1D006
